{
  "address": "0x70234f7AA5B3F57a74D9bd89243BA9e4C4C7D5E7",
  "abi": [
    {
      "inputs": [
        {
          "internalType": "uint256[2]",
          "name": "a",
          "type": "uint256[2]"
        },
        {
          "internalType": "uint256[2][2]",
          "name": "b",
          "type": "uint256[2][2]"
        },
        {
          "internalType": "uint256[2]",
          "name": "c",
          "type": "uint256[2]"
        },
        {
          "internalType": "uint256[8]",
          "name": "input",
          "type": "uint256[8]"
        }
      ],
      "name": "verifyProof",
      "outputs": [
        {
          "internalType": "bool",
          "name": "r",
          "type": "bool"
        }
      ],
      "stateMutability": "view",
      "type": "function"
    }
  ],
  "transactionHash": "0xfd83e9e564f12ce7b6566bddf87a160f42419f82ba293340608d999a3a009b4b",
  "args": [],
  "numDeployments": 6,
  "solcInputHash": "fd7ec9609c2a2ea82ae10182daaacc0c",
  "bytecode": "0x611d7a610053600b82828239805160001a607314610046577f4e487b7100000000000000000000000000000000000000000000000000000000600052600060045260246000fd5b30600052607381538281f3fe73000000000000000000000000000000000000000030146080604052600436106100355760003560e01c8063c9219a7a1461003a575b600080fd5b610054600480360381019061004f919061185c565b61006a565b60405161006191906118e0565b60405180910390f35b600061007461142c565b604051806040016040528087600060028110610093576100926118fb565b5b60200201518152602001876001600281106100b1576100b06118fb565b5b6020020151815250816000018190525060405180604001604052806040518060400160405280886000600281106100eb576100ea6118fb565b5b6020020151600060028110610103576101026118fb565b5b6020020151815260200188600060028110610121576101206118fb565b5b6020020151600160028110610139576101386118fb565b5b60200201518152508152602001604051806040016040528088600160028110610165576101646118fb565b5b602002015160006002811061017d5761017c6118fb565b5b602002015181526020018860016002811061019b5761019a6118fb565b5b60200201516001600281106101b3576101b26118fb565b5b602002015181525081525081602001819052506040518060400160405280856000600281106101e5576101e46118fb565b5b6020020151815260200185600160028110610203576102026118fb565b5b602002015181525081604001819052506000600867ffffffffffffffff8111156102305761022f611593565b5b60405190808252806020026020018201604052801561025e5781602001602082028036833780820191505090505b50905060005b60088110156102b7578481600881106102805761027f6118fb565b5b6020020151828281518110610298576102976118fb565b5b60200260200101818152505080806102af90611959565b915050610264565b5060006102c482846102e3565b036102d4576001925050506102db565b6000925050505b949350505050565b6000807f30644e72e131a029b85045b68181585d2833e84879b9709143e1f593f0000001905060006103136104d6565b90508060800151516001865161032991906119a1565b14610369576040517f08c379a000000000000000000000000000000000000000000000000000000000815260040161036090611a32565b60405180910390fd5b60006040518060400160405280600081526020016000815250905060005b865181101561045857838782815181106103a4576103a36118fb565b5b6020026020010151106103ec576040517f08c379a00000000000000000000000000000000000000000000000000000000081526004016103e390611a9e565b60405180910390fd5b6104438261043e856080015160018561040591906119a1565b81518110610416576104156118fb565b5b60200260200101518a8581518110610431576104306118fb565b5b6020026020010151610c22565b610cfa565b9150808061045090611959565b915050610387565b50610482818360800151600081518110610475576104746118fb565b5b6020026020010151610cfa565b90506104b86104948660000151610df8565b8660200151846000015185602001518587604001518b604001518960600151610e9d565b6104c857600193505050506104d0565b600093505050505b92915050565b6104de61145f565b60405180604001604052807f2d4d9aa7e302d9df41749d5507949d05dbea33fbb16c643b22f599a2be6df2e281526020017f14bedd503c37ceb061d8ec60209fe345ce89830a19230301f076caff004d19268152508160000181905250604051806040016040528060405180604001604052807f0967032fcbf776d1afc985f88877f182d38480a653f2decaa9794cbc3bf3060c81526020017f0e187847ad4c798374d0d6732bf501847dd68bc0e071241e0213bc7fc13db7ab815250815260200160405180604001604052807f304cfbd1e08a704a99f5e847d93f8c3caafddec46b7a0d379da69a4d112346a781526020017f1739c1b1a457a8c7313123d24d2f9192f896b7c63eea05a9d57f06547ad0cec88152508152508160200181905250604051806040016040528060405180604001604052807f198e9393920d483a7260bfb731fb5d25f1aa493335a9e71297e485b7aef312c281526020017f1800deef121f1e76426a00665e5c4479674322d4f75edadd46debd5cd992f6ed815250815260200160405180604001604052807f090689d0585ff075ec9e99ad690c3395bc4b313370b38ef355acdadcd122975b81526020017f12c85ea5db8c6deb4aab71808dcb408fe3d1e7690c43d37b4ce6cc0166fa7daa8152508152508160400181905250604051806040016040528060405180604001604052807f1b59739527b62f226e6a79ff851bd053b0839e637798d48ba09381bf2736ad5a81526020017f1420a4547cc1754a48719c0c917ffe8641c2d88ae55e7141cbf43cda874b6158815250815260200160405180604001604052807f22cb7c84422affbd54a1a7f23d3e18071f8589ec35f2387a8c58f2ddda8c6d9481526020017f0195f43da6d4341734b8ebfd108e4ee8df23d9df87e28c947cf6bb8698af5f918152508152508160600181905250600967ffffffffffffffff8111156107a5576107a4611593565b5b6040519080825280602002602001820160405280156107de57816020015b6107cb6114a6565b8152602001906001900390816107c35790505b50816080018190525060405180604001604052807f25ca26240d518a379b29611ec9e9ac00743429e6d0afa2c37bade3490fea0a4f81526020017f0d0f4bde2b662c9b5bce878792a5b2bd2e3c6c3978acb126c7a0316b869b135c8152508160800151600081518110610854576108536118fb565b5b602002602001018190525060405180604001604052807f03466da36a7b85616b0202741374d7c4e8cd84a75a3e437e76ea9142f6b8f7e981526020017f23fc02ff1c402cbb50631e2dc851ae0e03acfa1a0b14bf21d2aba009efc0ebfc81525081608001516001815181106108cc576108cb6118fb565b5b602002602001018190525060405180604001604052807f26f195cfdce16d534cb22dfd0e1321db991c2e48384e0d03c7f0771f2582b2f481526020017f259755cb81e73cfed00014231b5c7bd39d176d8a359b4681d82e511747d3b9b38152508160800151600281518110610944576109436118fb565b5b602002602001018190525060405180604001604052807f22afcf253b30b79d18c50c7251b78d1ce5ce30b7b9811eb6deb49ecf584c8cc881526020017f25e4c932d90b74c9cdc020bd93c4b73fb839233204c917d28cb613925a214f9c81525081608001516003815181106109bc576109bb6118fb565b5b602002602001018190525060405180604001604052807f22136e5b8662737adf7dd4c7df8e3106ab942039fbdbcfccc9558263c018108d81526020017f202a05314665ba1a93e8d4feaf324a5b4b792560dbc83ac1316a905361493bb28152508160800151600481518110610a3457610a336118fb565b5b602002602001018190525060405180604001604052807f1ef8c7e881ebe64b4e20b41b9288ac35e919083ba7e3026d35f3b8e47bed410681526020017f0e67a8a8b97957529ae25384a67c99d6e1786fd9611c177160e861e6383a521b8152508160800151600581518110610aac57610aab6118fb565b5b602002602001018190525060405180604001604052807f15052742153640eac8d70c1aadbf1640547ed445237e2cd0f87397c65672d0a181526020017f030b3e5fce635ee63fad8d64a98ac732d269da7ee5ecaa11157572d0bacf114c8152508160800151600681518110610b2457610b236118fb565b5b602002602001018190525060405180604001604052807f08ba957847c84f78540ef9a586a1e68dd9bfb5d474b19c7f143c077bb9cbd8b581526020017f2a1383de41cc4a0156b104695cb3e765184f424177cf1fbed021ed915185c9908152508160800151600781518110610b9c57610b9b6118fb565b5b602002602001018190525060405180604001604052807f12e8c3515bec7d124e8cfaee7465d987f6d8ca235ec103e1317e0a2eb058efc881526020017f1cc7bbcb2a8bb78609ab44be33444c1bc5073b0c4c0d9a70eec1c3aa85b6bef38152508160800151600881518110610c1457610c136118fb565b5b602002602001018190525090565b610c2a6114a6565b610c326114c0565b836000015181600060038110610c4b57610c4a6118fb565b5b602002018181525050836020015181600160038110610c6d57610c6c6118fb565b5b6020020181815250508281600260038110610c8b57610c8a6118fb565b5b602002018181525050600060608360808460076107d05a03fa90508060008103610cb157fe5b5080610cf2576040517f08c379a0000000000000000000000000000000000000000000000000000000008152600401610ce990611b0a565b60405180910390fd5b505092915050565b610d026114a6565b610d0a6114e2565b836000015181600060048110610d2357610d226118fb565b5b602002018181525050836020015181600160048110610d4557610d446118fb565b5b602002018181525050826000015181600260048110610d6757610d666118fb565b5b602002018181525050826020015181600360048110610d8957610d886118fb565b5b602002018181525050600060608360c08460066107d05a03fa90508060008103610daf57fe5b5080610df0576040517f08c379a0000000000000000000000000000000000000000000000000000000008152600401610de790611b76565b60405180910390fd5b505092915050565b610e006114a6565b60007f30644e72e131a029b85045b68181585d97816a916871ca8d3c208c16d87cfd47905060008360000151148015610e3d575060008360200151145b15610e61576040518060400160405280600081526020016000815250915050610e98565b604051806040016040528084600001518152602001828560200151610e869190611bc5565b83610e919190611bf6565b8152509150505b919050565b600080600467ffffffffffffffff811115610ebb57610eba611593565b5b604051908082528060200260200182016040528015610ef457816020015b610ee16114a6565b815260200190600190039081610ed95790505b5090506000600467ffffffffffffffff811115610f1457610f13611593565b5b604051908082528060200260200182016040528015610f4d57816020015b610f3a611504565b815260200190600190039081610f325790505b5090508a82600081518110610f6557610f646118fb565b5b60200260200101819052508882600181518110610f8557610f846118fb565b5b60200260200101819052508682600281518110610fa557610fa46118fb565b5b60200260200101819052508482600381518110610fc557610fc46118fb565b5b60200260200101819052508981600081518110610fe557610fe46118fb565b5b60200260200101819052508781600181518110611005576110046118fb565b5b60200260200101819052508581600281518110611025576110246118fb565b5b60200260200101819052508381600381518110611045576110446118fb565b5b602002602001018190525061105a828261106a565b9250505098975050505050505050565b600081518351146110b0576040517f08c379a00000000000000000000000000000000000000000000000000000000081526004016110a790611c76565b60405180910390fd5b60008351905060006006826110c59190611c96565b905060008167ffffffffffffffff8111156110e3576110e2611593565b5b6040519080825280602002602001820160405280156111115781602001602082028036833780820191505090505b50905060005b8381101561139657868181518110611132576111316118fb565b5b60200260200101516000015182600060068461114e9190611c96565b61115891906119a1565b81518110611169576111686118fb565b5b602002602001018181525050868181518110611188576111876118fb565b5b6020026020010151602001518260016006846111a49190611c96565b6111ae91906119a1565b815181106111bf576111be6118fb565b5b6020026020010181815250508581815181106111de576111dd6118fb565b5b6020026020010151600001516000600281106111fd576111fc6118fb565b5b60200201518260026006846112129190611c96565b61121c91906119a1565b8151811061122d5761122c6118fb565b5b60200260200101818152505085818151811061124c5761124b6118fb565b5b60200260200101516000015160016002811061126b5761126a6118fb565b5b60200201518260036006846112809190611c96565b61128a91906119a1565b8151811061129b5761129a6118fb565b5b6020026020010181815250508581815181106112ba576112b96118fb565b5b6020026020010151602001516000600281106112d9576112d86118fb565b5b60200201518260046006846112ee9190611c96565b6112f891906119a1565b81518110611309576113086118fb565b5b602002602001018181525050858181518110611328576113276118fb565b5b602002602001015160200151600160028110611347576113466118fb565b5b602002015182600560068461135c9190611c96565b61136691906119a1565b81518110611377576113766118fb565b5b602002602001018181525050808061138e90611959565b915050611117565b5061139f61152a565b6000602082602086026020860160086107d05a03fa905080600081036113c157fe5b5080611402576040517f08c379a00000000000000000000000000000000000000000000000000000000081526004016113f990611d24565b60405180910390fd5b600082600060018110611418576114176118fb565b5b602002015114159550505050505092915050565b604051806060016040528061143f6114a6565b815260200161144c611504565b81526020016114596114a6565b81525090565b6040518060a001604052806114726114a6565b815260200161147f611504565b815260200161148c611504565b8152602001611499611504565b8152602001606081525090565b604051806040016040528060008152602001600081525090565b6040518060600160405280600390602082028036833780820191505090505090565b6040518060800160405280600490602082028036833780820191505090505090565b604051806040016040528061151761154c565b815260200161152461154c565b81525090565b6040518060200160405280600190602082028036833780820191505090505090565b6040518060400160405280600290602082028036833780820191505090505090565b6000604051905090565b600080fd5b600080fd5b6000601f19601f8301169050919050565b7f4e487b7100000000000000000000000000000000000000000000000000000000600052604160045260246000fd5b6115cb82611582565b810181811067ffffffffffffffff821117156115ea576115e9611593565b5b80604052505050565b60006115fd61156e565b905061160982826115c2565b919050565b600067ffffffffffffffff82111561162957611628611593565b5b602082029050919050565b600080fd5b6000819050919050565b61164c81611639565b811461165757600080fd5b50565b60008135905061166981611643565b92915050565b600061168261167d8461160e565b6115f3565b9050806020840283018581111561169c5761169b611634565b5b835b818110156116c557806116b1888261165a565b84526020840193505060208101905061169e565b5050509392505050565b600082601f8301126116e4576116e361157d565b5b60026116f184828561166f565b91505092915050565b600067ffffffffffffffff82111561171557611714611593565b5b602082029050919050565b600061173361172e846116fa565b6115f3565b9050806040840283018581111561174d5761174c611634565b5b835b81811015611776578061176288826116cf565b84526020840193505060408101905061174f565b5050509392505050565b600082601f8301126117955761179461157d565b5b60026117a2848285611720565b91505092915050565b600067ffffffffffffffff8211156117c6576117c5611593565b5b602082029050919050565b60006117e46117df846117ab565b6115f3565b905080602084028301858111156117fe576117fd611634565b5b835b818110156118275780611813888261165a565b845260208401935050602081019050611800565b5050509392505050565b600082601f8301126118465761184561157d565b5b60086118538482856117d1565b91505092915050565b600080600080610200858703121561187757611876611578565b5b6000611885878288016116cf565b945050604061189687828801611780565b93505060c06118a7878288016116cf565b9250506101006118b987828801611831565b91505092959194509250565b60008115159050919050565b6118da816118c5565b82525050565b60006020820190506118f560008301846118d1565b92915050565b7f4e487b7100000000000000000000000000000000000000000000000000000000600052603260045260246000fd5b7f4e487b7100000000000000000000000000000000000000000000000000000000600052601160045260246000fd5b600061196482611639565b91507fffffffffffffffffffffffffffffffffffffffffffffffffffffffffffffffff82036119965761199561192a565b5b600182019050919050565b60006119ac82611639565b91506119b783611639565b92508282019050808211156119cf576119ce61192a565b5b92915050565b600082825260208201905092915050565b7f76657269666965722d6261642d696e7075740000000000000000000000000000600082015250565b6000611a1c6012836119d5565b9150611a27826119e6565b602082019050919050565b60006020820190508181036000830152611a4b81611a0f565b9050919050565b7f76657269666965722d6774652d736e61726b2d7363616c61722d6669656c6400600082015250565b6000611a88601f836119d5565b9150611a9382611a52565b602082019050919050565b60006020820190508181036000830152611ab781611a7b565b9050919050565b7f70616972696e672d6d756c2d6661696c65640000000000000000000000000000600082015250565b6000611af46012836119d5565b9150611aff82611abe565b602082019050919050565b60006020820190508181036000830152611b2381611ae7565b9050919050565b7f70616972696e672d6164642d6661696c65640000000000000000000000000000600082015250565b6000611b606012836119d5565b9150611b6b82611b2a565b602082019050919050565b60006020820190508181036000830152611b8f81611b53565b9050919050565b7f4e487b7100000000000000000000000000000000000000000000000000000000600052601260045260246000fd5b6000611bd082611639565b9150611bdb83611639565b925082611beb57611bea611b96565b5b828206905092915050565b6000611c0182611639565b9150611c0c83611639565b9250828203905081811115611c2457611c2361192a565b5b92915050565b7f70616972696e672d6c656e677468732d6661696c656400000000000000000000600082015250565b6000611c606016836119d5565b9150611c6b82611c2a565b602082019050919050565b60006020820190508181036000830152611c8f81611c53565b9050919050565b6000611ca182611639565b9150611cac83611639565b9250828202611cba81611639565b91508282048414831517611cd157611cd061192a565b5b5092915050565b7f70616972696e672d6f70636f64652d6661696c65640000000000000000000000600082015250565b6000611d0e6015836119d5565b9150611d1982611cd8565b602082019050919050565b60006020820190508181036000830152611d3d81611d01565b905091905056fea264697066735822122006b79944652489a89ab82d2cc1e305cd43f2696a7fce1ca2a59fdbc6b412dfe864736f6c63430008120033",
  "devdoc": {
    "kind": "dev",
    "methods": {
      "verifyProof(uint256[2],uint256[2][2],uint256[2],uint256[8])": {
        "returns": {
          "r": " bool true if proof is valid"
        }
      }
    },
    "version": 1
  },
  "userdoc": {
    "kind": "user",
    "methods": {},
    "version": 1
  },
  "storageLayout": {
    "storage": [],
    "types": null
  }
}