{
  "address": "0x6797a967674d2414eF109eD34269e00Ed07ea356",
  "abi": [
    {
      "inputs": [
        {
          "internalType": "uint256[2]",
          "name": "a",
          "type": "uint256[2]"
        },
        {
          "internalType": "uint256[2][2]",
          "name": "b",
          "type": "uint256[2][2]"
        },
        {
          "internalType": "uint256[2]",
          "name": "c",
          "type": "uint256[2]"
        },
        {
          "internalType": "uint256[8]",
          "name": "input",
          "type": "uint256[8]"
        }
      ],
      "name": "verifyProof",
      "outputs": [
        {
          "internalType": "bool",
          "name": "r",
          "type": "bool"
        }
      ],
      "stateMutability": "view",
      "type": "function"
    }
  ],
  "transactionHash": "0xf41f84ddb6025b24d74d4806746487f57e1410c33f7ea80ee4611b1ac08e8c93",
  "args": [],
  "numDeployments": 3,
  "solcInputHash": "c4070164733e6556ba82c2fe5b047bce",
  "bytecode": "0x611d79610053600b82828239805160001a607314610046577f4e487b7100000000000000000000000000000000000000000000000000000000600052600060045260246000fd5b30600052607381538281f3fe73000000000000000000000000000000000000000030146080604052600436106100355760003560e01c8063c9219a7a1461003a575b600080fd5b610054600480360381019061004f919061185b565b61006a565b60405161006191906118df565b60405180910390f35b600061007461142b565b604051806040016040528087600060028110610093576100926118fa565b5b60200201518152602001876001600281106100b1576100b06118fa565b5b6020020151815250816000018190525060405180604001604052806040518060400160405280886000600281106100eb576100ea6118fa565b5b6020020151600060028110610103576101026118fa565b5b6020020151815260200188600060028110610121576101206118fa565b5b6020020151600160028110610139576101386118fa565b5b60200201518152508152602001604051806040016040528088600160028110610165576101646118fa565b5b602002015160006002811061017d5761017c6118fa565b5b602002015181526020018860016002811061019b5761019a6118fa565b5b60200201516001600281106101b3576101b26118fa565b5b602002015181525081525081602001819052506040518060400160405280856000600281106101e5576101e46118fa565b5b6020020151815260200185600160028110610203576102026118fa565b5b602002015181525081604001819052506000600867ffffffffffffffff8111156102305761022f611592565b5b60405190808252806020026020018201604052801561025e5781602001602082028036833780820191505090505b50905060005b60088110156102b7578481600881106102805761027f6118fa565b5b6020020151828281518110610298576102976118fa565b5b60200260200101818152505080806102af90611958565b915050610264565b5060006102c482846102e3565b036102d4576001925050506102db565b6000925050505b949350505050565b6000807f30644e72e131a029b85045b68181585d2833e84879b9709143e1f593f0000001905060006103136104d6565b90508060800151516001865161032991906119a0565b14610369576040517f08c379a000000000000000000000000000000000000000000000000000000000815260040161036090611a31565b60405180910390fd5b60006040518060400160405280600081526020016000815250905060005b865181101561045857838782815181106103a4576103a36118fa565b5b6020026020010151106103ec576040517f08c379a00000000000000000000000000000000000000000000000000000000081526004016103e390611a9d565b60405180910390fd5b6104438261043e856080015160018561040591906119a0565b81518110610416576104156118fa565b5b60200260200101518a8581518110610431576104306118fa565b5b6020026020010151610c21565b610cf9565b9150808061045090611958565b915050610387565b50610482818360800151600081518110610475576104746118fa565b5b6020026020010151610cf9565b90506104b86104948660000151610df7565b8660200151846000015185602001518587604001518b604001518960600151610e9c565b6104c857600193505050506104d0565b600093505050505b92915050565b6104de61145e565b60405180604001604052807f0325a19920380ec4d38dad81a28212d4daddc37051609fef4175c3445a17f59081526020017f11bd66a781a86cd358b047d74db8affbb5694a39c941febe9ce89d152b9df7458152508160000181905250604051806040016040528060405180604001604052807f211f6456d650fd85b3c48262fb47b9a4ad0aa769f4ee7f5ad4de3cf0e4ba020a81526020017f21c849e4882a55d90f620e2fd4738471c12ec177bb3a246a5823c8fa563bd241815250815260200160405180604001604052807e4823751885fe184bce42b686d74f6dbdaa777e445a1f7b0d556ec0076b1aff81526020017f26845eea29a2ae4aeff5ca8a6fccb5d53c3b6d3374eb06e9cef8a02fad78797d8152508152508160200181905250604051806040016040528060405180604001604052807f198e9393920d483a7260bfb731fb5d25f1aa493335a9e71297e485b7aef312c281526020017f1800deef121f1e76426a00665e5c4479674322d4f75edadd46debd5cd992f6ed815250815260200160405180604001604052807f090689d0585ff075ec9e99ad690c3395bc4b313370b38ef355acdadcd122975b81526020017f12c85ea5db8c6deb4aab71808dcb408fe3d1e7690c43d37b4ce6cc0166fa7daa8152508152508160400181905250604051806040016040528060405180604001604052807f198e9393920d483a7260bfb731fb5d25f1aa493335a9e71297e485b7aef312c281526020017f1800deef121f1e76426a00665e5c4479674322d4f75edadd46debd5cd992f6ed815250815260200160405180604001604052807f090689d0585ff075ec9e99ad690c3395bc4b313370b38ef355acdadcd122975b81526020017f12c85ea5db8c6deb4aab71808dcb408fe3d1e7690c43d37b4ce6cc0166fa7daa8152508152508160600181905250600967ffffffffffffffff8111156107a4576107a3611592565b5b6040519080825280602002602001820160405280156107dd57816020015b6107ca6114a5565b8152602001906001900390816107c25790505b50816080018190525060405180604001604052807f152ae5f20469ecbc398f1473246272cfe0b64c4a36d38c5d7510652923e4dc8f81526020017f2cba7749654ffb175f23d2c61b0088f59ab06250fbd414432fddc62e381005698152508160800151600081518110610853576108526118fa565b5b602002602001018190525060405180604001604052807f012f6328f451ed31d7bd99a4f906f60f795f25ab479053d4747ea4f33124779381526020017f2bee80b8e4e7d62f7877d3d3c8c740db869645aea1c17d46ae283745372f05d381525081608001516001815181106108cb576108ca6118fa565b5b602002602001018190525060405180604001604052807f2ed1ebc326dfe615962df2573bb23bc38ac0651d1aab2bebb78c1fee7670f0bf81526020017f186fd289cdd6ef3fc4438fb6f38791f6169b89fe57dfb6170cb8e8ad2484f1f68152508160800151600281518110610943576109426118fa565b5b602002602001018190525060405180604001604052807f2095d4ddcf6fc66241b87700b3168fc4fb996de186c3883487c3f7c5daaf30d381526020017f22f0a7d870466a2e5fe552352af50bbbdd7622d933939676eff3285472cabf9081525081608001516003815181106109bb576109ba6118fa565b5b602002602001018190525060405180604001604052807f18a097055b6406bc8cb99f389c460bc6675c7d37e1831601be3afccf7650fad881526020017f07ad1a16c72058e1f7413255956489336739f1f7927bb24da78f2551de9c682a8152508160800151600481518110610a3357610a326118fa565b5b602002602001018190525060405180604001604052807f0731d3884d19d4b243dd9e54b75f11da38acf0806730f13fae1571c8b868c8eb81526020017f0c95310e771022f76ff78d372ec82c97ef3f46b42e3bc99455502e7ab00f9caf8152508160800151600581518110610aab57610aaa6118fa565b5b602002602001018190525060405180604001604052807f1fcffcf03b08a7d1b628fd01a21349801a89aa009fcea2126a27c81727c0c3ec81526020017f17d644745ffc5c065f26e77c777579b0ba3e1a90e17f114f53f6b59dd66f2b9a8152508160800151600681518110610b2357610b226118fa565b5b602002602001018190525060405180604001604052807f24eaad8a929f1b1245fa55475d5193e8686c8e95e3ed3c8816cee12aec51f9b981526020017f098fcfe638e69a6cc46e9fd781f95a8e1370ac8daa934505073476f0a97d73128152508160800151600781518110610b9b57610b9a6118fa565b5b602002602001018190525060405180604001604052807f22a4927476eea751ab96cbf0ee26f3dccb143066d5674614659f09aa1b8592e681526020017f1b37ece413597e9dc901e02ea5faec272357a4807e24400209659c09acb050cd8152508160800151600881518110610c1357610c126118fa565b5b602002602001018190525090565b610c296114a5565b610c316114bf565b836000015181600060038110610c4a57610c496118fa565b5b602002018181525050836020015181600160038110610c6c57610c6b6118fa565b5b6020020181815250508281600260038110610c8a57610c896118fa565b5b602002018181525050600060608360808460076107d05a03fa90508060008103610cb057fe5b5080610cf1576040517f08c379a0000000000000000000000000000000000000000000000000000000008152600401610ce890611b09565b60405180910390fd5b505092915050565b610d016114a5565b610d096114e1565b836000015181600060048110610d2257610d216118fa565b5b602002018181525050836020015181600160048110610d4457610d436118fa565b5b602002018181525050826000015181600260048110610d6657610d656118fa565b5b602002018181525050826020015181600360048110610d8857610d876118fa565b5b602002018181525050600060608360c08460066107d05a03fa90508060008103610dae57fe5b5080610def576040517f08c379a0000000000000000000000000000000000000000000000000000000008152600401610de690611b75565b60405180910390fd5b505092915050565b610dff6114a5565b60007f30644e72e131a029b85045b68181585d97816a916871ca8d3c208c16d87cfd47905060008360000151148015610e3c575060008360200151145b15610e60576040518060400160405280600081526020016000815250915050610e97565b604051806040016040528084600001518152602001828560200151610e859190611bc4565b83610e909190611bf5565b8152509150505b919050565b600080600467ffffffffffffffff811115610eba57610eb9611592565b5b604051908082528060200260200182016040528015610ef357816020015b610ee06114a5565b815260200190600190039081610ed85790505b5090506000600467ffffffffffffffff811115610f1357610f12611592565b5b604051908082528060200260200182016040528015610f4c57816020015b610f39611503565b815260200190600190039081610f315790505b5090508a82600081518110610f6457610f636118fa565b5b60200260200101819052508882600181518110610f8457610f836118fa565b5b60200260200101819052508682600281518110610fa457610fa36118fa565b5b60200260200101819052508482600381518110610fc457610fc36118fa565b5b60200260200101819052508981600081518110610fe457610fe36118fa565b5b60200260200101819052508781600181518110611004576110036118fa565b5b60200260200101819052508581600281518110611024576110236118fa565b5b60200260200101819052508381600381518110611044576110436118fa565b5b60200260200101819052506110598282611069565b9250505098975050505050505050565b600081518351146110af576040517f08c379a00000000000000000000000000000000000000000000000000000000081526004016110a690611c75565b60405180910390fd5b60008351905060006006826110c49190611c95565b905060008167ffffffffffffffff8111156110e2576110e1611592565b5b6040519080825280602002602001820160405280156111105781602001602082028036833780820191505090505b50905060005b8381101561139557868181518110611131576111306118fa565b5b60200260200101516000015182600060068461114d9190611c95565b61115791906119a0565b81518110611168576111676118fa565b5b602002602001018181525050868181518110611187576111866118fa565b5b6020026020010151602001518260016006846111a39190611c95565b6111ad91906119a0565b815181106111be576111bd6118fa565b5b6020026020010181815250508581815181106111dd576111dc6118fa565b5b6020026020010151600001516000600281106111fc576111fb6118fa565b5b60200201518260026006846112119190611c95565b61121b91906119a0565b8151811061122c5761122b6118fa565b5b60200260200101818152505085818151811061124b5761124a6118fa565b5b60200260200101516000015160016002811061126a576112696118fa565b5b602002015182600360068461127f9190611c95565b61128991906119a0565b8151811061129a576112996118fa565b5b6020026020010181815250508581815181106112b9576112b86118fa565b5b6020026020010151602001516000600281106112d8576112d76118fa565b5b60200201518260046006846112ed9190611c95565b6112f791906119a0565b81518110611308576113076118fa565b5b602002602001018181525050858181518110611327576113266118fa565b5b602002602001015160200151600160028110611346576113456118fa565b5b602002015182600560068461135b9190611c95565b61136591906119a0565b81518110611376576113756118fa565b5b602002602001018181525050808061138d90611958565b915050611116565b5061139e611529565b6000602082602086026020860160086107d05a03fa905080600081036113c057fe5b5080611401576040517f08c379a00000000000000000000000000000000000000000000000000000000081526004016113f890611d23565b60405180910390fd5b600082600060018110611417576114166118fa565b5b602002015114159550505050505092915050565b604051806060016040528061143e6114a5565b815260200161144b611503565b81526020016114586114a5565b81525090565b6040518060a001604052806114716114a5565b815260200161147e611503565b815260200161148b611503565b8152602001611498611503565b8152602001606081525090565b604051806040016040528060008152602001600081525090565b6040518060600160405280600390602082028036833780820191505090505090565b6040518060800160405280600490602082028036833780820191505090505090565b604051806040016040528061151661154b565b815260200161152361154b565b81525090565b6040518060200160405280600190602082028036833780820191505090505090565b6040518060400160405280600290602082028036833780820191505090505090565b6000604051905090565b600080fd5b600080fd5b6000601f19601f8301169050919050565b7f4e487b7100000000000000000000000000000000000000000000000000000000600052604160045260246000fd5b6115ca82611581565b810181811067ffffffffffffffff821117156115e9576115e8611592565b5b80604052505050565b60006115fc61156d565b905061160882826115c1565b919050565b600067ffffffffffffffff82111561162857611627611592565b5b602082029050919050565b600080fd5b6000819050919050565b61164b81611638565b811461165657600080fd5b50565b60008135905061166881611642565b92915050565b600061168161167c8461160d565b6115f2565b9050806020840283018581111561169b5761169a611633565b5b835b818110156116c457806116b08882611659565b84526020840193505060208101905061169d565b5050509392505050565b600082601f8301126116e3576116e261157c565b5b60026116f084828561166e565b91505092915050565b600067ffffffffffffffff82111561171457611713611592565b5b602082029050919050565b600061173261172d846116f9565b6115f2565b9050806040840283018581111561174c5761174b611633565b5b835b81811015611775578061176188826116ce565b84526020840193505060408101905061174e565b5050509392505050565b600082601f8301126117945761179361157c565b5b60026117a184828561171f565b91505092915050565b600067ffffffffffffffff8211156117c5576117c4611592565b5b602082029050919050565b60006117e36117de846117aa565b6115f2565b905080602084028301858111156117fd576117fc611633565b5b835b8181101561182657806118128882611659565b8452602084019350506020810190506117ff565b5050509392505050565b600082601f8301126118455761184461157c565b5b60086118528482856117d0565b91505092915050565b600080600080610200858703121561187657611875611577565b5b6000611884878288016116ce565b94505060406118958782880161177f565b93505060c06118a6878288016116ce565b9250506101006118b887828801611830565b91505092959194509250565b60008115159050919050565b6118d9816118c4565b82525050565b60006020820190506118f460008301846118d0565b92915050565b7f4e487b7100000000000000000000000000000000000000000000000000000000600052603260045260246000fd5b7f4e487b7100000000000000000000000000000000000000000000000000000000600052601160045260246000fd5b600061196382611638565b91507fffffffffffffffffffffffffffffffffffffffffffffffffffffffffffffffff820361199557611994611929565b5b600182019050919050565b60006119ab82611638565b91506119b683611638565b92508282019050808211156119ce576119cd611929565b5b92915050565b600082825260208201905092915050565b7f76657269666965722d6261642d696e7075740000000000000000000000000000600082015250565b6000611a1b6012836119d4565b9150611a26826119e5565b602082019050919050565b60006020820190508181036000830152611a4a81611a0e565b9050919050565b7f76657269666965722d6774652d736e61726b2d7363616c61722d6669656c6400600082015250565b6000611a87601f836119d4565b9150611a9282611a51565b602082019050919050565b60006020820190508181036000830152611ab681611a7a565b9050919050565b7f70616972696e672d6d756c2d6661696c65640000000000000000000000000000600082015250565b6000611af36012836119d4565b9150611afe82611abd565b602082019050919050565b60006020820190508181036000830152611b2281611ae6565b9050919050565b7f70616972696e672d6164642d6661696c65640000000000000000000000000000600082015250565b6000611b5f6012836119d4565b9150611b6a82611b29565b602082019050919050565b60006020820190508181036000830152611b8e81611b52565b9050919050565b7f4e487b7100000000000000000000000000000000000000000000000000000000600052601260045260246000fd5b6000611bcf82611638565b9150611bda83611638565b925082611bea57611be9611b95565b5b828206905092915050565b6000611c0082611638565b9150611c0b83611638565b9250828203905081811115611c2357611c22611929565b5b92915050565b7f70616972696e672d6c656e677468732d6661696c656400000000000000000000600082015250565b6000611c5f6016836119d4565b9150611c6a82611c29565b602082019050919050565b60006020820190508181036000830152611c8e81611c52565b9050919050565b6000611ca082611638565b9150611cab83611638565b9250828202611cb981611638565b91508282048414831517611cd057611ccf611929565b5b5092915050565b7f70616972696e672d6f70636f64652d6661696c65640000000000000000000000600082015250565b6000611d0d6015836119d4565b9150611d1882611cd7565b602082019050919050565b60006020820190508181036000830152611d3c81611d00565b905091905056fea2646970667358221220936c8c2f87ba318e089188ba2914e2e4ee16e99c12c0bc2a24c4e6cc9a65411e64736f6c63430008110033",
  "devdoc": {
    "kind": "dev",
    "methods": {
      "verifyProof(uint256[2],uint256[2][2],uint256[2],uint256[8])": {
        "returns": {
          "r": " bool true if proof is valid"
        }
      }
    },
    "version": 1
  },
  "userdoc": {
    "kind": "user",
    "methods": {},
    "version": 1
  },
  "storageLayout": {
    "storage": [],
    "types": null
  }
}