{
  "address": "0xb57374FA5B86179D3BFb9a893958910AF6753384",
  "abi": [
    {
      "inputs": [
        {
          "internalType": "uint256[2]",
          "name": "a",
          "type": "uint256[2]"
        },
        {
          "internalType": "uint256[2][2]",
          "name": "b",
          "type": "uint256[2][2]"
        },
        {
          "internalType": "uint256[2]",
          "name": "c",
          "type": "uint256[2]"
        },
        {
          "internalType": "uint256[3]",
          "name": "input",
          "type": "uint256[3]"
        }
      ],
      "name": "verifyProof",
      "outputs": [
        {
          "internalType": "bool",
          "name": "r",
          "type": "bool"
        }
      ],
      "stateMutability": "view",
      "type": "function"
    }
  ],
  "transactionHash": "0xd4ac5038057d315c2c8fdcda773043ff1ebd2039350b9f99a3253b88be6fb5ab",
  "args": [],
  "numDeployments": 2,
  "solcInputHash": "503c0375ebe75814f84e317e0c874b03",
  "bytecode": "0x611b21610053600b82828239805160001a607314610046577f4e487b7100000000000000000000000000000000000000000000000000000000600052600060045260246000fd5b30600052607381538281f3fe73000000000000000000000000000000000000000030146080604052600436106100355760003560e01c806311479fea1461003a575b600080fd5b610054600480360381019061004f9190611603565b61006a565b6040516100619190611687565b60405180910390f35b60006100746111d3565b604051806040016040528087600060028110610093576100926116a2565b5b60200201518152602001876001600281106100b1576100b06116a2565b5b6020020151815250816000018190525060405180604001604052806040518060400160405280886000600281106100eb576100ea6116a2565b5b6020020151600060028110610103576101026116a2565b5b6020020151815260200188600060028110610121576101206116a2565b5b6020020151600160028110610139576101386116a2565b5b60200201518152508152602001604051806040016040528088600160028110610165576101646116a2565b5b602002015160006002811061017d5761017c6116a2565b5b602002015181526020018860016002811061019b5761019a6116a2565b5b60200201516001600281106101b3576101b26116a2565b5b602002015181525081525081602001819052506040518060400160405280856000600281106101e5576101e46116a2565b5b6020020151815260200185600160028110610203576102026116a2565b5b602002015181525081604001819052506000600367ffffffffffffffff8111156102305761022f61133a565b5b60405190808252806020026020018201604052801561025e5781602001602082028036833780820191505090505b50905060005b60038110156102b7578481600381106102805761027f6116a2565b5b6020020151828281518110610298576102976116a2565b5b60200260200101818152505080806102af90611700565b915050610264565b5060006102c482846102e3565b036102d4576001925050506102db565b6000925050505b949350505050565b6000807f30644e72e131a029b85045b68181585d2833e84879b9709143e1f593f0000001905060006103136104d6565b9050806080015151600186516103299190611748565b14610369576040517f08c379a0000000000000000000000000000000000000000000000000000000008152600401610360906117d9565b60405180910390fd5b60006040518060400160405280600081526020016000815250905060005b865181101561045857838782815181106103a4576103a36116a2565b5b6020026020010151106103ec576040517f08c379a00000000000000000000000000000000000000000000000000000000081526004016103e390611845565b60405180910390fd5b6104438261043e85608001516001856104059190611748565b81518110610416576104156116a2565b5b60200260200101518a8581518110610431576104306116a2565b5b60200260200101516109c9565b610aa1565b9150808061045090611700565b915050610387565b50610482818360800151600081518110610475576104746116a2565b5b6020026020010151610aa1565b90506104b86104948660000151610b9f565b8660200151846000015185602001518587604001518b604001518960600151610c44565b6104c857600193505050506104d0565b600093505050505b92915050565b6104de611206565b60405180604001604052807f0325a19920380ec4d38dad81a28212d4daddc37051609fef4175c3445a17f59081526020017f11bd66a781a86cd358b047d74db8affbb5694a39c941febe9ce89d152b9df7458152508160000181905250604051806040016040528060405180604001604052807f211f6456d650fd85b3c48262fb47b9a4ad0aa769f4ee7f5ad4de3cf0e4ba020a81526020017f21c849e4882a55d90f620e2fd4738471c12ec177bb3a246a5823c8fa563bd241815250815260200160405180604001604052807e4823751885fe184bce42b686d74f6dbdaa777e445a1f7b0d556ec0076b1aff81526020017f26845eea29a2ae4aeff5ca8a6fccb5d53c3b6d3374eb06e9cef8a02fad78797d8152508152508160200181905250604051806040016040528060405180604001604052807f198e9393920d483a7260bfb731fb5d25f1aa493335a9e71297e485b7aef312c281526020017f1800deef121f1e76426a00665e5c4479674322d4f75edadd46debd5cd992f6ed815250815260200160405180604001604052807f090689d0585ff075ec9e99ad690c3395bc4b313370b38ef355acdadcd122975b81526020017f12c85ea5db8c6deb4aab71808dcb408fe3d1e7690c43d37b4ce6cc0166fa7daa8152508152508160400181905250604051806040016040528060405180604001604052807f198e9393920d483a7260bfb731fb5d25f1aa493335a9e71297e485b7aef312c281526020017f1800deef121f1e76426a00665e5c4479674322d4f75edadd46debd5cd992f6ed815250815260200160405180604001604052807f090689d0585ff075ec9e99ad690c3395bc4b313370b38ef355acdadcd122975b81526020017f12c85ea5db8c6deb4aab71808dcb408fe3d1e7690c43d37b4ce6cc0166fa7daa8152508152508160600181905250600467ffffffffffffffff8111156107a4576107a361133a565b5b6040519080825280602002602001820160405280156107dd57816020015b6107ca61124d565b8152602001906001900390816107c25790505b50816080018190525060405180604001604052807f0a7813d2118ae812c957c807d3d561e5d1b711837c9bb66ded99a52a18bfe16681526020017f161f7edbd0e6d3a10a85debb2bba428efd48925689412e1eca6b5dc0010a58d48152508160800151600081518110610853576108526116a2565b5b602002602001018190525060405180604001604052807f244e43fca2e2f6e1988cc0aa56875c5b0533b5bc921fceb30f7fee05c16f86ff81526020017f2aff49ff915882d33b39df82bf34cdf9e7630d7c5e13490d1093fbf199ba88ea81525081608001516001815181106108cb576108ca6116a2565b5b602002602001018190525060405180604001604052807f054d90c93db0330b9caa054888e60c9e90083f266a95fc277949333aeea0d50f81526020017f03d00c89a80c1ac1bfb571af4cb4ecc65c7a16f81835199a396b87081badd6f28152508160800151600281518110610943576109426116a2565b5b602002602001018190525060405180604001604052807f0fba1bd90d6c08de9476dfe1ec1103a2baca8a9092c9b2bbc8e81673c4d0bc9f81526020017f1642bfd8c3d556d61be1a49421d4fadcfbc1a3d4869112992600e76c7e60934581525081608001516003815181106109bb576109ba6116a2565b5b602002602001018190525090565b6109d161124d565b6109d9611267565b8360000151816000600381106109f2576109f16116a2565b5b602002018181525050836020015181600160038110610a1457610a136116a2565b5b6020020181815250508281600260038110610a3257610a316116a2565b5b602002018181525050600060608360808460076107d05a03fa90508060008103610a5857fe5b5080610a99576040517f08c379a0000000000000000000000000000000000000000000000000000000008152600401610a90906118b1565b60405180910390fd5b505092915050565b610aa961124d565b610ab1611289565b836000015181600060048110610aca57610ac96116a2565b5b602002018181525050836020015181600160048110610aec57610aeb6116a2565b5b602002018181525050826000015181600260048110610b0e57610b0d6116a2565b5b602002018181525050826020015181600360048110610b3057610b2f6116a2565b5b602002018181525050600060608360c08460066107d05a03fa90508060008103610b5657fe5b5080610b97576040517f08c379a0000000000000000000000000000000000000000000000000000000008152600401610b8e9061191d565b60405180910390fd5b505092915050565b610ba761124d565b60007f30644e72e131a029b85045b68181585d97816a916871ca8d3c208c16d87cfd47905060008360000151148015610be4575060008360200151145b15610c08576040518060400160405280600081526020016000815250915050610c3f565b604051806040016040528084600001518152602001828560200151610c2d919061196c565b83610c38919061199d565b8152509150505b919050565b600080600467ffffffffffffffff811115610c6257610c6161133a565b5b604051908082528060200260200182016040528015610c9b57816020015b610c8861124d565b815260200190600190039081610c805790505b5090506000600467ffffffffffffffff811115610cbb57610cba61133a565b5b604051908082528060200260200182016040528015610cf457816020015b610ce16112ab565b815260200190600190039081610cd95790505b5090508a82600081518110610d0c57610d0b6116a2565b5b60200260200101819052508882600181518110610d2c57610d2b6116a2565b5b60200260200101819052508682600281518110610d4c57610d4b6116a2565b5b60200260200101819052508482600381518110610d6c57610d6b6116a2565b5b60200260200101819052508981600081518110610d8c57610d8b6116a2565b5b60200260200101819052508781600181518110610dac57610dab6116a2565b5b60200260200101819052508581600281518110610dcc57610dcb6116a2565b5b60200260200101819052508381600381518110610dec57610deb6116a2565b5b6020026020010181905250610e018282610e11565b9250505098975050505050505050565b60008151835114610e57576040517f08c379a0000000000000000000000000000000000000000000000000000000008152600401610e4e90611a1d565b60405180910390fd5b6000835190506000600682610e6c9190611a3d565b905060008167ffffffffffffffff811115610e8a57610e8961133a565b5b604051908082528060200260200182016040528015610eb85781602001602082028036833780820191505090505b50905060005b8381101561113d57868181518110610ed957610ed86116a2565b5b602002602001015160000151826000600684610ef59190611a3d565b610eff9190611748565b81518110610f1057610f0f6116a2565b5b602002602001018181525050868181518110610f2f57610f2e6116a2565b5b602002602001015160200151826001600684610f4b9190611a3d565b610f559190611748565b81518110610f6657610f656116a2565b5b602002602001018181525050858181518110610f8557610f846116a2565b5b602002602001015160000151600060028110610fa457610fa36116a2565b5b6020020151826002600684610fb99190611a3d565b610fc39190611748565b81518110610fd457610fd36116a2565b5b602002602001018181525050858181518110610ff357610ff26116a2565b5b602002602001015160000151600160028110611012576110116116a2565b5b60200201518260036006846110279190611a3d565b6110319190611748565b81518110611042576110416116a2565b5b602002602001018181525050858181518110611061576110606116a2565b5b6020026020010151602001516000600281106110805761107f6116a2565b5b60200201518260046006846110959190611a3d565b61109f9190611748565b815181106110b0576110af6116a2565b5b6020026020010181815250508581815181106110cf576110ce6116a2565b5b6020026020010151602001516001600281106110ee576110ed6116a2565b5b60200201518260056006846111039190611a3d565b61110d9190611748565b8151811061111e5761111d6116a2565b5b602002602001018181525050808061113590611700565b915050610ebe565b506111466112d1565b6000602082602086026020860160086107d05a03fa9050806000810361116857fe5b50806111a9576040517f08c379a00000000000000000000000000000000000000000000000000000000081526004016111a090611acb565b60405180910390fd5b6000826000600181106111bf576111be6116a2565b5b602002015114159550505050505092915050565b60405180606001604052806111e661124d565b81526020016111f36112ab565b815260200161120061124d565b81525090565b6040518060a0016040528061121961124d565b81526020016112266112ab565b81526020016112336112ab565b81526020016112406112ab565b8152602001606081525090565b604051806040016040528060008152602001600081525090565b6040518060600160405280600390602082028036833780820191505090505090565b6040518060800160405280600490602082028036833780820191505090505090565b60405180604001604052806112be6112f3565b81526020016112cb6112f3565b81525090565b6040518060200160405280600190602082028036833780820191505090505090565b6040518060400160405280600290602082028036833780820191505090505090565b6000604051905090565b600080fd5b600080fd5b6000601f19601f8301169050919050565b7f4e487b7100000000000000000000000000000000000000000000000000000000600052604160045260246000fd5b61137282611329565b810181811067ffffffffffffffff821117156113915761139061133a565b5b80604052505050565b60006113a4611315565b90506113b08282611369565b919050565b600067ffffffffffffffff8211156113d0576113cf61133a565b5b602082029050919050565b600080fd5b6000819050919050565b6113f3816113e0565b81146113fe57600080fd5b50565b600081359050611410816113ea565b92915050565b6000611429611424846113b5565b61139a565b90508060208402830185811115611443576114426113db565b5b835b8181101561146c57806114588882611401565b845260208401935050602081019050611445565b5050509392505050565b600082601f83011261148b5761148a611324565b5b6002611498848285611416565b91505092915050565b600067ffffffffffffffff8211156114bc576114bb61133a565b5b602082029050919050565b60006114da6114d5846114a1565b61139a565b905080604084028301858111156114f4576114f36113db565b5b835b8181101561151d57806115098882611476565b8452602084019350506040810190506114f6565b5050509392505050565b600082601f83011261153c5761153b611324565b5b60026115498482856114c7565b91505092915050565b600067ffffffffffffffff82111561156d5761156c61133a565b5b602082029050919050565b600061158b61158684611552565b61139a565b905080602084028301858111156115a5576115a46113db565b5b835b818110156115ce57806115ba8882611401565b8452602084019350506020810190506115a7565b5050509392505050565b600082601f8301126115ed576115ec611324565b5b60036115fa848285611578565b91505092915050565b600080600080610160858703121561161e5761161d61131f565b5b600061162c87828801611476565b945050604061163d87828801611527565b93505060c061164e87828801611476565b925050610100611660878288016115d8565b91505092959194509250565b60008115159050919050565b6116818161166c565b82525050565b600060208201905061169c6000830184611678565b92915050565b7f4e487b7100000000000000000000000000000000000000000000000000000000600052603260045260246000fd5b7f4e487b7100000000000000000000000000000000000000000000000000000000600052601160045260246000fd5b600061170b826113e0565b91507fffffffffffffffffffffffffffffffffffffffffffffffffffffffffffffffff820361173d5761173c6116d1565b5b600182019050919050565b6000611753826113e0565b915061175e836113e0565b9250828201905080821115611776576117756116d1565b5b92915050565b600082825260208201905092915050565b7f76657269666965722d6261642d696e7075740000000000000000000000000000600082015250565b60006117c360128361177c565b91506117ce8261178d565b602082019050919050565b600060208201905081810360008301526117f2816117b6565b9050919050565b7f76657269666965722d6774652d736e61726b2d7363616c61722d6669656c6400600082015250565b600061182f601f8361177c565b915061183a826117f9565b602082019050919050565b6000602082019050818103600083015261185e81611822565b9050919050565b7f70616972696e672d6d756c2d6661696c65640000000000000000000000000000600082015250565b600061189b60128361177c565b91506118a682611865565b602082019050919050565b600060208201905081810360008301526118ca8161188e565b9050919050565b7f70616972696e672d6164642d6661696c65640000000000000000000000000000600082015250565b600061190760128361177c565b9150611912826118d1565b602082019050919050565b60006020820190508181036000830152611936816118fa565b9050919050565b7f4e487b7100000000000000000000000000000000000000000000000000000000600052601260045260246000fd5b6000611977826113e0565b9150611982836113e0565b9250826119925761199161193d565b5b828206905092915050565b60006119a8826113e0565b91506119b3836113e0565b92508282039050818111156119cb576119ca6116d1565b5b92915050565b7f70616972696e672d6c656e677468732d6661696c656400000000000000000000600082015250565b6000611a0760168361177c565b9150611a12826119d1565b602082019050919050565b60006020820190508181036000830152611a36816119fa565b9050919050565b6000611a48826113e0565b9150611a53836113e0565b9250828202611a61816113e0565b91508282048414831517611a7857611a776116d1565b5b5092915050565b7f70616972696e672d6f70636f64652d6661696c65640000000000000000000000600082015250565b6000611ab560158361177c565b9150611ac082611a7f565b602082019050919050565b60006020820190508181036000830152611ae481611aa8565b905091905056fea26469706673582212205ab0a5328bce7ac57f8a93968c8699a6c30ef5cd5113bae200403e31dada41a264736f6c63430008110033",
  "devdoc": {
    "kind": "dev",
    "methods": {
      "verifyProof(uint256[2],uint256[2][2],uint256[2],uint256[3])": {
        "returns": {
          "r": " bool true if proof is valid"
        }
      }
    },
    "version": 1
  },
  "userdoc": {
    "kind": "user",
    "methods": {},
    "version": 1
  },
  "storageLayout": {
    "storage": [],
    "types": null
  }
}