{
  "address": "0x809AC0b9E5A424f80F7224348beAc3719320679D",
  "abi": [
    {
      "inputs": [
        {
          "internalType": "bytes",
          "name": "proof",
          "type": "bytes"
        },
        {
          "internalType": "uint256[]",
          "name": "pubSignals",
          "type": "uint256[]"
        }
      ],
      "name": "verifyProof",
      "outputs": [
        {
          "internalType": "bool",
          "name": "",
          "type": "bool"
        }
      ],
      "stateMutability": "view",
      "type": "function"
    }
  ],
  "transactionHash": "0x7fffb2c83ab829dfb412eec1f5ebc57d7974dcdd9ba86515a7952efdf3ead672",
  "args": [],
  "numDeployments": 1,
  "solcInputHash": "775cb6d737b3cdd136a3c03f2d999768",
  "bytecode": "0x611e40610053600b82828239805160001a607314610046577f4e487b7100000000000000000000000000000000000000000000000000000000600052600060045260246000fd5b30600052607381538281f3fe73000000000000000000000000000000000000000030146080604052600436106100355760003560e01c80631e8e1e131461003a575b600080fd5b610054600480360381019061004f9190611d5c565b61006a565b6040516100619190611def565b60405180910390f35b6000611a99565b600080600184846000805b82156100a6578284059150848202860390508495508094508282028403905082935080925061007c565b60018411156100b457600080fd5b60008612156100c35788860195505b85965050505050505092915050565b60405181602084028301815160208301925060005b8284101561012a578185527f30644e72e131a029b85045b68181585d2833e84879b9709143e1f593f00000018451830991506020850194506020840193506100e7565b6101547f30644e72e131a029b85045b68181585d2833e84879b9709143e1f593f000000183610071565b91506020850394506020840393508592505b828411156101d0577f30644e72e131a029b85045b68181585d2833e84879b9709143e1f593f00000018551830990507f30644e72e131a029b85045b68181585d2833e84879b9709143e1f593f0000001845183099150808452602085039450602084039350610166565b81845250505050505050565b7f30644e72e131a029b85045b68181585d2833e84879b9709143e1f593f0000001811061020d576000805260206000f35b50565b610320815114610224576000805260206000f35b6102326102608201516101dc565b6102406102808201516101dc565b61024e6102a08201516101dc565b61025c6102c08201516101dc565b61026a6102e08201516101dc565b6102786103008201516101dc565b6102866103208201516101dc565b50565b60008060208501516102c085015260208301516102e08501526020800183015161030085015260406020018301516103208501526060602001830151610340850152608060200183015161036085015260a06020018301516103808501527f30644e72e131a029b85045b68181585d2833e84879b9709143e1f593f000000160e06102c08601200690508060208501527f30644e72e131a029b85045b68181585d2833e84879b9709143e1f593f00000016020808601200660408501527f30644e72e131a029b85045b68181585d2833e84879b9709143e1f593f0000001604060e08501200660008501527f30644e72e131a029b85045b68181585d2833e84879b9709143e1f593f000000160c06101208501200691508160608501527f30644e72e131a029b85045b68181585d2833e84879b9709143e1f593f000000182820960a08501527f30644e72e131a029b85045b68181585d2833e84879b9709143e1f593f000000182830991507f30644e72e131a029b85045b68181585d2833e84879b9709143e1f593f000000182830991507f30644e72e131a029b85045b68181585d2833e84879b9709143e1f593f000000182830991507f30644e72e131a029b85045b68181585d2833e84879b9709143e1f593f000000182830991507f30644e72e131a029b85045b68181585d2833e84879b9709143e1f593f000000182830991507f30644e72e131a029b85045b68181585d2833e84879b9709143e1f593f000000182830991507f30644e72e131a029b85045b68181585d2833e84879b9709143e1f593f000000182830991507f30644e72e131a029b85045b68181585d2833e84879b9709143e1f593f000000182830991507f30644e72e131a029b85045b68181585d2833e84879b9709143e1f593f000000182830991507f30644e72e131a029b85045b68181585d2833e84879b9709143e1f593f000000182830991507f30644e72e131a029b85045b68181585d2833e84879b9709143e1f593f000000182830991507f30644e72e131a029b85045b68181585d2833e84879b9709143e1f593f000000182830991507f30644e72e131a029b85045b68181585d2833e84879b9709143e1f593f000000182830991507f30644e72e131a029b85045b68181585d2833e84879b9709143e1f593f000000182830991507f30644e72e131a029b85045b68181585d2833e84879b9709143e1f593f000000182830991507f30644e72e131a029b85045b68181585d2833e84879b9709143e1f593f000000182830991507f30644e72e131a029b85045b68181585d2833e84879b9709143e1f593f000000182830991507f30644e72e131a029b85045b68181585d2833e84879b9709143e1f593f000000182830991508160808501527f30644e72e131a029b85045b68181585d2833e84879b9709143e1f593f000000180600184030106915081610260850152816102808501527f30644e72e131a029b85045b68181585d2833e84879b9709143e1f593f000000160e0610260850120068060c08601527f30644e72e131a029b85045b68181585d2833e84879b9709143e1f593f000000181820992508260e08601527f30644e72e131a029b85045b68181585d2833e84879b9709143e1f593f00000018184099250826101008601527f30644e72e131a029b85045b68181585d2833e84879b9709143e1f593f00000018184099250826101208601527f30644e72e131a029b85045b68181585d2833e84879b9709143e1f593f00000018184099250826101408601527f30644e72e131a029b85045b68181585d2833e84879b9709143e1f593f00000018184099250826101608601527f30644e72e131a029b85045b68181585d2833e84879b9709143e1f593f000000160806101e086012006610180860152505050505050565b60017f30644e72e131a029b85045b68181585d2833e84879b9709143e1f593f0000001807f30644e72e131a029b85045b68181585d2833e84879b9709143e1f593f000000183606086015103010662040000096102a0830152610869600261028084016100d2565b610260820151600191507f30644e72e131a029b85045b68181585d2833e84879b9709143e1f593f0000001816102a0850151096102a0840152505050565b60007f30644e72e131a029b85045b68181585d2833e84879b9709143e1f593f0000001807f30644e72e131a029b85045b68181585d2833e84879b9709143e1f593f000000160208601516102a086015109830301069050806101a0830152505050565b60008060007f30644e72e131a029b85045b68181585d2833e84879b9709143e1f593f00000016101a08601516103208601510892507f30644e72e131a029b85045b68181585d2833e84879b9709143e1f593f000000160208601516102c08601510991507f30644e72e131a029b85045b68181585d2833e84879b9709143e1f593f0000001610260850151830891507f30644e72e131a029b85045b68181585d2833e84879b9709143e1f593f00000016040860151830891507f30644e72e131a029b85045b68181585d2833e84879b9709143e1f593f000000160208601516102e08601510990507f30644e72e131a029b85045b68181585d2833e84879b9709143e1f593f0000001610280850151820890507f30644e72e131a029b85045b68181585d2833e84879b9709143e1f593f00000016040860151820890507f30644e72e131a029b85045b68181585d2833e84879b9709143e1f593f000000181830991507f30644e72e131a029b85045b68181585d2833e84879b9709143e1f593f000000160408601516102a08601510890507f30644e72e131a029b85045b68181585d2833e84879b9709143e1f593f000000181830991507f30644e72e131a029b85045b68181585d2833e84879b9709143e1f593f0000001610300850151830991507f30644e72e131a029b85045b68181585d2833e84879b9709143e1f593f00000016000860151830991507f30644e72e131a029b85045b68181585d2833e84879b9709143e1f593f000000160008601516102a08701510990507f30644e72e131a029b85045b68181585d2833e84879b9709143e1f593f00000016000860151820990507f30644e72e131a029b85045b68181585d2833e84879b9709143e1f593f000000181830891507f30644e72e131a029b85045b68181585d2833e84879b9709143e1f593f0000001827f30644e72e131a029b85045b68181585d2833e84879b9709143e1f593f00000018501030692507f30644e72e131a029b85045b68181585d2833e84879b9709143e1f593f000000161028086015184099250826101c08601525050505050565b81518152602082015160208201525050565b6040518151815260208201516020820152825160408201526020830151606082015260408260808360066107d05a03fa80610c69576000805260206000f35b50505050565b6000604051835181526020840151602082015284604082015260408160608360076107d05a03fa915081610ca7576000805260206000f35b825160408201526020830151606082015260408360808360066107d05a03fa915081610cd7576000805260206000f35b5050505050565b600060405183815284602082015285604082015260408160608360076107d05a03fa915081610d11576000805260206000f35b825160408201526020830151606082015260408360808360066107d05a03fa915081610d41576000805260206000f35b505050505050565b600060405183815284602082015285604082015260408360608360076107d05a03fa915081610d7c576000805260206000f35b505050505050565b6101e08201610d976101e0830182610c18565b610dab610180840151610220840183610c6f565b505050565b60008061022084017f30644e72e131a029b85045b68181585d2833e84879b9709143e1f593f000000160c0860151610260860151099250610e33837f1f8ff3206e45a483df6f5193e220358e46d83e82597a098e521c1f229bf61f667f2c3eaaa7c54ee4503ee15ba763b300b4c84b9521a1d4815b778666e02c5849f384610d49565b7f30644e72e131a029b85045b68181585d2833e84879b9709143e1f593f000000161028085015184099250610eaa837f153a3638c5bcc9387c99a1f08ff7f05016784a778a80360ca700a5d0aca35d4c7f0fbde2f8dff2dd5b766e791f9a0d88026c90445d19138d6d217decef349701cf84610cde565b7f30644e72e131a029b85045b68181585d2833e84879b9709143e1f593f000000160c0860151610280860151099250610f25837f13bf71673aeb29c62b3c599f845a7e4b672f9cf9a3f388b438f4e21c1c4d0bcd7f1f7323565b551956cfd2b0aa996e0159e1db2264dec91f55db5e996d5d0546c684610cde565b7f30644e72e131a029b85045b68181585d2833e84879b9709143e1f593f000000160c08601516102a0860151099250610fa0837f2d09c43948d7f685c2d0d8094aeb2c22012b0004a55bf49d4c03bf6aaca367bf7f19dee57ae1bdc48449e26ca335501a783678b27cc8cbbe4af91ec7904a34cf9a84610cde565b60c08501519250610ff3837f10cc3bb738e7961b83746e8d6a8786421cb32a6651c3b3d6f8b59a8a7e1de2657f2a066f594ba4b64761acd3c51b8218b502f0db51298bed8c4903bacea06810b384610cde565b7f30644e72e131a029b85045b68181585d2833e84879b9709143e1f593f000000160a08601516102608601510892507f30644e72e131a029b85045b68181585d2833e84879b9709143e1f593f00000016040860151840892507f30644e72e131a029b85045b68181585d2833e84879b9709143e1f593f000000160a086015160020991507f30644e72e131a029b85045b68181585d2833e84879b9709143e1f593f0000001610280850151830891507f30644e72e131a029b85045b68181585d2833e84879b9709143e1f593f00000016040860151830891507f30644e72e131a029b85045b68181585d2833e84879b9709143e1f593f000000182840992507f30644e72e131a029b85045b68181585d2833e84879b9709143e1f593f000000160a086015160030991507f30644e72e131a029b85045b68181585d2833e84879b9709143e1f593f00000016102a0850151830891507f30644e72e131a029b85045b68181585d2833e84879b9709143e1f593f00000016040860151830891507f30644e72e131a029b85045b68181585d2833e84879b9709143e1f593f000000182840992507f30644e72e131a029b85045b68181585d2833e84879b9709143e1f593f00000016000860151840992507f30644e72e131a029b85045b68181585d2833e84879b9709143e1f593f000000160c0860151840992507f30644e72e131a029b85045b68181585d2833e84879b9709143e1f593f000000160008601516102a08701510991507f30644e72e131a029b85045b68181585d2833e84879b9709143e1f593f00000016000860151830991507f30644e72e131a029b85045b68181585d2833e84879b9709143e1f593f000000160c0860151830991507f30644e72e131a029b85045b68181585d2833e84879b9709143e1f593f000000182840892507f30644e72e131a029b85045b68181585d2833e84879b9709143e1f593f0000001610180860151840892506112ce8360e0860183610c6f565b7f30644e72e131a029b85045b68181585d2833e84879b9709143e1f593f00000016102c085015160208701510992507f30644e72e131a029b85045b68181585d2833e84879b9709143e1f593f0000001610260850151840892507f30644e72e131a029b85045b68181585d2833e84879b9709143e1f593f00000016040860151840892507f30644e72e131a029b85045b68181585d2833e84879b9709143e1f593f00000016102e085015160208701510991507f30644e72e131a029b85045b68181585d2833e84879b9709143e1f593f0000001610280850151830891507f30644e72e131a029b85045b68181585d2833e84879b9709143e1f593f00000016040860151830891507f30644e72e131a029b85045b68181585d2833e84879b9709143e1f593f000000182840992507f30644e72e131a029b85045b68181585d2833e84879b9709143e1f593f00000016000860151840992507f30644e72e131a029b85045b68181585d2833e84879b9709143e1f593f000000160c0860151840992507f30644e72e131a029b85045b68181585d2833e84879b9709143e1f593f00000016020860151840992507f30644e72e131a029b85045b68181585d2833e84879b9709143e1f593f0000001610300850151840992507f30644e72e131a029b85045b68181585d2833e84879b9709143e1f593f0000001837f30644e72e131a029b85045b68181585d2833e84879b9709143e1f593f000000103069250611538837f2fa2bafcb1ca077fc4c42975e9dad71794dd3971812e9700c2bde6abfd08622e7f27809c3662e8ad43b6fa119055be9580f2ec5f08d6db51ea1be6b00416bbe6b484610cde565b611546610120850182610c2a565b6080850151925061155c83610160860183610c6f565b7f30644e72e131a029b85045b68181585d2833e84879b9709143e1f593f00000018384099250611591836101a0860183610c6f565b6115a360e08601516020860183610c6f565b6115b66101008601516060860183610c6f565b6115c961012086015160a0860183610c6f565b61161a6101408601517f2df396244a994b664c1f784b4109f8f92f0a4be3a6d41fe799c1e959805fa3a67f0110ed133cd558329c1214df6bdc4e7c126be34030f220a2ca1c4197ae9295df84610cde565b61166b6101608601517f041056284b7c0598f146f2bfe30967b72f8e95bcb55c78ef62cd1acb053213937f281df5de321c6c072c0248dbf0c86e813f9d169a783fc5980755211f0721e5e484610cde565b6101c085015192507f30644e72e131a029b85045b68181585d2833e84879b9709143e1f593f00000018060c087015161032087015109840892507f30644e72e131a029b85045b68181585d2833e84879b9709143e1f593f00000018060e087015161026087015109840892507f30644e72e131a029b85045b68181585d2833e84879b9709143e1f593f00000018061010087015161028087015109840892507f30644e72e131a029b85045b68181585d2833e84879b9709143e1f593f0000001806101208701516102a087015109840892507f30644e72e131a029b85045b68181585d2833e84879b9709143e1f593f0000001806101408701516102c087015109840892507f30644e72e131a029b85045b68181585d2833e84879b9709143e1f593f0000001806101608701516102e087015109840892507f30644e72e131a029b85045b68181585d2833e84879b9709143e1f593f00000018061018087015161030087015109840892507f30644e72e131a029b85045b68181585d2833e84879b9709143e1f593f0000001837f30644e72e131a029b85045b68181585d2833e84879b9709143e1f593f00000010306925061182b836002600184610cde565b60608501519250611841836101e0860183610c6f565b7f30644e72e131a029b85045b68181585d2833e84879b9709143e1f593f000000160608601516101808701510992507f30644e72e131a029b85045b68181585d2833e84879b9709143e1f593f00000017f19ddbcaf3a8d46c15c0176fbb5b95e4dc57088ff13f4d1bd84c6bfa57dcdc0e0840992506118c583610220860183610c6f565b5050505050565b60006040516101e0830151815260206101e08401015160208201527f02358e7a736bdfc5fcb05be367bd35a72d8594430e3972dcf0d98a608f22adf860408201527f1f5febd2360694235b74a19fb13a3c7414e0f05ef1094e82b4eec3920c70693660608201527f2436bd023a5f857294bc8f2455022392c479faf029e4d3f1ae5e89975070406f60808201527f18f323d975e78837af43456bcdb56c713ac8bf18a74001372059d3215e65297e60a082015261022083015160c08201526020610220840101517f30644e72e131a029b85045b68181585d97816a916871ca8d3c208c16d87cfd47817f30644e72e131a029b85045b68181585d97816a916871ca8d3c208c16d87cfd47030690508060e08301527f198e9393920d483a7260bfb731fb5d25f1aa493335a9e71297e485b7aef312c26101008301527f1800deef121f1e76426a00665e5c4479674322d4f75edadd46debd5cd992f6ed6101208301527f090689d0585ff075ec9e99ad690c3395bc4b313370b38ef355acdadcd122975b6101408301527f12c85ea5db8c6deb4aab71808dcb408fe3d1e7690c43d37b4ce6cc0166fa7daa6101608301526020826101808460086107d05a03fa825181169350505050919050565b6040516102c08101604052611aad84610210565b611ab8838286610289565b611ac181610801565b611acb83826108a7565b611ad5818561090a565b611adf8185610d84565b611ae98185610db0565b611af2816118cc565b6102c082036040528060005260206000f35b6000604051905090565b600080fd5b600080fd5b600080fd5b600080fd5b6000601f19601f8301169050919050565b7f4e487b7100000000000000000000000000000000000000000000000000000000600052604160045260246000fd5b611b6b82611b22565b810181811067ffffffffffffffff82111715611b8a57611b89611b33565b5b80604052505050565b6000611b9d611b04565b9050611ba98282611b62565b919050565b600067ffffffffffffffff821115611bc957611bc8611b33565b5b611bd282611b22565b9050602081019050919050565b82818337600083830152505050565b6000611c01611bfc84611bae565b611b93565b905082815260208101848484011115611c1d57611c1c611b1d565b5b611c28848285611bdf565b509392505050565b600082601f830112611c4557611c44611b18565b5b8135611c55848260208601611bee565b91505092915050565b600067ffffffffffffffff821115611c7957611c78611b33565b5b602082029050602081019050919050565b600080fd5b6000819050919050565b611ca281611c8f565b8114611cad57600080fd5b50565b600081359050611cbf81611c99565b92915050565b6000611cd8611cd384611c5e565b611b93565b90508083825260208201905060208402830185811115611cfb57611cfa611c8a565b5b835b81811015611d245780611d108882611cb0565b845260208401935050602081019050611cfd565b5050509392505050565b600082601f830112611d4357611d42611b18565b5b8135611d53848260208601611cc5565b91505092915050565b60008060408385031215611d7357611d72611b0e565b5b600083013567ffffffffffffffff811115611d9157611d90611b13565b5b611d9d85828601611c30565b925050602083013567ffffffffffffffff811115611dbe57611dbd611b13565b5b611dca85828601611d2e565b9150509250929050565b60008115159050919050565b611de981611dd4565b82525050565b6000602082019050611e046000830184611de0565b9291505056fea26469706673582212204e19bb699c7c1e745258aeb7ee7890fcb61d16c60d59384e52bd085fc3da37a364736f6c63430008110033",
  "devdoc": {
    "kind": "dev",
    "methods": {},
    "version": 1
  },
  "userdoc": {
    "kind": "user",
    "methods": {},
    "version": 1
  },
  "storageLayout": {
    "storage": [],
    "types": null
  }
}