{
  "address": "0x339fc8c2470C537458db0bADfE4045D22Ff272E3",
  "abi": [
    {
      "inputs": [
        {
          "internalType": "contract MinimalForwarder",
          "name": "forwarder",
          "type": "address"
        }
      ],
      "stateMutability": "nonpayable",
      "type": "constructor"
    },
    {
      "anonymous": false,
      "inputs": [
        {
          "indexed": true,
          "internalType": "address",
          "name": "from",
          "type": "address"
        },
        {
          "indexed": false,
          "internalType": "uint256",
          "name": "agreementId",
          "type": "uint256"
        },
        {
          "components": [
            {
              "internalType": "uint256[2]",
              "name": "a",
              "type": "uint256[2]"
            },
            {
              "internalType": "uint256[2][2]",
              "name": "b",
              "type": "uint256[2][2]"
            },
            {
              "internalType": "uint256[2]",
              "name": "c",
              "type": "uint256[2]"
            }
          ],
          "indexed": false,
          "internalType": "struct ZKAgreementTypes.ZKProof",
          "name": "proof",
          "type": "tuple"
        }
      ],
      "name": "CreateAgreement",
      "type": "event"
    },
    {
      "anonymous": false,
      "inputs": [
        {
          "indexed": true,
          "internalType": "uint256",
          "name": "agreementId",
          "type": "uint256"
        },
        {
          "indexed": false,
          "internalType": "uint256",
          "name": "oldRoot",
          "type": "uint256"
        },
        {
          "indexed": false,
          "internalType": "uint256",
          "name": "newRoot",
          "type": "uint256"
        },
        {
          "components": [
            {
              "internalType": "uint256[2]",
              "name": "a",
              "type": "uint256[2]"
            },
            {
              "internalType": "uint256[2][2]",
              "name": "b",
              "type": "uint256[2][2]"
            },
            {
              "internalType": "uint256[2]",
              "name": "c",
              "type": "uint256[2]"
            }
          ],
          "indexed": false,
          "internalType": "struct ZKAgreementTypes.ZKProof",
          "name": "proof",
          "type": "tuple"
        }
      ],
      "name": "SignAgreement",
      "type": "event"
    },
    {
      "inputs": [
        {
          "components": [
            {
              "internalType": "uint256",
              "name": "agreementId",
              "type": "uint256"
            },
            {
              "components": [
                {
                  "internalType": "uint256[2]",
                  "name": "a",
                  "type": "uint256[2]"
                },
                {
                  "internalType": "uint256[2][2]",
                  "name": "b",
                  "type": "uint256[2][2]"
                },
                {
                  "internalType": "uint256[2]",
                  "name": "c",
                  "type": "uint256[2]"
                }
              ],
              "internalType": "struct ZKAgreementTypes.ZKProof",
              "name": "proof",
              "type": "tuple"
            }
          ],
          "internalType": "struct ZKAgreementTypes.CreateAgreementParams",
          "name": "params",
          "type": "tuple"
        }
      ],
      "name": "createAgreement",
      "outputs": [],
      "stateMutability": "nonpayable",
      "type": "function"
    },
    {
      "inputs": [
        {
          "internalType": "address",
          "name": "forwarder",
          "type": "address"
        }
      ],
      "name": "isTrustedForwarder",
      "outputs": [
        {
          "internalType": "bool",
          "name": "",
          "type": "bool"
        }
      ],
      "stateMutability": "view",
      "type": "function"
    },
    {
      "inputs": [
        {
          "components": [
            {
              "internalType": "uint256",
              "name": "agreementId",
              "type": "uint256"
            },
            {
              "internalType": "uint256",
              "name": "root",
              "type": "uint256"
            },
            {
              "components": [
                {
                  "internalType": "uint256[2]",
                  "name": "a",
                  "type": "uint256[2]"
                },
                {
                  "internalType": "uint256[2][2]",
                  "name": "b",
                  "type": "uint256[2][2]"
                },
                {
                  "internalType": "uint256[2]",
                  "name": "c",
                  "type": "uint256[2]"
                }
              ],
              "internalType": "struct ZKAgreementTypes.ZKProof",
              "name": "proof",
              "type": "tuple"
            }
          ],
          "internalType": "struct ZKAgreementTypes.SignParams",
          "name": "params",
          "type": "tuple"
        }
      ],
      "name": "signAgreement",
      "outputs": [],
      "stateMutability": "nonpayable",
      "type": "function"
    }
  ],
  "transactionHash": "0x3780f6498d475256780d6154c1622ac3f850ec7552e431354dfc60af44d38ec8",
  "args": [
    "0x9c66b91cFF4855dDf693889335ACBB0564ea19B8"
  ],
  "numDeployments": 2,
  "solcInputHash": "ac565888b9de5b525d3c6843ab61d123",
  "bytecode": "0x60a06040523480156200001157600080fd5b50604051620012ca380380620012ca8339818101604052810190620000379190620000f2565b808073ffffffffffffffffffffffffffffffffffffffff1660808173ffffffffffffffffffffffffffffffffffffffff1681525050505062000124565b600080fd5b600073ffffffffffffffffffffffffffffffffffffffff82169050919050565b6000620000a68262000079565b9050919050565b6000620000ba8262000099565b9050919050565b620000cc81620000ad565b8114620000d857600080fd5b50565b600081519050620000ec81620000c1565b92915050565b6000602082840312156200010b576200010a62000074565b5b60006200011b84828501620000db565b91505092915050565b60805161118a62000140600039600061049a015261118a6000f3fe608060405234801561001057600080fd5b50600436106100415760003560e01c806305474cc9146100465780630f6ba32314610062578063572b6c051461007e575b600080fd5b610060600480360381019061005b9190610913565b6100ae565b005b61007c60048036038101906100779190610992565b61027a565b005b61009860048036038101906100939190610a1e565b610496565b6040516100a59190610a66565b60405180910390f35b60008060008360000151815260200190815260200160002090506000731732cf384eF96bEc9a61bd6B854F84e5eF9351cf6311479fea8460400151600001518560400151602001518660400151604001516040518060600160405280896000015181526020018860000154815260200189602001518152506040518563ffffffff1660e01b81526004016101459493929190610cae565b602060405180830381865af4158015610162573d6000803e3d6000fd5b505050506040513d601f19601f820116820180604052508101906101869190610d21565b9050806101c8576040517f08c379a00000000000000000000000000000000000000000000000000000000081526004016101bf90610dab565b60405180910390fd5b82600001517f4605ebbd2fbc6e0b7f06c40789e80bb6dbc05831ec010bb92031bdba629d770783600001548560200151866040015160405161020c93929190610f20565b60405180910390a282602001518260000181905550826040015182600901600082015181600001906002610241929190610528565b50602082015181600201906002610259929190610568565b50604082015181600601906002610271929190610528565b50905050505050565b60008060008360000151815260200190815260200160002090506000816001016000016000600281106102b0576102af610f58565b5b0154146102f2576040517f08c379a00000000000000000000000000000000000000000000000000000000081526004016102e990610fd3565b60405180910390fd5b600073809AC0b9E5A424f80F7224348beAc3719320679D6343753b4d846020015160000151856020015160200151866020015160400151604051806020016040528089600001518152506040518563ffffffff1660e01b815260040161035b9493929190611077565b602060405180830381865af4158015610378573d6000803e3d6000fd5b505050506040513d601f19601f8201168201806040525081019061039c9190610d21565b9050806103de576040517f08c379a00000000000000000000000000000000000000000000000000000000081526004016103d59061110a565b60405180910390fd5b8260200151826001016000820151816000019060026103fe929190610528565b50602082015181600201906002610416929190610568565b5060408201518160060190600261042e929190610528565b5090505061043a6104ee565b73ffffffffffffffffffffffffffffffffffffffff167f01e2eb150cd89b8467be760ed5f6b5508201bff14e4a6bdd92251016263f6cdc8460000151856020015160405161048992919061112a565b60405180910390a2505050565b60007f000000000000000000000000000000000000000000000000000000000000000073ffffffffffffffffffffffffffffffffffffffff168273ffffffffffffffffffffffffffffffffffffffff16149050919050565b60006104f933610496565b1561050d57601436033560601c905061051c565b610515610520565b905061051d565b5b90565b600033905090565b8260028101928215610557579160200282015b8281111561055657825182559160200191906001019061053b565b5b50905061056491906105b8565b5090565b826002800281019282156105a7579160200282015b828111156105a657825182906002610596929190610528565b509160200191906002019061057d565b5b5090506105b491906105d5565b5090565b5b808211156105d15760008160009055506001016105b9565b5090565b5b808211156105f557600081816105ec91906105f9565b506002016105d6565b5090565b506000815560010160009055565b6000604051905090565b600080fd5b600080fd5b6000601f19601f8301169050919050565b7f4e487b7100000000000000000000000000000000000000000000000000000000600052604160045260246000fd5b6106648261061b565b810181811067ffffffffffffffff821117156106835761068261062c565b5b80604052505050565b6000610696610607565b90506106a2828261065b565b919050565b6000819050919050565b6106ba816106a7565b81146106c557600080fd5b50565b6000813590506106d7816106b1565b92915050565b600080fd5b600067ffffffffffffffff8211156106fd576106fc61062c565b5b602082029050919050565b600080fd5b600061072061071b846106e2565b61068c565b9050806020840283018581111561073a57610739610708565b5b835b81811015610763578061074f88826106c8565b84526020840193505060208101905061073c565b5050509392505050565b600082601f830112610782576107816106dd565b5b600261078f84828561070d565b91505092915050565b600067ffffffffffffffff8211156107b3576107b261062c565b5b602082029050919050565b60006107d16107cc84610798565b61068c565b905080604084028301858111156107eb576107ea610708565b5b835b818110156108145780610800888261076d565b8452602084019350506040810190506107ed565b5050509392505050565b600082601f830112610833576108326106dd565b5b60026108408482856107be565b91505092915050565b600061010082840312156108605761085f610616565b5b61086a606061068c565b9050600061087a8482850161076d565b600083015250604061088e8482850161081e565b60208301525060c06108a28482850161076d565b60408301525092915050565b600061014082840312156108c5576108c4610616565b5b6108cf606061068c565b905060006108df848285016106c8565b60008301525060206108f3848285016106c8565b602083015250604061090784828501610849565b60408301525092915050565b6000610140828403121561092a57610929610611565b5b6000610938848285016108ae565b91505092915050565b6000610120828403121561095857610957610616565b5b610962604061068c565b90506000610972848285016106c8565b600083015250602061098684828501610849565b60208301525092915050565b600061012082840312156109a9576109a8610611565b5b60006109b784828501610941565b91505092915050565b600073ffffffffffffffffffffffffffffffffffffffff82169050919050565b60006109eb826109c0565b9050919050565b6109fb816109e0565b8114610a0657600080fd5b50565b600081359050610a18816109f2565b92915050565b600060208284031215610a3457610a33610611565b5b6000610a4284828501610a09565b91505092915050565b60008115159050919050565b610a6081610a4b565b82525050565b6000602082019050610a7b6000830184610a57565b92915050565b600060029050919050565b600081905092915050565b6000819050919050565b610aaa816106a7565b82525050565b6000610abc8383610aa1565b60208301905092915050565b6000602082019050919050565b610ade81610a81565b610ae88184610a8c565b9250610af382610a97565b8060005b83811015610b24578151610b0b8782610ab0565b9650610b1683610ac8565b925050600181019050610af7565b505050505050565b600060029050919050565b600081905092915050565b6000819050919050565b600081905092915050565b610b6081610a81565b610b6a8184610b4c565b9250610b7582610a97565b8060005b83811015610ba6578151610b8d8782610ab0565b9650610b9883610ac8565b925050600181019050610b79565b505050505050565b6000610bba8383610b57565b60408301905092915050565b6000602082019050919050565b610bdc81610b2c565b610be68184610b37565b9250610bf182610b42565b8060005b83811015610c22578151610c098782610bae565b9650610c1483610bc6565b925050600181019050610bf5565b505050505050565b600060039050919050565b600081905092915050565b6000819050919050565b6000602082019050919050565b610c6081610c2a565b610c6a8184610c35565b9250610c7582610c40565b8060005b83811015610ca6578151610c8d8782610ab0565b9650610c9883610c4a565b925050600181019050610c79565b505050505050565b600061016082019050610cc46000830187610ad5565b610cd16040830186610bd3565b610cde60c0830185610ad5565b610cec610100830184610c57565b95945050505050565b610cfe81610a4b565b8114610d0957600080fd5b50565b600081519050610d1b81610cf5565b92915050565b600060208284031215610d3757610d36610611565b5b6000610d4584828501610d0c565b91505092915050565b600082825260208201905092915050565b7f496e76616c6964207369676e617475726520696e736572740000000000000000600082015250565b6000610d95601883610d4e565b9150610da082610d5f565b602082019050919050565b60006020820190508181036000830152610dc481610d88565b9050919050565b610dd4816106a7565b82525050565b600081905092915050565b610dee816106a7565b82525050565b6000610e008383610de5565b60208301905092915050565b610e1581610a81565b610e1f8184610dda565b9250610e2a82610a97565b8060005b83811015610e5b578151610e428782610df4565b9650610e4d83610ac8565b925050600181019050610e2e565b505050505050565b600081905092915050565b6000610e7a8383610e0c565b60408301905092915050565b610e8f81610b2c565b610e998184610e63565b9250610ea482610b42565b8060005b83811015610ed5578151610ebc8782610e6e565b9650610ec783610bc6565b925050600181019050610ea8565b505050505050565b61010082016000820151610ef46000850182610e0c565b506020820151610f076040850182610e86565b506040820151610f1a60c0850182610e0c565b50505050565b600061014082019050610f366000830186610dcb565b610f436020830185610dcb565b610f506040830184610edd565b949350505050565b7f4e487b7100000000000000000000000000000000000000000000000000000000600052603260045260246000fd5b7f41677265656d656e742065786973747300000000000000000000000000000000600082015250565b6000610fbd601083610d4e565b9150610fc882610f87565b602082019050919050565b60006020820190508181036000830152610fec81610fb0565b9050919050565b600060019050919050565b600081905092915050565b6000819050919050565b6000602082019050919050565b61102981610ff3565b6110338184610ffe565b925061103e82611009565b8060005b8381101561106f5781516110568782610ab0565b965061106183611013565b925050600181019050611042565b505050505050565b60006101208201905061108d6000830187610ad5565b61109a6040830186610bd3565b6110a760c0830185610ad5565b6110b5610100830184611020565b95945050505050565b7f496e76616c69642061677265656d656e74206964000000000000000000000000600082015250565b60006110f4601483610d4e565b91506110ff826110be565b602082019050919050565b60006020820190508181036000830152611123816110e7565b9050919050565b6000610120820190506111406000830185610dcb565b61114d6020830184610edd565b939250505056fea2646970667358221220efee74d7baa8fc7b401acf37caa99febf9c216e87928b21ea7bccbcecf48b64264736f6c63430008110033",
  "deployedBytecode": "0x608060405234801561001057600080fd5b50600436106100415760003560e01c806305474cc9146100465780630f6ba32314610062578063572b6c051461007e575b600080fd5b610060600480360381019061005b9190610913565b6100ae565b005b61007c60048036038101906100779190610992565b61027a565b005b61009860048036038101906100939190610a1e565b610496565b6040516100a59190610a66565b60405180910390f35b6000806000836000015181526020019081526020016000209050600073__$5191e9f905ff704c0a91dadc28eb6d4619$__6311479fea8460400151600001518560400151602001518660400151604001516040518060600160405280896000015181526020018860000154815260200189602001518152506040518563ffffffff1660e01b81526004016101459493929190610cae565b602060405180830381865af4158015610162573d6000803e3d6000fd5b505050506040513d601f19601f820116820180604052508101906101869190610d21565b9050806101c8576040517f08c379a00000000000000000000000000000000000000000000000000000000081526004016101bf90610dab565b60405180910390fd5b82600001517f4605ebbd2fbc6e0b7f06c40789e80bb6dbc05831ec010bb92031bdba629d770783600001548560200151866040015160405161020c93929190610f20565b60405180910390a282602001518260000181905550826040015182600901600082015181600001906002610241929190610528565b50602082015181600201906002610259929190610568565b50604082015181600601906002610271929190610528565b50905050505050565b60008060008360000151815260200190815260200160002090506000816001016000016000600281106102b0576102af610f58565b5b0154146102f2576040517f08c379a00000000000000000000000000000000000000000000000000000000081526004016102e990610fd3565b60405180910390fd5b600073__$4812ffcf43414927648099a956e5de6019$__6343753b4d846020015160000151856020015160200151866020015160400151604051806020016040528089600001518152506040518563ffffffff1660e01b815260040161035b9493929190611077565b602060405180830381865af4158015610378573d6000803e3d6000fd5b505050506040513d601f19601f8201168201806040525081019061039c9190610d21565b9050806103de576040517f08c379a00000000000000000000000000000000000000000000000000000000081526004016103d59061110a565b60405180910390fd5b8260200151826001016000820151816000019060026103fe929190610528565b50602082015181600201906002610416929190610568565b5060408201518160060190600261042e929190610528565b5090505061043a6104ee565b73ffffffffffffffffffffffffffffffffffffffff167f01e2eb150cd89b8467be760ed5f6b5508201bff14e4a6bdd92251016263f6cdc8460000151856020015160405161048992919061112a565b60405180910390a2505050565b60007f000000000000000000000000000000000000000000000000000000000000000073ffffffffffffffffffffffffffffffffffffffff168273ffffffffffffffffffffffffffffffffffffffff16149050919050565b60006104f933610496565b1561050d57601436033560601c905061051c565b610515610520565b905061051d565b5b90565b600033905090565b8260028101928215610557579160200282015b8281111561055657825182559160200191906001019061053b565b5b50905061056491906105b8565b5090565b826002800281019282156105a7579160200282015b828111156105a657825182906002610596929190610528565b509160200191906002019061057d565b5b5090506105b491906105d5565b5090565b5b808211156105d15760008160009055506001016105b9565b5090565b5b808211156105f557600081816105ec91906105f9565b506002016105d6565b5090565b506000815560010160009055565b6000604051905090565b600080fd5b600080fd5b6000601f19601f8301169050919050565b7f4e487b7100000000000000000000000000000000000000000000000000000000600052604160045260246000fd5b6106648261061b565b810181811067ffffffffffffffff821117156106835761068261062c565b5b80604052505050565b6000610696610607565b90506106a2828261065b565b919050565b6000819050919050565b6106ba816106a7565b81146106c557600080fd5b50565b6000813590506106d7816106b1565b92915050565b600080fd5b600067ffffffffffffffff8211156106fd576106fc61062c565b5b602082029050919050565b600080fd5b600061072061071b846106e2565b61068c565b9050806020840283018581111561073a57610739610708565b5b835b81811015610763578061074f88826106c8565b84526020840193505060208101905061073c565b5050509392505050565b600082601f830112610782576107816106dd565b5b600261078f84828561070d565b91505092915050565b600067ffffffffffffffff8211156107b3576107b261062c565b5b602082029050919050565b60006107d16107cc84610798565b61068c565b905080604084028301858111156107eb576107ea610708565b5b835b818110156108145780610800888261076d565b8452602084019350506040810190506107ed565b5050509392505050565b600082601f830112610833576108326106dd565b5b60026108408482856107be565b91505092915050565b600061010082840312156108605761085f610616565b5b61086a606061068c565b9050600061087a8482850161076d565b600083015250604061088e8482850161081e565b60208301525060c06108a28482850161076d565b60408301525092915050565b600061014082840312156108c5576108c4610616565b5b6108cf606061068c565b905060006108df848285016106c8565b60008301525060206108f3848285016106c8565b602083015250604061090784828501610849565b60408301525092915050565b6000610140828403121561092a57610929610611565b5b6000610938848285016108ae565b91505092915050565b6000610120828403121561095857610957610616565b5b610962604061068c565b90506000610972848285016106c8565b600083015250602061098684828501610849565b60208301525092915050565b600061012082840312156109a9576109a8610611565b5b60006109b784828501610941565b91505092915050565b600073ffffffffffffffffffffffffffffffffffffffff82169050919050565b60006109eb826109c0565b9050919050565b6109fb816109e0565b8114610a0657600080fd5b50565b600081359050610a18816109f2565b92915050565b600060208284031215610a3457610a33610611565b5b6000610a4284828501610a09565b91505092915050565b60008115159050919050565b610a6081610a4b565b82525050565b6000602082019050610a7b6000830184610a57565b92915050565b600060029050919050565b600081905092915050565b6000819050919050565b610aaa816106a7565b82525050565b6000610abc8383610aa1565b60208301905092915050565b6000602082019050919050565b610ade81610a81565b610ae88184610a8c565b9250610af382610a97565b8060005b83811015610b24578151610b0b8782610ab0565b9650610b1683610ac8565b925050600181019050610af7565b505050505050565b600060029050919050565b600081905092915050565b6000819050919050565b600081905092915050565b610b6081610a81565b610b6a8184610b4c565b9250610b7582610a97565b8060005b83811015610ba6578151610b8d8782610ab0565b9650610b9883610ac8565b925050600181019050610b79565b505050505050565b6000610bba8383610b57565b60408301905092915050565b6000602082019050919050565b610bdc81610b2c565b610be68184610b37565b9250610bf182610b42565b8060005b83811015610c22578151610c098782610bae565b9650610c1483610bc6565b925050600181019050610bf5565b505050505050565b600060039050919050565b600081905092915050565b6000819050919050565b6000602082019050919050565b610c6081610c2a565b610c6a8184610c35565b9250610c7582610c40565b8060005b83811015610ca6578151610c8d8782610ab0565b9650610c9883610c4a565b925050600181019050610c79565b505050505050565b600061016082019050610cc46000830187610ad5565b610cd16040830186610bd3565b610cde60c0830185610ad5565b610cec610100830184610c57565b95945050505050565b610cfe81610a4b565b8114610d0957600080fd5b50565b600081519050610d1b81610cf5565b92915050565b600060208284031215610d3757610d36610611565b5b6000610d4584828501610d0c565b91505092915050565b600082825260208201905092915050565b7f496e76616c6964207369676e617475726520696e736572740000000000000000600082015250565b6000610d95601883610d4e565b9150610da082610d5f565b602082019050919050565b60006020820190508181036000830152610dc481610d88565b9050919050565b610dd4816106a7565b82525050565b600081905092915050565b610dee816106a7565b82525050565b6000610e008383610de5565b60208301905092915050565b610e1581610a81565b610e1f8184610dda565b9250610e2a82610a97565b8060005b83811015610e5b578151610e428782610df4565b9650610e4d83610ac8565b925050600181019050610e2e565b505050505050565b600081905092915050565b6000610e7a8383610e0c565b60408301905092915050565b610e8f81610b2c565b610e998184610e63565b9250610ea482610b42565b8060005b83811015610ed5578151610ebc8782610e6e565b9650610ec783610bc6565b925050600181019050610ea8565b505050505050565b61010082016000820151610ef46000850182610e0c565b506020820151610f076040850182610e86565b506040820151610f1a60c0850182610e0c565b50505050565b600061014082019050610f366000830186610dcb565b610f436020830185610dcb565b610f506040830184610edd565b949350505050565b7f4e487b7100000000000000000000000000000000000000000000000000000000600052603260045260246000fd5b7f41677265656d656e742065786973747300000000000000000000000000000000600082015250565b6000610fbd601083610d4e565b9150610fc882610f87565b602082019050919050565b60006020820190508181036000830152610fec81610fb0565b9050919050565b600060019050919050565b600081905092915050565b6000819050919050565b6000602082019050919050565b61102981610ff3565b6110338184610ffe565b925061103e82611009565b8060005b8381101561106f5781516110568782610ab0565b965061106183611013565b925050600181019050611042565b505050505050565b60006101208201905061108d6000830187610ad5565b61109a6040830186610bd3565b6110a760c0830185610ad5565b6110b5610100830184611020565b95945050505050565b7f496e76616c69642061677265656d656e74206964000000000000000000000000600082015250565b60006110f4601483610d4e565b91506110ff826110be565b602082019050919050565b60006020820190508181036000830152611123816110e7565b9050919050565b6000610120820190506111406000830185610dcb565b61114d6020830184610edd565b939250505056fea2646970667358221220efee74d7baa8fc7b401acf37caa99febf9c216e87928b21ea7bccbcecf48b64264736f6c63430008110033",
  "libraries": {
    "ValidAgreementId": "0x809AC0b9E5A424f80F7224348beAc3719320679D",
    "ValidAgreementSignatureInsert": "0x1732cf384eF96bEc9a61bd6B854F84e5eF9351cf"
  },
  "devdoc": {
    "kind": "dev",
    "methods": {},
    "version": 1
  },
  "userdoc": {
    "kind": "user",
    "methods": {},
    "version": 1
  },
  "storageLayout": {
    "storage": [
      {
        "astId": 1860,
        "contract": "contracts/ZKAgreement.sol:ZKAgreement",
        "label": "agreements",
        "offset": 0,
        "slot": "0",
        "type": "t_mapping(t_uint256,t_struct(Agreement)2036_storage)"
      }
    ],
    "types": {
      "t_array(t_array(t_uint256)2_storage)2_storage": {
        "base": "t_array(t_uint256)2_storage",
        "encoding": "inplace",
        "label": "uint256[2][2]",
        "numberOfBytes": "128"
      },
      "t_array(t_uint256)2_storage": {
        "base": "t_uint256",
        "encoding": "inplace",
        "label": "uint256[2]",
        "numberOfBytes": "64"
      },
      "t_mapping(t_uint256,t_struct(Agreement)2036_storage)": {
        "encoding": "mapping",
        "key": "t_uint256",
        "label": "mapping(uint256 => struct ZKAgreementTypes.Agreement)",
        "numberOfBytes": "32",
        "value": "t_struct(Agreement)2036_storage"
      },
      "t_struct(Agreement)2036_storage": {
        "encoding": "inplace",
        "label": "struct ZKAgreementTypes.Agreement",
        "members": [
          {
            "astId": 2029,
            "contract": "contracts/ZKAgreement.sol:ZKAgreement",
            "label": "signaturesRoot",
            "offset": 0,
            "slot": "0",
            "type": "t_uint256"
          },
          {
            "astId": 2032,
            "contract": "contracts/ZKAgreement.sol:ZKAgreement",
            "label": "validAgreementIdProof",
            "offset": 0,
            "slot": "1",
            "type": "t_struct(ZKProof)2027_storage"
          },
          {
            "astId": 2035,
            "contract": "contracts/ZKAgreement.sol:ZKAgreement",
            "label": "validSignaturesProof",
            "offset": 0,
            "slot": "9",
            "type": "t_struct(ZKProof)2027_storage"
          }
        ],
        "numberOfBytes": "544"
      },
      "t_struct(ZKProof)2027_storage": {
        "encoding": "inplace",
        "label": "struct ZKAgreementTypes.ZKProof",
        "members": [
          {
            "astId": 2016,
            "contract": "contracts/ZKAgreement.sol:ZKAgreement",
            "label": "a",
            "offset": 0,
            "slot": "0",
            "type": "t_array(t_uint256)2_storage"
          },
          {
            "astId": 2022,
            "contract": "contracts/ZKAgreement.sol:ZKAgreement",
            "label": "b",
            "offset": 0,
            "slot": "2",
            "type": "t_array(t_array(t_uint256)2_storage)2_storage"
          },
          {
            "astId": 2026,
            "contract": "contracts/ZKAgreement.sol:ZKAgreement",
            "label": "c",
            "offset": 0,
            "slot": "6",
            "type": "t_array(t_uint256)2_storage"
          }
        ],
        "numberOfBytes": "256"
      },
      "t_uint256": {
        "encoding": "inplace",
        "label": "uint256",
        "numberOfBytes": "32"
      }
    }
  }
}