{
  "address": "0x44731878f716851AE902E4819CFA4971809ce008",
  "abi": [
    {
      "inputs": [
        {
          "internalType": "contract MinimalForwarder",
          "name": "forwarder",
          "type": "address"
        }
      ],
      "stateMutability": "nonpayable",
      "type": "constructor"
    },
    {
      "inputs": [
        {
          "internalType": "uint256",
          "name": "chainid",
          "type": "uint256"
        }
      ],
      "name": "ChainNotSupported",
      "type": "error"
    },
    {
      "anonymous": false,
      "inputs": [
        {
          "indexed": true,
          "internalType": "address",
          "name": "from",
          "type": "address"
        },
        {
          "indexed": false,
          "internalType": "uint256",
          "name": "documentId",
          "type": "uint256"
        },
        {
          "components": [
            {
              "internalType": "uint256[2]",
              "name": "a",
              "type": "uint256[2]"
            },
            {
              "internalType": "uint256[2][2]",
              "name": "b",
              "type": "uint256[2][2]"
            },
            {
              "internalType": "uint256[2]",
              "name": "c",
              "type": "uint256[2]"
            }
          ],
          "indexed": false,
          "internalType": "struct ZKDocumentTypes.ZKProof",
          "name": "proof",
          "type": "tuple"
        }
      ],
      "name": "CreateDocument",
      "type": "event"
    },
    {
      "anonymous": false,
      "inputs": [
        {
          "indexed": true,
          "internalType": "address",
          "name": "from",
          "type": "address"
        },
        {
          "indexed": true,
          "internalType": "uint256",
          "name": "documentId",
          "type": "uint256"
        },
        {
          "indexed": false,
          "internalType": "string",
          "name": "verifiedParticipant",
          "type": "string"
        },
        {
          "indexed": false,
          "internalType": "uint256",
          "name": "oldRoot",
          "type": "uint256"
        },
        {
          "indexed": false,
          "internalType": "uint256",
          "name": "newRoot",
          "type": "uint256"
        },
        {
          "components": [
            {
              "internalType": "uint256[2]",
              "name": "a",
              "type": "uint256[2]"
            },
            {
              "internalType": "uint256[2][2]",
              "name": "b",
              "type": "uint256[2][2]"
            },
            {
              "internalType": "uint256[2]",
              "name": "c",
              "type": "uint256[2]"
            }
          ],
          "indexed": false,
          "internalType": "struct ZKDocumentTypes.ZKProof",
          "name": "proof",
          "type": "tuple"
        }
      ],
      "name": "NewDocumentParticipant",
      "type": "event"
    },
    {
      "inputs": [
        {
          "components": [
            {
              "internalType": "uint256",
              "name": "documentId",
              "type": "uint256"
            },
            {
              "internalType": "string",
              "name": "verifiedParticipant",
              "type": "string"
            },
            {
              "internalType": "string",
              "name": "encryptedParticipantCID",
              "type": "string"
            },
            {
              "internalType": "uint256",
              "name": "root",
              "type": "uint256"
            },
            {
              "internalType": "uint256",
              "name": "nonce",
              "type": "uint256"
            },
            {
              "components": [
                {
                  "internalType": "uint256[2]",
                  "name": "a",
                  "type": "uint256[2]"
                },
                {
                  "internalType": "uint256[2][2]",
                  "name": "b",
                  "type": "uint256[2][2]"
                },
                {
                  "internalType": "uint256[2]",
                  "name": "c",
                  "type": "uint256[2]"
                }
              ],
              "internalType": "struct ZKDocumentTypes.ZKProof",
              "name": "proof",
              "type": "tuple"
            }
          ],
          "internalType": "struct ZKDocumentTypes.AddDocumentParticipantParams",
          "name": "params",
          "type": "tuple"
        }
      ],
      "name": "addDocumentParticipant",
      "outputs": [],
      "stateMutability": "nonpayable",
      "type": "function"
    },
    {
      "inputs": [
        {
          "components": [
            {
              "internalType": "uint256",
              "name": "documentId",
              "type": "uint256"
            },
            {
              "internalType": "uint32",
              "name": "expectedParticipantCount",
              "type": "uint32"
            },
            {
              "internalType": "string",
              "name": "encryptedDetailsCID",
              "type": "string"
            },
            {
              "components": [
                {
                  "internalType": "uint256[2]",
                  "name": "a",
                  "type": "uint256[2]"
                },
                {
                  "internalType": "uint256[2][2]",
                  "name": "b",
                  "type": "uint256[2][2]"
                },
                {
                  "internalType": "uint256[2]",
                  "name": "c",
                  "type": "uint256[2]"
                }
              ],
              "internalType": "struct ZKDocumentTypes.ZKProof",
              "name": "proof",
              "type": "tuple"
            }
          ],
          "internalType": "struct ZKDocumentTypes.CreateDocumentParams",
          "name": "params",
          "type": "tuple"
        }
      ],
      "name": "createDocument",
      "outputs": [],
      "stateMutability": "nonpayable",
      "type": "function"
    },
    {
      "inputs": [],
      "name": "getAdmin",
      "outputs": [
        {
          "internalType": "address",
          "name": "",
          "type": "address"
        }
      ],
      "stateMutability": "view",
      "type": "function"
    },
    {
      "inputs": [],
      "name": "getAuditLogTableId",
      "outputs": [
        {
          "internalType": "uint256",
          "name": "",
          "type": "uint256"
        }
      ],
      "stateMutability": "view",
      "type": "function"
    },
    {
      "inputs": [],
      "name": "getDocumentsTableId",
      "outputs": [
        {
          "internalType": "uint256",
          "name": "",
          "type": "uint256"
        }
      ],
      "stateMutability": "view",
      "type": "function"
    },
    {
      "inputs": [
        {
          "internalType": "contract MinimalForwarder",
          "name": "forwarder",
          "type": "address"
        },
        {
          "internalType": "address",
          "name": "admin",
          "type": "address"
        }
      ],
      "name": "initialize",
      "outputs": [],
      "stateMutability": "nonpayable",
      "type": "function"
    },
    {
      "inputs": [
        {
          "internalType": "address",
          "name": "forwarder",
          "type": "address"
        }
      ],
      "name": "isTrustedForwarder",
      "outputs": [
        {
          "internalType": "bool",
          "name": "",
          "type": "bool"
        }
      ],
      "stateMutability": "view",
      "type": "function"
    },
    {
      "inputs": [
        {
          "internalType": "address",
          "name": "",
          "type": "address"
        },
        {
          "internalType": "address",
          "name": "",
          "type": "address"
        },
        {
          "internalType": "uint256",
          "name": "",
          "type": "uint256"
        },
        {
          "internalType": "bytes",
          "name": "",
          "type": "bytes"
        }
      ],
      "name": "onERC721Received",
      "outputs": [
        {
          "internalType": "bytes4",
          "name": "",
          "type": "bytes4"
        }
      ],
      "stateMutability": "nonpayable",
      "type": "function"
    },
    {
      "inputs": [],
      "name": "setupTables",
      "outputs": [],
      "stateMutability": "nonpayable",
      "type": "function"
    },
    {
      "inputs": [
        {
          "internalType": "address",
          "name": "newAdmin",
          "type": "address"
        }
      ],
      "name": "transferAdmin",
      "outputs": [],
      "stateMutability": "nonpayable",
      "type": "function"
    }
  ],
  "transactionHash": "0x57db5aa18892df715a80cf7cfd037e924442e386bb206002b61aa837683b8328",
  "args": [
    "0x9c66b91cFF4855dDf693889335ACBB0564ea19B8"
  ],
  "numDeployments": 1,
  "solcInputHash": "41d50ab7e0c13d2e487da648ac96db0b",
  "bytecode": "0x60a06040523480156200001157600080fd5b50604051620033b8380380620033b88339818101604052810190620000379190620000f2565b808073ffffffffffffffffffffffffffffffffffffffff1660808173ffffffffffffffffffffffffffffffffffffffff1681525050505062000124565b600080fd5b600073ffffffffffffffffffffffffffffffffffffffff82169050919050565b6000620000a68262000079565b9050919050565b6000620000ba8262000099565b9050919050565b620000cc81620000ad565b8114620000d857600080fd5b50565b600081519050620000ec81620000c1565b92915050565b6000602082840312156200010b576200010a62000074565b5b60006200011b84828501620000db565b91505092915050565b60805161327862000140600039600061068f01526132786000f3fe608060405234801561001057600080fd5b506004361061009e5760003560e01c80636e9960c3116100665780636e9960c31461014557806375829def14610163578063926d1d211461017f5780639a0f4b771461019d578063cbd69e7e146101b95761009e565b8063150b7a02146100a3578063485cc955146100d35780634d97eca2146100ef578063572b6c051461010b57806357854dc21461013b575b600080fd5b6100bd60048036038101906100b891906117c5565b6101d7565b6040516100ca9190611883565b60405180910390f35b6100ed60048036038101906100e891906118dc565b6101eb565b005b61010960048036038101906101049190611c6c565b6102be565b005b61012560048036038101906101209190611cb5565b61068b565b6040516101329190611cfd565b60405180910390f35b6101436106e3565b005b61014d61093e565b60405161015a9190611d27565b60405180910390f35b61017d60048036038101906101789190611cb5565b610967565b005b610187610aae565b6040516101949190611d51565b60405180910390f35b6101b760048036038101906101b29190611e3d565b610ab8565b005b6101c1610d6c565b6040516101ce9190611d51565b60405180910390f35b600063150b7a0260e01b9050949350505050565b600073ffffffffffffffffffffffffffffffffffffffff1660008054906101000a900473ffffffffffffffffffffffffffffffffffffffff1673ffffffffffffffffffffffffffffffffffffffff161461027a576040517f08c379a000000000000000000000000000000000000000000000000000000000815260040161027190611ee3565b60405180910390fd5b806000806101000a81548173ffffffffffffffffffffffffffffffffffffffff021916908373ffffffffffffffffffffffffffffffffffffffff1602179055505050565b6000600160008360000151815260200190815260200160002090508060010160009054906101000a900460ff1661032a576040517f08c379a000000000000000000000000000000000000000000000000000000000815260040161032190611f4f565b60405180910390fd5b600073b8888Ae9480A459c6b9c5668AC3ED8B3D0D339596311479fea8460a00151600001518560a00151602001518660a00151604001516040518060600160405280896000015181526020018860000154815260200189606001518152506040518563ffffffff1660e01b81526004016103a7949392919061219c565b602060405180830381865af41580156103c4573d6000803e3d6000fd5b505050506040513d601f19601f820116820180604052508101906103e8919061220f565b90508061042a576040517f08c379a000000000000000000000000000000000000000000000000000000000815260040161042190612288565b60405180910390fd5b610432610d76565b73ffffffffffffffffffffffffffffffffffffffff1663eaf5d04e306003546104b46040518060400160405280600e81526020017f7a6b5f61756469745f747261696c0000000000000000000000000000000000008152506003546040518060a00160405280607881526020016131cb607891396104af8b610ede565b610f71565b6040518463ffffffff1660e01b81526004016104d293929190612316565b600060405180830381600087803b1580156104ec57600080fd5b505af1158015610500573d6000803e3d6000fd5b5050505061050c610d76565b73ffffffffffffffffffffffffffffffffffffffff1663eaf5d04e306002546105b96040518060400160405280600c81526020017f7a6b5f646f63756d656e747300000000000000000000000000000000000000008152506002546040518060c00160405280609c8152602001612fe8609c91396105956105908c60000151610fb0565b61107e565b6040516020016105a591906123b6565b6040516020818303038152906040526110a7565b6040518463ffffffff1660e01b81526004016105d793929190612316565b600060405180830381600087803b1580156105f157600080fd5b505af1158015610605573d6000803e3d6000fd5b50505050826060015182600001819055508260000151610623611128565b73ffffffffffffffffffffffffffffffffffffffff167ffb91dddf789dc2f236d77fe54ccb54cbaab568dffe307577d7202f9aa8d9b8268560200151856000015487606001518860a0015160405161067e9493929190612522565b60405180910390a3505050565b60007f000000000000000000000000000000000000000000000000000000000000000073ffffffffffffffffffffffffffffffffffffffff168273ffffffffffffffffffffffffffffffffffffffff16149050919050565b6106eb611128565b73ffffffffffffffffffffffffffffffffffffffff1660008054906101000a900473ffffffffffffffffffffffffffffffffffffffff1673ffffffffffffffffffffffffffffffffffffffff1614610778576040517f08c379a000000000000000000000000000000000000000000000000000000000815260040161076f906125bb565b60405180910390fd5b610780610d76565b73ffffffffffffffffffffffffffffffffffffffff16633a9151b0306107f460405180610100016040528060c7815260200161310460c791396040518060400160405280600c81526020017f7a6b5f646f63756d656e7473000000000000000000000000000000000000000081525061115a565b6040518363ffffffff1660e01b81526004016108119291906125db565b6020604051808303816000875af1158015610830573d6000803e3d6000fd5b505050506040513d601f19601f820116820180604052508101906108549190612620565b600281905550610862610d76565b73ffffffffffffffffffffffffffffffffffffffff16633a9151b0306108d660405180610100016040528060d08152602001612f1860d091396040518060400160405280600e81526020017f7a6b5f61756469745f747261696c00000000000000000000000000000000000081525061115a565b6040518363ffffffff1660e01b81526004016108f39291906125db565b6020604051808303816000875af1158015610912573d6000803e3d6000fd5b505050506040513d601f19601f820116820180604052508101906109369190612620565b600381905550565b60008060009054906101000a900473ffffffffffffffffffffffffffffffffffffffff16905090565b61096f611128565b73ffffffffffffffffffffffffffffffffffffffff1660008054906101000a900473ffffffffffffffffffffffffffffffffffffffff1673ffffffffffffffffffffffffffffffffffffffff16146109fc576040517f08c379a00000000000000000000000000000000000000000000000000000000081526004016109f3906125bb565b60405180910390fd5b600073ffffffffffffffffffffffffffffffffffffffff168173ffffffffffffffffffffffffffffffffffffffff1603610a6b576040517f08c379a0000000000000000000000000000000000000000000000000000000008152600401610a6290612699565b60405180910390fd5b806000806101000a81548173ffffffffffffffffffffffffffffffffffffffff021916908373ffffffffffffffffffffffffffffffffffffffff16021790555050565b6000600254905090565b6000600160008360000151815260200190815260200160002090508060010160009054906101000a900460ff1615610b25576040517f08c379a0000000000000000000000000000000000000000000000000000000008152600401610b1c90612705565b60405180910390fd5b60007317660F2fF2D313726E876fe1EE4772d8b9F32F3b6343753b4d846060015160000151856060015160200151866060015160400151604051806020016040528089600001518152506040518563ffffffff1660e01b8152600401610b8e94939291906127a9565b602060405180830381865af4158015610bab573d6000803e3d6000fd5b505050506040513d601f19601f82011682018060405250810190610bcf919061220f565b905080610c11576040517f08c379a0000000000000000000000000000000000000000000000000000000008152600401610c089061283c565b60405180910390fd5b60018260010160006101000a81548160ff021916908315150217905550610c36610d76565b73ffffffffffffffffffffffffffffffffffffffff1663eaf5d04e30600254610cb86040518060400160405280600c81526020017f7a6b5f646f63756d656e747300000000000000000000000000000000000000008152506002546040518060a001604052806080815260200161308460809139610cb38b611190565b610f71565b6040518463ffffffff1660e01b8152600401610cd693929190612316565b600060405180830381600087803b158015610cf057600080fd5b505af1158015610d04573d6000803e3d6000fd5b50505050610d10611128565b73ffffffffffffffffffffffffffffffffffffffff167fd2d44372492e8082b0303e3732cb5934ba9708de7c0b1889fa95c61b4573821a84600001518560600151604051610d5f92919061285c565b60405180910390a2505050565b6000600354905090565b600060014603610d9c5773012969f7e3439a9b04025b5a049eb9bad82a8c129050610edb565b600a4603610dc05773fad44bf5b843de943a09d4f3e84949a11d3aa3e69050610edb565b60894603610de457735c4e6a9e5c1e1bf445a062006faf19ea6c49afea9050610edb565b60054603610e085773da8ea22d092307874f30a1f277d1388dca0ba97a9050610edb565b6101a44603610e2d5773c72e8a7be04f2469f8c2db3f1bdf69a7d516abba9050610edb565b62066eed4603610e535773033f69e8d119205089ab15d340f5b797732f646b9050610edb565b620138814603610e7957734b48841d4b32c4650e4abc117a03fe8b51f38f689050610edb565b617a694603610e9e5773e7f1725e7734ce288f8367e1bb143e90bb3f05129050610edb565b466040517f264e42cf000000000000000000000000000000000000000000000000000000008152600401610ed29190611d51565b60405180910390fd5b90565b6060610ef5610ef08360000151610fb0565b61107e565b610f02836020015161107e565b610f0f846040015161107e565b610f24610f1f8660600151610fb0565b61107e565b610f39610f348760800151610fb0565b61107e565b610f468760a00151611247565b604051602001610f5b969594939291906128ac565b6040516020818303038152906040529050919050565b60606000610f7f868661143e565b9050808484604051602001610f9693929190612a7f565b604051602081830303815290604052915050949350505050565b606060006001610fbf8461147c565b01905060008167ffffffffffffffff811115610fde57610fdd61169a565b5b6040519080825280601f01601f1916602001820160405280156110105781602001600182028036833780820191505090505b509050600082602001820190505b600115611073578080600190039150507f3031323334353637383961626364656600000000000000000000000000000000600a86061a8153600a858161106757611066612adc565b5b0494506000850361101e575b819350505050919050565b6060816040516020016110919190612b57565b6040516020818303038152906040529050919050565b606060006110b5868661143e565b905060006040518060200160405280600081525090506000845111156110f857836040516020016110e69190612bd0565b60405160208183030381529060405290505b81858260405160200161110d93929190612c8a565b60405160208183030381529060405292505050949350505050565b60006111333361068b565b1561114757601436033560601c9050611156565b61114f6115cf565b9050611157565b5b90565b60608161116646610fb0565b8460405160200161117993929190612d69565b604051602081830303815290604052905092915050565b60606111a76111a28360000151610fb0565b61107e565b6111e56040518060400160405280600781526020017f70656e64696e670000000000000000000000000000000000000000000000000081525061107e565b6111f8846020015163ffffffff16610fb0565b6112026000610fb0565b61120f866040015161107e565b61121c8760600151611247565b604051602001611231969594939291906128ac565b6040516020818303038152906040529050919050565b6060611276611271836000015160006002811061126757611266612dc6565b5b6020020151610fb0565b61107e565b6112a361129e846000015160016002811061129457611293612dc6565b5b6020020151610fb0565b61107e565b6112e86112e385602001516000600281106112c1576112c0612dc6565b5b60200201516000600281106112d9576112d8612dc6565b5b6020020151610fb0565b61107e565b61132d611328866020015160006002811061130657611305612dc6565b5b602002015160016002811061131e5761131d612dc6565b5b6020020151610fb0565b61107e565b61137261136d876020015160016002811061134b5761134a612dc6565b5b602002015160006002811061136357611362612dc6565b5b6020020151610fb0565b61107e565b6113b76113b288602001516001600281106113905761138f612dc6565b5b60200201516001600281106113a8576113a7612dc6565b5b6020020151610fb0565b61107e565b6113e46113df89604001516000600281106113d5576113d4612dc6565b5b6020020151610fb0565b61107e565b61141161140c8a6040015160016002811061140257611401612dc6565b5b6020020151610fb0565b61107e565b604051602001611428989796959493929190612df5565b6040516020818303038152906040529050919050565b60608261144a46610fb0565b61145384610fb0565b60405160200161146593929190612ed0565b604051602081830303815290604052905092915050565b600080600090507a184f03e93ff9f4daa797ed6e38ed64bf6a1f01000000000000000083106114da577a184f03e93ff9f4daa797ed6e38ed64bf6a1f01000000000000000083816114d0576114cf612adc565b5b0492506040810190505b6d04ee2d6d415b85acef81000000008310611517576d04ee2d6d415b85acef8100000000838161150d5761150c612adc565b5b0492506020810190505b662386f26fc10000831061154657662386f26fc10000838161153c5761153b612adc565b5b0492506010810190505b6305f5e100831061156f576305f5e100838161156557611564612adc565b5b0492506008810190505b612710831061159457612710838161158a57611589612adc565b5b0492506004810190505b606483106115b757606483816115ad576115ac612adc565b5b0492506002810190505b600a83106115c6576001810190505b80915050919050565b600033905090565b6000604051905090565b600080fd5b600080fd5b600073ffffffffffffffffffffffffffffffffffffffff82169050919050565b6000611616826115eb565b9050919050565b6116268161160b565b811461163157600080fd5b50565b6000813590506116438161161d565b92915050565b6000819050919050565b61165c81611649565b811461166757600080fd5b50565b60008135905061167981611653565b92915050565b600080fd5b600080fd5b6000601f19601f8301169050919050565b7f4e487b7100000000000000000000000000000000000000000000000000000000600052604160045260246000fd5b6116d282611689565b810181811067ffffffffffffffff821117156116f1576116f061169a565b5b80604052505050565b60006117046115d7565b905061171082826116c9565b919050565b600067ffffffffffffffff8211156117305761172f61169a565b5b61173982611689565b9050602081019050919050565b82818337600083830152505050565b600061176861176384611715565b6116fa565b90508281526020810184848401111561178457611783611684565b5b61178f848285611746565b509392505050565b600082601f8301126117ac576117ab61167f565b5b81356117bc848260208601611755565b91505092915050565b600080600080608085870312156117df576117de6115e1565b5b60006117ed87828801611634565b94505060206117fe87828801611634565b935050604061180f8782880161166a565b925050606085013567ffffffffffffffff8111156118305761182f6115e6565b5b61183c87828801611797565b91505092959194509250565b60007fffffffff0000000000000000000000000000000000000000000000000000000082169050919050565b61187d81611848565b82525050565b60006020820190506118986000830184611874565b92915050565b60006118a98261160b565b9050919050565b6118b98161189e565b81146118c457600080fd5b50565b6000813590506118d6816118b0565b92915050565b600080604083850312156118f3576118f26115e1565b5b6000611901858286016118c7565b925050602061191285828601611634565b9150509250929050565b600080fd5b600080fd5b600067ffffffffffffffff8211156119415761194061169a565b5b61194a82611689565b9050602081019050919050565b600061196a61196584611926565b6116fa565b90508281526020810184848401111561198657611985611684565b5b611991848285611746565b509392505050565b600082601f8301126119ae576119ad61167f565b5b81356119be848260208601611957565b91505092915050565b600067ffffffffffffffff8211156119e2576119e161169a565b5b602082029050919050565b600080fd5b6000611a05611a00846119c7565b6116fa565b90508060208402830185811115611a1f57611a1e6119ed565b5b835b81811015611a485780611a34888261166a565b845260208401935050602081019050611a21565b5050509392505050565b600082601f830112611a6757611a6661167f565b5b6002611a748482856119f2565b91505092915050565b600067ffffffffffffffff821115611a9857611a9761169a565b5b602082029050919050565b6000611ab6611ab184611a7d565b6116fa565b90508060408402830185811115611ad057611acf6119ed565b5b835b81811015611af95780611ae58882611a52565b845260208401935050604081019050611ad2565b5050509392505050565b600082601f830112611b1857611b1761167f565b5b6002611b25848285611aa3565b91505092915050565b60006101008284031215611b4557611b4461191c565b5b611b4f60606116fa565b90506000611b5f84828501611a52565b6000830152506040611b7384828501611b03565b60208301525060c0611b8784828501611a52565b60408301525092915050565b60006101a08284031215611baa57611ba961191c565b5b611bb460c06116fa565b90506000611bc48482850161166a565b600083015250602082013567ffffffffffffffff811115611be857611be7611921565b5b611bf484828501611999565b602083015250604082013567ffffffffffffffff811115611c1857611c17611921565b5b611c2484828501611999565b6040830152506060611c388482850161166a565b6060830152506080611c4c8482850161166a565b60808301525060a0611c6084828501611b2e565b60a08301525092915050565b600060208284031215611c8257611c816115e1565b5b600082013567ffffffffffffffff811115611ca057611c9f6115e6565b5b611cac84828501611b93565b91505092915050565b600060208284031215611ccb57611cca6115e1565b5b6000611cd984828501611634565b91505092915050565b60008115159050919050565b611cf781611ce2565b82525050565b6000602082019050611d126000830184611cee565b92915050565b611d218161160b565b82525050565b6000602082019050611d3c6000830184611d18565b92915050565b611d4b81611649565b82525050565b6000602082019050611d666000830184611d42565b92915050565b600063ffffffff82169050919050565b611d8581611d6c565b8114611d9057600080fd5b50565b600081359050611da281611d7c565b92915050565b60006101608284031215611dbf57611dbe61191c565b5b611dc960806116fa565b90506000611dd98482850161166a565b6000830152506020611ded84828501611d93565b602083015250604082013567ffffffffffffffff811115611e1157611e10611921565b5b611e1d84828501611999565b6040830152506060611e3184828501611b2e565b60608301525092915050565b600060208284031215611e5357611e526115e1565b5b600082013567ffffffffffffffff811115611e7157611e706115e6565b5b611e7d84828501611da8565b91505092915050565b600082825260208201905092915050565b7f436f6e747261637420616c726561647920696e697469616c697a656400000000600082015250565b6000611ecd601c83611e86565b9150611ed882611e97565b602082019050919050565b60006020820190508181036000830152611efc81611ec0565b9050919050565b7f446f63756d656e7420646f65736e277420657869737400000000000000000000600082015250565b6000611f39601683611e86565b9150611f4482611f03565b602082019050919050565b60006020820190508181036000830152611f6881611f2c565b9050919050565b600060029050919050565b600081905092915050565b6000819050919050565b611f9881611649565b82525050565b6000611faa8383611f8f565b60208301905092915050565b6000602082019050919050565b611fcc81611f6f565b611fd68184611f7a565b9250611fe182611f85565b8060005b83811015612012578151611ff98782611f9e565b965061200483611fb6565b925050600181019050611fe5565b505050505050565b600060029050919050565b600081905092915050565b6000819050919050565b600081905092915050565b61204e81611f6f565b612058818461203a565b925061206382611f85565b8060005b8381101561209457815161207b8782611f9e565b965061208683611fb6565b925050600181019050612067565b505050505050565b60006120a88383612045565b60408301905092915050565b6000602082019050919050565b6120ca8161201a565b6120d48184612025565b92506120df82612030565b8060005b838110156121105781516120f7878261209c565b9650612102836120b4565b9250506001810190506120e3565b505050505050565b600060039050919050565b600081905092915050565b6000819050919050565b6000602082019050919050565b61214e81612118565b6121588184612123565b92506121638261212e565b8060005b8381101561219457815161217b8782611f9e565b965061218683612138565b925050600181019050612167565b505050505050565b6000610160820190506121b26000830187611fc3565b6121bf60408301866120c1565b6121cc60c0830185611fc3565b6121da610100830184612145565b95945050505050565b6121ec81611ce2565b81146121f757600080fd5b50565b600081519050612209816121e3565b92915050565b600060208284031215612225576122246115e1565b5b6000612233848285016121fa565b91505092915050565b7f496e76616c6964207061727469636970616e7420696e73657274000000000000600082015250565b6000612272601a83611e86565b915061227d8261223c565b602082019050919050565b600060208201905081810360008301526122a181612265565b9050919050565b600081519050919050565b60005b838110156122d15780820151818401526020810190506122b6565b60008484015250505050565b60006122e8826122a8565b6122f28185611e86565b93506123028185602086016122b3565b61230b81611689565b840191505092915050565b600060608201905061232b6000830186611d18565b6123386020830185611d42565b818103604083015261234a81846122dd565b9050949350505050565b7f69643d0000000000000000000000000000000000000000000000000000000000815250565b600081905092915050565b6000612390826122a8565b61239a818561237a565b93506123aa8185602086016122b3565b80840191505092915050565b60006123c182612354565b6003820191506123d18284612385565b915081905092915050565b600081905092915050565b6123f081611649565b82525050565b600061240283836123e7565b60208301905092915050565b61241781611f6f565b61242181846123dc565b925061242c82611f85565b8060005b8381101561245d57815161244487826123f6565b965061244f83611fb6565b925050600181019050612430565b505050505050565b600081905092915050565b600061247c838361240e565b60408301905092915050565b6124918161201a565b61249b8184612465565b92506124a682612030565b8060005b838110156124d75781516124be8782612470565b96506124c9836120b4565b9250506001810190506124aa565b505050505050565b610100820160008201516124f6600085018261240e565b5060208201516125096040850182612488565b50604082015161251c60c085018261240e565b50505050565b600061016082019050818103600083015261253d81876122dd565b905061254c6020830186611d42565b6125596040830185611d42565b61256660608301846124df565b95945050505050565b7f63616c6c6572206973206e6f74207468652061646d696e000000000000000000600082015250565b60006125a5601783611e86565b91506125b08261256f565b602082019050919050565b600060208201905081810360008301526125d481612598565b9050919050565b60006040820190506125f06000830185611d18565b818103602083015261260281846122dd565b90509392505050565b60008151905061261a81611653565b92915050565b600060208284031215612636576126356115e1565b5b60006126448482850161260b565b91505092915050565b7f6e65772061646d696e20697320746865207a65726f2061646472657373000000600082015250565b6000612683601d83611e86565b915061268e8261264d565b602082019050919050565b600060208201905081810360008301526126b281612676565b9050919050565b7f446f63756d656e74206578697374730000000000000000000000000000000000600082015250565b60006126ef600f83611e86565b91506126fa826126b9565b602082019050919050565b6000602082019050818103600083015261271e816126e2565b9050919050565b600060019050919050565b600081905092915050565b6000819050919050565b6000602082019050919050565b61275b81612725565b6127658184612730565b92506127708261273b565b8060005b838110156127a15781516127888782611f9e565b965061279383612745565b925050600181019050612774565b505050505050565b6000610120820190506127bf6000830187611fc3565b6127cc60408301866120c1565b6127d960c0830185611fc3565b6127e7610100830184612752565b95945050505050565b7f496e76616c696420646f63756d656e7420696400000000000000000000000000600082015250565b6000612826601383611e86565b9150612831826127f0565b602082019050919050565b6000602082019050818103600083015261285581612819565b9050919050565b6000610120820190506128726000830185611d42565b61287f60208301846124df565b9392505050565b7f2c00000000000000000000000000000000000000000000000000000000000000815250565b60006128b88289612385565b91506128c382612886565b6001820191506128d38288612385565b91506128de82612886565b6001820191506128ee8287612385565b91506128f982612886565b6001820191506129098286612385565b915061291482612886565b6001820191506129248285612385565b915061292f82612886565b60018201915061293f8284612385565b9150819050979650505050505050565b7f494e5345525420494e544f200000000000000000000000000000000000000000600082015250565b6000612985600c8361237a565b91506129908261294f565b600c82019050919050565b7f2800000000000000000000000000000000000000000000000000000000000000600082015250565b60006129d160018361237a565b91506129dc8261299b565b600182019050919050565b7f2956414c55455328000000000000000000000000000000000000000000000000600082015250565b6000612a1d60088361237a565b9150612a28826129e7565b600882019050919050565b7f2900000000000000000000000000000000000000000000000000000000000000600082015250565b6000612a6960018361237a565b9150612a7482612a33565b600182019050919050565b6000612a8a82612978565b9150612a968286612385565b9150612aa1826129c4565b9150612aad8285612385565b9150612ab882612a10565b9150612ac48284612385565b9150612acf82612a5c565b9150819050949350505050565b7f4e487b7100000000000000000000000000000000000000000000000000000000600052601260045260246000fd5b7f2700000000000000000000000000000000000000000000000000000000000000600082015250565b6000612b4160018361237a565b9150612b4c82612b0b565b600182019050919050565b6000612b6282612b34565b9150612b6e8284612385565b9150612b7982612b34565b915081905092915050565b7f2057484552452000000000000000000000000000000000000000000000000000600082015250565b6000612bba60078361237a565b9150612bc582612b84565b600782019050919050565b6000612bdb82612bad565b9150612be78284612385565b915081905092915050565b7f5550444154452000000000000000000000000000000000000000000000000000600082015250565b6000612c2860078361237a565b9150612c3382612bf2565b600782019050919050565b7f2053455420000000000000000000000000000000000000000000000000000000600082015250565b6000612c7460058361237a565b9150612c7f82612c3e565b600582019050919050565b6000612c9582612c1b565b9150612ca18286612385565b9150612cac82612c67565b9150612cb88285612385565b9150612cc48284612385565b9150819050949350505050565b7f435245415445205441424c452000000000000000000000000000000000000000600082015250565b6000612d07600d8361237a565b9150612d1282612cd1565b600d82019050919050565b7f5f00000000000000000000000000000000000000000000000000000000000000600082015250565b6000612d5360018361237a565b9150612d5e82612d1d565b600182019050919050565b6000612d7482612cfa565b9150612d808286612385565b9150612d8b82612d46565b9150612d978285612385565b9150612da2826129c4565b9150612dae8284612385565b9150612db982612a5c565b9150819050949350505050565b7f4e487b7100000000000000000000000000000000000000000000000000000000600052603260045260246000fd5b6000612e01828b612385565b9150612e0c82612886565b600182019150612e1c828a612385565b9150612e2782612886565b600182019150612e378289612385565b9150612e4282612886565b600182019150612e528288612385565b9150612e5d82612886565b600182019150612e6d8287612385565b9150612e7882612886565b600182019150612e888286612385565b9150612e9382612886565b600182019150612ea38285612385565b9150612eae82612886565b600182019150612ebe8284612385565b91508190509998505050505050505050565b6000612edc8286612385565b9150612ee782612d46565b9150612ef38285612385565b9150612efe82612d46565b9150612f0a8284612385565b915081905094935050505056fe696420696e7465676572207072696d617279206b65792c646f63756d656e74496420746578742c76657269666965645061727469636970616e7420746578742c656e637279707465645061727469636970616e7443494420746578742c736d74526f6f7420746578742c6e6f6e636520746578742c7a6b70413020746578742c7a6b70413120746578742c7a6b7042303020746578742c7a6b7042303120746578742c7a6b7042313020746578742c7a6b7042313120746578742c7a6b70433020746578742c7a6b7043312074657874746f74616c5061727469636970616e74436f756e743d746f74616c5061727469636970616e74436f756e74202b20312c20737461747573203d2043415345205748454e2065787065637465645061727469636970616e74436f756e74203c3d20746f74616c5061727469636970616e74436f756e74202b2031205448454e2027636f6d706c6574652720454c5345202770656e64696e672720454e4469642c7374617475732c65787065637465645061727469636970616e74436f756e742c746f74616c5061727469636970616e74436f756e742c656e6372797074656444657461696c734349442c7a6b7041302c7a6b7041312c7a6b704230302c7a6b704230312c7a6b704231302c7a6b704231312c7a6b7043302c7a6b704331696420746578742c73746174757320746578742c65787065637465645061727469636970616e74436f756e7420696e74656765722c746f74616c5061727469636970616e74436f756e7420696e74656765722c656e6372797074656444657461696c7343494420746578742c7a6b70413020746578742c7a6b70413120746578742c7a6b7042303020746578742c7a6b7042303120746578742c7a6b7042313020746578742c7a6b7042313120746578742c7a6b70433020746578742c7a6b7043312074657874646f63756d656e7449642c76657269666965645061727469636970616e742c656e637279707465645061727469636970616e744349442c736d74526f6f742c6e6f6e63652c7a6b7041302c7a6b7041312c7a6b704230302c7a6b704230312c7a6b704231302c7a6b704231312c7a6b7043302c7a6b704331a2646970667358221220afcf4e31a07cd954b38f2f5bccb9e240b6eafc9b667543c12895ac5b9f9fb40b64736f6c63430008120033",
  "deployedBytecode": "0x608060405234801561001057600080fd5b506004361061009e5760003560e01c80636e9960c3116100665780636e9960c31461014557806375829def14610163578063926d1d211461017f5780639a0f4b771461019d578063cbd69e7e146101b95761009e565b8063150b7a02146100a3578063485cc955146100d35780634d97eca2146100ef578063572b6c051461010b57806357854dc21461013b575b600080fd5b6100bd60048036038101906100b891906117c5565b6101d7565b6040516100ca9190611883565b60405180910390f35b6100ed60048036038101906100e891906118dc565b6101eb565b005b61010960048036038101906101049190611c6c565b6102be565b005b61012560048036038101906101209190611cb5565b61068b565b6040516101329190611cfd565b60405180910390f35b6101436106e3565b005b61014d61093e565b60405161015a9190611d27565b60405180910390f35b61017d60048036038101906101789190611cb5565b610967565b005b610187610aae565b6040516101949190611d51565b60405180910390f35b6101b760048036038101906101b29190611e3d565b610ab8565b005b6101c1610d6c565b6040516101ce9190611d51565b60405180910390f35b600063150b7a0260e01b9050949350505050565b600073ffffffffffffffffffffffffffffffffffffffff1660008054906101000a900473ffffffffffffffffffffffffffffffffffffffff1673ffffffffffffffffffffffffffffffffffffffff161461027a576040517f08c379a000000000000000000000000000000000000000000000000000000000815260040161027190611ee3565b60405180910390fd5b806000806101000a81548173ffffffffffffffffffffffffffffffffffffffff021916908373ffffffffffffffffffffffffffffffffffffffff1602179055505050565b6000600160008360000151815260200190815260200160002090508060010160009054906101000a900460ff1661032a576040517f08c379a000000000000000000000000000000000000000000000000000000000815260040161032190611f4f565b60405180910390fd5b600073__$dd5c78d03d4789677603e538c718adfa8a$__6311479fea8460a00151600001518560a00151602001518660a00151604001516040518060600160405280896000015181526020018860000154815260200189606001518152506040518563ffffffff1660e01b81526004016103a7949392919061219c565b602060405180830381865af41580156103c4573d6000803e3d6000fd5b505050506040513d601f19601f820116820180604052508101906103e8919061220f565b90508061042a576040517f08c379a000000000000000000000000000000000000000000000000000000000815260040161042190612288565b60405180910390fd5b610432610d76565b73ffffffffffffffffffffffffffffffffffffffff1663eaf5d04e306003546104b46040518060400160405280600e81526020017f7a6b5f61756469745f747261696c0000000000000000000000000000000000008152506003546040518060a00160405280607881526020016131cb607891396104af8b610ede565b610f71565b6040518463ffffffff1660e01b81526004016104d293929190612316565b600060405180830381600087803b1580156104ec57600080fd5b505af1158015610500573d6000803e3d6000fd5b5050505061050c610d76565b73ffffffffffffffffffffffffffffffffffffffff1663eaf5d04e306002546105b96040518060400160405280600c81526020017f7a6b5f646f63756d656e747300000000000000000000000000000000000000008152506002546040518060c00160405280609c8152602001612fe8609c91396105956105908c60000151610fb0565b61107e565b6040516020016105a591906123b6565b6040516020818303038152906040526110a7565b6040518463ffffffff1660e01b81526004016105d793929190612316565b600060405180830381600087803b1580156105f157600080fd5b505af1158015610605573d6000803e3d6000fd5b50505050826060015182600001819055508260000151610623611128565b73ffffffffffffffffffffffffffffffffffffffff167ffb91dddf789dc2f236d77fe54ccb54cbaab568dffe307577d7202f9aa8d9b8268560200151856000015487606001518860a0015160405161067e9493929190612522565b60405180910390a3505050565b60007f000000000000000000000000000000000000000000000000000000000000000073ffffffffffffffffffffffffffffffffffffffff168273ffffffffffffffffffffffffffffffffffffffff16149050919050565b6106eb611128565b73ffffffffffffffffffffffffffffffffffffffff1660008054906101000a900473ffffffffffffffffffffffffffffffffffffffff1673ffffffffffffffffffffffffffffffffffffffff1614610778576040517f08c379a000000000000000000000000000000000000000000000000000000000815260040161076f906125bb565b60405180910390fd5b610780610d76565b73ffffffffffffffffffffffffffffffffffffffff16633a9151b0306107f460405180610100016040528060c7815260200161310460c791396040518060400160405280600c81526020017f7a6b5f646f63756d656e7473000000000000000000000000000000000000000081525061115a565b6040518363ffffffff1660e01b81526004016108119291906125db565b6020604051808303816000875af1158015610830573d6000803e3d6000fd5b505050506040513d601f19601f820116820180604052508101906108549190612620565b600281905550610862610d76565b73ffffffffffffffffffffffffffffffffffffffff16633a9151b0306108d660405180610100016040528060d08152602001612f1860d091396040518060400160405280600e81526020017f7a6b5f61756469745f747261696c00000000000000000000000000000000000081525061115a565b6040518363ffffffff1660e01b81526004016108f39291906125db565b6020604051808303816000875af1158015610912573d6000803e3d6000fd5b505050506040513d601f19601f820116820180604052508101906109369190612620565b600381905550565b60008060009054906101000a900473ffffffffffffffffffffffffffffffffffffffff16905090565b61096f611128565b73ffffffffffffffffffffffffffffffffffffffff1660008054906101000a900473ffffffffffffffffffffffffffffffffffffffff1673ffffffffffffffffffffffffffffffffffffffff16146109fc576040517f08c379a00000000000000000000000000000000000000000000000000000000081526004016109f3906125bb565b60405180910390fd5b600073ffffffffffffffffffffffffffffffffffffffff168173ffffffffffffffffffffffffffffffffffffffff1603610a6b576040517f08c379a0000000000000000000000000000000000000000000000000000000008152600401610a6290612699565b60405180910390fd5b806000806101000a81548173ffffffffffffffffffffffffffffffffffffffff021916908373ffffffffffffffffffffffffffffffffffffffff16021790555050565b6000600254905090565b6000600160008360000151815260200190815260200160002090508060010160009054906101000a900460ff1615610b25576040517f08c379a0000000000000000000000000000000000000000000000000000000008152600401610b1c90612705565b60405180910390fd5b600073__$f1c2f0db6d538d14eb840c655424d0f06f$__6343753b4d846060015160000151856060015160200151866060015160400151604051806020016040528089600001518152506040518563ffffffff1660e01b8152600401610b8e94939291906127a9565b602060405180830381865af4158015610bab573d6000803e3d6000fd5b505050506040513d601f19601f82011682018060405250810190610bcf919061220f565b905080610c11576040517f08c379a0000000000000000000000000000000000000000000000000000000008152600401610c089061283c565b60405180910390fd5b60018260010160006101000a81548160ff021916908315150217905550610c36610d76565b73ffffffffffffffffffffffffffffffffffffffff1663eaf5d04e30600254610cb86040518060400160405280600c81526020017f7a6b5f646f63756d656e747300000000000000000000000000000000000000008152506002546040518060a001604052806080815260200161308460809139610cb38b611190565b610f71565b6040518463ffffffff1660e01b8152600401610cd693929190612316565b600060405180830381600087803b158015610cf057600080fd5b505af1158015610d04573d6000803e3d6000fd5b50505050610d10611128565b73ffffffffffffffffffffffffffffffffffffffff167fd2d44372492e8082b0303e3732cb5934ba9708de7c0b1889fa95c61b4573821a84600001518560600151604051610d5f92919061285c565b60405180910390a2505050565b6000600354905090565b600060014603610d9c5773012969f7e3439a9b04025b5a049eb9bad82a8c129050610edb565b600a4603610dc05773fad44bf5b843de943a09d4f3e84949a11d3aa3e69050610edb565b60894603610de457735c4e6a9e5c1e1bf445a062006faf19ea6c49afea9050610edb565b60054603610e085773da8ea22d092307874f30a1f277d1388dca0ba97a9050610edb565b6101a44603610e2d5773c72e8a7be04f2469f8c2db3f1bdf69a7d516abba9050610edb565b62066eed4603610e535773033f69e8d119205089ab15d340f5b797732f646b9050610edb565b620138814603610e7957734b48841d4b32c4650e4abc117a03fe8b51f38f689050610edb565b617a694603610e9e5773e7f1725e7734ce288f8367e1bb143e90bb3f05129050610edb565b466040517f264e42cf000000000000000000000000000000000000000000000000000000008152600401610ed29190611d51565b60405180910390fd5b90565b6060610ef5610ef08360000151610fb0565b61107e565b610f02836020015161107e565b610f0f846040015161107e565b610f24610f1f8660600151610fb0565b61107e565b610f39610f348760800151610fb0565b61107e565b610f468760a00151611247565b604051602001610f5b969594939291906128ac565b6040516020818303038152906040529050919050565b60606000610f7f868661143e565b9050808484604051602001610f9693929190612a7f565b604051602081830303815290604052915050949350505050565b606060006001610fbf8461147c565b01905060008167ffffffffffffffff811115610fde57610fdd61169a565b5b6040519080825280601f01601f1916602001820160405280156110105781602001600182028036833780820191505090505b509050600082602001820190505b600115611073578080600190039150507f3031323334353637383961626364656600000000000000000000000000000000600a86061a8153600a858161106757611066612adc565b5b0494506000850361101e575b819350505050919050565b6060816040516020016110919190612b57565b6040516020818303038152906040529050919050565b606060006110b5868661143e565b905060006040518060200160405280600081525090506000845111156110f857836040516020016110e69190612bd0565b60405160208183030381529060405290505b81858260405160200161110d93929190612c8a565b60405160208183030381529060405292505050949350505050565b60006111333361068b565b1561114757601436033560601c9050611156565b61114f6115cf565b9050611157565b5b90565b60608161116646610fb0565b8460405160200161117993929190612d69565b604051602081830303815290604052905092915050565b60606111a76111a28360000151610fb0565b61107e565b6111e56040518060400160405280600781526020017f70656e64696e670000000000000000000000000000000000000000000000000081525061107e565b6111f8846020015163ffffffff16610fb0565b6112026000610fb0565b61120f866040015161107e565b61121c8760600151611247565b604051602001611231969594939291906128ac565b6040516020818303038152906040529050919050565b6060611276611271836000015160006002811061126757611266612dc6565b5b6020020151610fb0565b61107e565b6112a361129e846000015160016002811061129457611293612dc6565b5b6020020151610fb0565b61107e565b6112e86112e385602001516000600281106112c1576112c0612dc6565b5b60200201516000600281106112d9576112d8612dc6565b5b6020020151610fb0565b61107e565b61132d611328866020015160006002811061130657611305612dc6565b5b602002015160016002811061131e5761131d612dc6565b5b6020020151610fb0565b61107e565b61137261136d876020015160016002811061134b5761134a612dc6565b5b602002015160006002811061136357611362612dc6565b5b6020020151610fb0565b61107e565b6113b76113b288602001516001600281106113905761138f612dc6565b5b60200201516001600281106113a8576113a7612dc6565b5b6020020151610fb0565b61107e565b6113e46113df89604001516000600281106113d5576113d4612dc6565b5b6020020151610fb0565b61107e565b61141161140c8a6040015160016002811061140257611401612dc6565b5b6020020151610fb0565b61107e565b604051602001611428989796959493929190612df5565b6040516020818303038152906040529050919050565b60608261144a46610fb0565b61145384610fb0565b60405160200161146593929190612ed0565b604051602081830303815290604052905092915050565b600080600090507a184f03e93ff9f4daa797ed6e38ed64bf6a1f01000000000000000083106114da577a184f03e93ff9f4daa797ed6e38ed64bf6a1f01000000000000000083816114d0576114cf612adc565b5b0492506040810190505b6d04ee2d6d415b85acef81000000008310611517576d04ee2d6d415b85acef8100000000838161150d5761150c612adc565b5b0492506020810190505b662386f26fc10000831061154657662386f26fc10000838161153c5761153b612adc565b5b0492506010810190505b6305f5e100831061156f576305f5e100838161156557611564612adc565b5b0492506008810190505b612710831061159457612710838161158a57611589612adc565b5b0492506004810190505b606483106115b757606483816115ad576115ac612adc565b5b0492506002810190505b600a83106115c6576001810190505b80915050919050565b600033905090565b6000604051905090565b600080fd5b600080fd5b600073ffffffffffffffffffffffffffffffffffffffff82169050919050565b6000611616826115eb565b9050919050565b6116268161160b565b811461163157600080fd5b50565b6000813590506116438161161d565b92915050565b6000819050919050565b61165c81611649565b811461166757600080fd5b50565b60008135905061167981611653565b92915050565b600080fd5b600080fd5b6000601f19601f8301169050919050565b7f4e487b7100000000000000000000000000000000000000000000000000000000600052604160045260246000fd5b6116d282611689565b810181811067ffffffffffffffff821117156116f1576116f061169a565b5b80604052505050565b60006117046115d7565b905061171082826116c9565b919050565b600067ffffffffffffffff8211156117305761172f61169a565b5b61173982611689565b9050602081019050919050565b82818337600083830152505050565b600061176861176384611715565b6116fa565b90508281526020810184848401111561178457611783611684565b5b61178f848285611746565b509392505050565b600082601f8301126117ac576117ab61167f565b5b81356117bc848260208601611755565b91505092915050565b600080600080608085870312156117df576117de6115e1565b5b60006117ed87828801611634565b94505060206117fe87828801611634565b935050604061180f8782880161166a565b925050606085013567ffffffffffffffff8111156118305761182f6115e6565b5b61183c87828801611797565b91505092959194509250565b60007fffffffff0000000000000000000000000000000000000000000000000000000082169050919050565b61187d81611848565b82525050565b60006020820190506118986000830184611874565b92915050565b60006118a98261160b565b9050919050565b6118b98161189e565b81146118c457600080fd5b50565b6000813590506118d6816118b0565b92915050565b600080604083850312156118f3576118f26115e1565b5b6000611901858286016118c7565b925050602061191285828601611634565b9150509250929050565b600080fd5b600080fd5b600067ffffffffffffffff8211156119415761194061169a565b5b61194a82611689565b9050602081019050919050565b600061196a61196584611926565b6116fa565b90508281526020810184848401111561198657611985611684565b5b611991848285611746565b509392505050565b600082601f8301126119ae576119ad61167f565b5b81356119be848260208601611957565b91505092915050565b600067ffffffffffffffff8211156119e2576119e161169a565b5b602082029050919050565b600080fd5b6000611a05611a00846119c7565b6116fa565b90508060208402830185811115611a1f57611a1e6119ed565b5b835b81811015611a485780611a34888261166a565b845260208401935050602081019050611a21565b5050509392505050565b600082601f830112611a6757611a6661167f565b5b6002611a748482856119f2565b91505092915050565b600067ffffffffffffffff821115611a9857611a9761169a565b5b602082029050919050565b6000611ab6611ab184611a7d565b6116fa565b90508060408402830185811115611ad057611acf6119ed565b5b835b81811015611af95780611ae58882611a52565b845260208401935050604081019050611ad2565b5050509392505050565b600082601f830112611b1857611b1761167f565b5b6002611b25848285611aa3565b91505092915050565b60006101008284031215611b4557611b4461191c565b5b611b4f60606116fa565b90506000611b5f84828501611a52565b6000830152506040611b7384828501611b03565b60208301525060c0611b8784828501611a52565b60408301525092915050565b60006101a08284031215611baa57611ba961191c565b5b611bb460c06116fa565b90506000611bc48482850161166a565b600083015250602082013567ffffffffffffffff811115611be857611be7611921565b5b611bf484828501611999565b602083015250604082013567ffffffffffffffff811115611c1857611c17611921565b5b611c2484828501611999565b6040830152506060611c388482850161166a565b6060830152506080611c4c8482850161166a565b60808301525060a0611c6084828501611b2e565b60a08301525092915050565b600060208284031215611c8257611c816115e1565b5b600082013567ffffffffffffffff811115611ca057611c9f6115e6565b5b611cac84828501611b93565b91505092915050565b600060208284031215611ccb57611cca6115e1565b5b6000611cd984828501611634565b91505092915050565b60008115159050919050565b611cf781611ce2565b82525050565b6000602082019050611d126000830184611cee565b92915050565b611d218161160b565b82525050565b6000602082019050611d3c6000830184611d18565b92915050565b611d4b81611649565b82525050565b6000602082019050611d666000830184611d42565b92915050565b600063ffffffff82169050919050565b611d8581611d6c565b8114611d9057600080fd5b50565b600081359050611da281611d7c565b92915050565b60006101608284031215611dbf57611dbe61191c565b5b611dc960806116fa565b90506000611dd98482850161166a565b6000830152506020611ded84828501611d93565b602083015250604082013567ffffffffffffffff811115611e1157611e10611921565b5b611e1d84828501611999565b6040830152506060611e3184828501611b2e565b60608301525092915050565b600060208284031215611e5357611e526115e1565b5b600082013567ffffffffffffffff811115611e7157611e706115e6565b5b611e7d84828501611da8565b91505092915050565b600082825260208201905092915050565b7f436f6e747261637420616c726561647920696e697469616c697a656400000000600082015250565b6000611ecd601c83611e86565b9150611ed882611e97565b602082019050919050565b60006020820190508181036000830152611efc81611ec0565b9050919050565b7f446f63756d656e7420646f65736e277420657869737400000000000000000000600082015250565b6000611f39601683611e86565b9150611f4482611f03565b602082019050919050565b60006020820190508181036000830152611f6881611f2c565b9050919050565b600060029050919050565b600081905092915050565b6000819050919050565b611f9881611649565b82525050565b6000611faa8383611f8f565b60208301905092915050565b6000602082019050919050565b611fcc81611f6f565b611fd68184611f7a565b9250611fe182611f85565b8060005b83811015612012578151611ff98782611f9e565b965061200483611fb6565b925050600181019050611fe5565b505050505050565b600060029050919050565b600081905092915050565b6000819050919050565b600081905092915050565b61204e81611f6f565b612058818461203a565b925061206382611f85565b8060005b8381101561209457815161207b8782611f9e565b965061208683611fb6565b925050600181019050612067565b505050505050565b60006120a88383612045565b60408301905092915050565b6000602082019050919050565b6120ca8161201a565b6120d48184612025565b92506120df82612030565b8060005b838110156121105781516120f7878261209c565b9650612102836120b4565b9250506001810190506120e3565b505050505050565b600060039050919050565b600081905092915050565b6000819050919050565b6000602082019050919050565b61214e81612118565b6121588184612123565b92506121638261212e565b8060005b8381101561219457815161217b8782611f9e565b965061218683612138565b925050600181019050612167565b505050505050565b6000610160820190506121b26000830187611fc3565b6121bf60408301866120c1565b6121cc60c0830185611fc3565b6121da610100830184612145565b95945050505050565b6121ec81611ce2565b81146121f757600080fd5b50565b600081519050612209816121e3565b92915050565b600060208284031215612225576122246115e1565b5b6000612233848285016121fa565b91505092915050565b7f496e76616c6964207061727469636970616e7420696e73657274000000000000600082015250565b6000612272601a83611e86565b915061227d8261223c565b602082019050919050565b600060208201905081810360008301526122a181612265565b9050919050565b600081519050919050565b60005b838110156122d15780820151818401526020810190506122b6565b60008484015250505050565b60006122e8826122a8565b6122f28185611e86565b93506123028185602086016122b3565b61230b81611689565b840191505092915050565b600060608201905061232b6000830186611d18565b6123386020830185611d42565b818103604083015261234a81846122dd565b9050949350505050565b7f69643d0000000000000000000000000000000000000000000000000000000000815250565b600081905092915050565b6000612390826122a8565b61239a818561237a565b93506123aa8185602086016122b3565b80840191505092915050565b60006123c182612354565b6003820191506123d18284612385565b915081905092915050565b600081905092915050565b6123f081611649565b82525050565b600061240283836123e7565b60208301905092915050565b61241781611f6f565b61242181846123dc565b925061242c82611f85565b8060005b8381101561245d57815161244487826123f6565b965061244f83611fb6565b925050600181019050612430565b505050505050565b600081905092915050565b600061247c838361240e565b60408301905092915050565b6124918161201a565b61249b8184612465565b92506124a682612030565b8060005b838110156124d75781516124be8782612470565b96506124c9836120b4565b9250506001810190506124aa565b505050505050565b610100820160008201516124f6600085018261240e565b5060208201516125096040850182612488565b50604082015161251c60c085018261240e565b50505050565b600061016082019050818103600083015261253d81876122dd565b905061254c6020830186611d42565b6125596040830185611d42565b61256660608301846124df565b95945050505050565b7f63616c6c6572206973206e6f74207468652061646d696e000000000000000000600082015250565b60006125a5601783611e86565b91506125b08261256f565b602082019050919050565b600060208201905081810360008301526125d481612598565b9050919050565b60006040820190506125f06000830185611d18565b818103602083015261260281846122dd565b90509392505050565b60008151905061261a81611653565b92915050565b600060208284031215612636576126356115e1565b5b60006126448482850161260b565b91505092915050565b7f6e65772061646d696e20697320746865207a65726f2061646472657373000000600082015250565b6000612683601d83611e86565b915061268e8261264d565b602082019050919050565b600060208201905081810360008301526126b281612676565b9050919050565b7f446f63756d656e74206578697374730000000000000000000000000000000000600082015250565b60006126ef600f83611e86565b91506126fa826126b9565b602082019050919050565b6000602082019050818103600083015261271e816126e2565b9050919050565b600060019050919050565b600081905092915050565b6000819050919050565b6000602082019050919050565b61275b81612725565b6127658184612730565b92506127708261273b565b8060005b838110156127a15781516127888782611f9e565b965061279383612745565b925050600181019050612774565b505050505050565b6000610120820190506127bf6000830187611fc3565b6127cc60408301866120c1565b6127d960c0830185611fc3565b6127e7610100830184612752565b95945050505050565b7f496e76616c696420646f63756d656e7420696400000000000000000000000000600082015250565b6000612826601383611e86565b9150612831826127f0565b602082019050919050565b6000602082019050818103600083015261285581612819565b9050919050565b6000610120820190506128726000830185611d42565b61287f60208301846124df565b9392505050565b7f2c00000000000000000000000000000000000000000000000000000000000000815250565b60006128b88289612385565b91506128c382612886565b6001820191506128d38288612385565b91506128de82612886565b6001820191506128ee8287612385565b91506128f982612886565b6001820191506129098286612385565b915061291482612886565b6001820191506129248285612385565b915061292f82612886565b60018201915061293f8284612385565b9150819050979650505050505050565b7f494e5345525420494e544f200000000000000000000000000000000000000000600082015250565b6000612985600c8361237a565b91506129908261294f565b600c82019050919050565b7f2800000000000000000000000000000000000000000000000000000000000000600082015250565b60006129d160018361237a565b91506129dc8261299b565b600182019050919050565b7f2956414c55455328000000000000000000000000000000000000000000000000600082015250565b6000612a1d60088361237a565b9150612a28826129e7565b600882019050919050565b7f2900000000000000000000000000000000000000000000000000000000000000600082015250565b6000612a6960018361237a565b9150612a7482612a33565b600182019050919050565b6000612a8a82612978565b9150612a968286612385565b9150612aa1826129c4565b9150612aad8285612385565b9150612ab882612a10565b9150612ac48284612385565b9150612acf82612a5c565b9150819050949350505050565b7f4e487b7100000000000000000000000000000000000000000000000000000000600052601260045260246000fd5b7f2700000000000000000000000000000000000000000000000000000000000000600082015250565b6000612b4160018361237a565b9150612b4c82612b0b565b600182019050919050565b6000612b6282612b34565b9150612b6e8284612385565b9150612b7982612b34565b915081905092915050565b7f2057484552452000000000000000000000000000000000000000000000000000600082015250565b6000612bba60078361237a565b9150612bc582612b84565b600782019050919050565b6000612bdb82612bad565b9150612be78284612385565b915081905092915050565b7f5550444154452000000000000000000000000000000000000000000000000000600082015250565b6000612c2860078361237a565b9150612c3382612bf2565b600782019050919050565b7f2053455420000000000000000000000000000000000000000000000000000000600082015250565b6000612c7460058361237a565b9150612c7f82612c3e565b600582019050919050565b6000612c9582612c1b565b9150612ca18286612385565b9150612cac82612c67565b9150612cb88285612385565b9150612cc48284612385565b9150819050949350505050565b7f435245415445205441424c452000000000000000000000000000000000000000600082015250565b6000612d07600d8361237a565b9150612d1282612cd1565b600d82019050919050565b7f5f00000000000000000000000000000000000000000000000000000000000000600082015250565b6000612d5360018361237a565b9150612d5e82612d1d565b600182019050919050565b6000612d7482612cfa565b9150612d808286612385565b9150612d8b82612d46565b9150612d978285612385565b9150612da2826129c4565b9150612dae8284612385565b9150612db982612a5c565b9150819050949350505050565b7f4e487b7100000000000000000000000000000000000000000000000000000000600052603260045260246000fd5b6000612e01828b612385565b9150612e0c82612886565b600182019150612e1c828a612385565b9150612e2782612886565b600182019150612e378289612385565b9150612e4282612886565b600182019150612e528288612385565b9150612e5d82612886565b600182019150612e6d8287612385565b9150612e7882612886565b600182019150612e888286612385565b9150612e9382612886565b600182019150612ea38285612385565b9150612eae82612886565b600182019150612ebe8284612385565b91508190509998505050505050505050565b6000612edc8286612385565b9150612ee782612d46565b9150612ef38285612385565b9150612efe82612d46565b9150612f0a8284612385565b915081905094935050505056fe696420696e7465676572207072696d617279206b65792c646f63756d656e74496420746578742c76657269666965645061727469636970616e7420746578742c656e637279707465645061727469636970616e7443494420746578742c736d74526f6f7420746578742c6e6f6e636520746578742c7a6b70413020746578742c7a6b70413120746578742c7a6b7042303020746578742c7a6b7042303120746578742c7a6b7042313020746578742c7a6b7042313120746578742c7a6b70433020746578742c7a6b7043312074657874746f74616c5061727469636970616e74436f756e743d746f74616c5061727469636970616e74436f756e74202b20312c20737461747573203d2043415345205748454e2065787065637465645061727469636970616e74436f756e74203c3d20746f74616c5061727469636970616e74436f756e74202b2031205448454e2027636f6d706c6574652720454c5345202770656e64696e672720454e4469642c7374617475732c65787065637465645061727469636970616e74436f756e742c746f74616c5061727469636970616e74436f756e742c656e6372797074656444657461696c734349442c7a6b7041302c7a6b7041312c7a6b704230302c7a6b704230312c7a6b704231302c7a6b704231312c7a6b7043302c7a6b704331696420746578742c73746174757320746578742c65787065637465645061727469636970616e74436f756e7420696e74656765722c746f74616c5061727469636970616e74436f756e7420696e74656765722c656e6372797074656444657461696c7343494420746578742c7a6b70413020746578742c7a6b70413120746578742c7a6b7042303020746578742c7a6b7042303120746578742c7a6b7042313020746578742c7a6b7042313120746578742c7a6b70433020746578742c7a6b7043312074657874646f63756d656e7449642c76657269666965645061727469636970616e742c656e637279707465645061727469636970616e744349442c736d74526f6f742c6e6f6e63652c7a6b7041302c7a6b7041312c7a6b704230302c7a6b704230312c7a6b704231302c7a6b704231312c7a6b7043302c7a6b704331a2646970667358221220afcf4e31a07cd954b38f2f5bccb9e240b6eafc9b667543c12895ac5b9f9fb40b64736f6c63430008120033",
  "libraries": {
    "ValidDocumentId": "0x17660F2fF2D313726E876fe1EE4772d8b9F32F3b",
    "ValidDocumentParticipantInsert": "0xb8888Ae9480A459c6b9c5668AC3ED8B3D0D33959"
  },
  "devdoc": {
    "kind": "dev",
    "methods": {
      "onERC721Received(address,address,uint256,bytes)": {
        "details": "See {IERC721Receiver-onERC721Received}. Always returns `IERC721Receiver.onERC721Received.selector`."
      }
    },
    "version": 1
  },
  "userdoc": {
    "errors": {
      "ChainNotSupported(uint256)": [
        {
          "notice": "Current chain does not have a TablelandTables deployment."
        }
      ]
    },
    "kind": "user",
    "methods": {},
    "version": 1
  },
  "storageLayout": {
    "storage": [
      {
        "astId": 2485,
        "contract": "contracts/ZKDocument.sol:ZKDocument",
        "label": "_admin",
        "offset": 0,
        "slot": "0",
        "type": "t_address"
      },
      {
        "astId": 2490,
        "contract": "contracts/ZKDocument.sol:ZKDocument",
        "label": "documents",
        "offset": 0,
        "slot": "1",
        "type": "t_mapping(t_uint256,t_struct(Document)2483_storage)"
      },
      {
        "astId": 2492,
        "contract": "contracts/ZKDocument.sol:ZKDocument",
        "label": "_documentsTableId",
        "offset": 0,
        "slot": "2",
        "type": "t_uint256"
      },
      {
        "astId": 2494,
        "contract": "contracts/ZKDocument.sol:ZKDocument",
        "label": "_auditLogTableId",
        "offset": 0,
        "slot": "3",
        "type": "t_uint256"
      }
    ],
    "types": {
      "t_address": {
        "encoding": "inplace",
        "label": "address",
        "numberOfBytes": "20"
      },
      "t_bool": {
        "encoding": "inplace",
        "label": "bool",
        "numberOfBytes": "1"
      },
      "t_mapping(t_uint256,t_struct(Document)2483_storage)": {
        "encoding": "mapping",
        "key": "t_uint256",
        "label": "mapping(uint256 => struct ZKDocument.Document)",
        "numberOfBytes": "32",
        "value": "t_struct(Document)2483_storage"
      },
      "t_struct(Document)2483_storage": {
        "encoding": "inplace",
        "label": "struct ZKDocument.Document",
        "members": [
          {
            "astId": 2480,
            "contract": "contracts/ZKDocument.sol:ZKDocument",
            "label": "participantsRoot",
            "offset": 0,
            "slot": "0",
            "type": "t_uint256"
          },
          {
            "astId": 2482,
            "contract": "contracts/ZKDocument.sol:ZKDocument",
            "label": "initialized",
            "offset": 0,
            "slot": "1",
            "type": "t_bool"
          }
        ],
        "numberOfBytes": "64"
      },
      "t_uint256": {
        "encoding": "inplace",
        "label": "uint256",
        "numberOfBytes": "32"
      }
    }
  }
}