{
  "address": "0xB276F6A5E7302F4d9e68933fA0260e96206FBE18",
  "abi": [
    {
      "inputs": [
        {
          "internalType": "contract MinimalForwarder",
          "name": "forwarder",
          "type": "address"
        }
      ],
      "stateMutability": "nonpayable",
      "type": "constructor"
    },
    {
      "inputs": [
        {
          "internalType": "uint256",
          "name": "chainid",
          "type": "uint256"
        }
      ],
      "name": "ChainNotSupported",
      "type": "error"
    },
    {
      "anonymous": false,
      "inputs": [
        {
          "indexed": true,
          "internalType": "address",
          "name": "from",
          "type": "address"
        },
        {
          "indexed": false,
          "internalType": "uint256",
          "name": "documentId",
          "type": "uint256"
        },
        {
          "components": [
            {
              "internalType": "uint256[2]",
              "name": "a",
              "type": "uint256[2]"
            },
            {
              "internalType": "uint256[2][2]",
              "name": "b",
              "type": "uint256[2][2]"
            },
            {
              "internalType": "uint256[2]",
              "name": "c",
              "type": "uint256[2]"
            }
          ],
          "indexed": false,
          "internalType": "struct ZKDocumentTypes.ZKProof",
          "name": "proof",
          "type": "tuple"
        }
      ],
      "name": "CreateDocument",
      "type": "event"
    },
    {
      "anonymous": false,
      "inputs": [
        {
          "indexed": true,
          "internalType": "uint256",
          "name": "documentId",
          "type": "uint256"
        },
        {
          "indexed": false,
          "internalType": "string",
          "name": "verifiedParticipant",
          "type": "string"
        },
        {
          "indexed": false,
          "internalType": "uint256",
          "name": "oldRoot",
          "type": "uint256"
        },
        {
          "indexed": false,
          "internalType": "uint256",
          "name": "newRoot",
          "type": "uint256"
        },
        {
          "components": [
            {
              "internalType": "uint256[2]",
              "name": "a",
              "type": "uint256[2]"
            },
            {
              "internalType": "uint256[2][2]",
              "name": "b",
              "type": "uint256[2][2]"
            },
            {
              "internalType": "uint256[2]",
              "name": "c",
              "type": "uint256[2]"
            }
          ],
          "indexed": false,
          "internalType": "struct ZKDocumentTypes.ZKProof",
          "name": "proof",
          "type": "tuple"
        }
      ],
      "name": "NewDocumentParticipant",
      "type": "event"
    },
    {
      "inputs": [
        {
          "components": [
            {
              "internalType": "uint256",
              "name": "documentId",
              "type": "uint256"
            },
            {
              "internalType": "string",
              "name": "verifiedParticipant",
              "type": "string"
            },
            {
              "internalType": "string",
              "name": "encryptedParticipantCID",
              "type": "string"
            },
            {
              "internalType": "uint256",
              "name": "root",
              "type": "uint256"
            },
            {
              "internalType": "uint256",
              "name": "nonce",
              "type": "uint256"
            },
            {
              "components": [
                {
                  "internalType": "uint256[2]",
                  "name": "a",
                  "type": "uint256[2]"
                },
                {
                  "internalType": "uint256[2][2]",
                  "name": "b",
                  "type": "uint256[2][2]"
                },
                {
                  "internalType": "uint256[2]",
                  "name": "c",
                  "type": "uint256[2]"
                }
              ],
              "internalType": "struct ZKDocumentTypes.ZKProof",
              "name": "proof",
              "type": "tuple"
            }
          ],
          "internalType": "struct ZKDocumentTypes.AddDocumentParticipantParams",
          "name": "params",
          "type": "tuple"
        }
      ],
      "name": "addDocumentParticipant",
      "outputs": [],
      "stateMutability": "nonpayable",
      "type": "function"
    },
    {
      "inputs": [
        {
          "components": [
            {
              "internalType": "uint256",
              "name": "documentId",
              "type": "uint256"
            },
            {
              "internalType": "uint256",
              "name": "expectedParticipantCount",
              "type": "uint256"
            },
            {
              "internalType": "string",
              "name": "encryptedDetailsCID",
              "type": "string"
            },
            {
              "components": [
                {
                  "internalType": "uint256[2]",
                  "name": "a",
                  "type": "uint256[2]"
                },
                {
                  "internalType": "uint256[2][2]",
                  "name": "b",
                  "type": "uint256[2][2]"
                },
                {
                  "internalType": "uint256[2]",
                  "name": "c",
                  "type": "uint256[2]"
                }
              ],
              "internalType": "struct ZKDocumentTypes.ZKProof",
              "name": "proof",
              "type": "tuple"
            }
          ],
          "internalType": "struct ZKDocumentTypes.CreateDocumentParams",
          "name": "params",
          "type": "tuple"
        }
      ],
      "name": "createDocument",
      "outputs": [],
      "stateMutability": "nonpayable",
      "type": "function"
    },
    {
      "inputs": [],
      "name": "getAdmin",
      "outputs": [
        {
          "internalType": "address",
          "name": "",
          "type": "address"
        }
      ],
      "stateMutability": "view",
      "type": "function"
    },
    {
      "inputs": [],
      "name": "getAuditLogTableId",
      "outputs": [
        {
          "internalType": "uint256",
          "name": "",
          "type": "uint256"
        }
      ],
      "stateMutability": "view",
      "type": "function"
    },
    {
      "inputs": [],
      "name": "getDocumentsTableId",
      "outputs": [
        {
          "internalType": "uint256",
          "name": "",
          "type": "uint256"
        }
      ],
      "stateMutability": "view",
      "type": "function"
    },
    {
      "inputs": [
        {
          "internalType": "contract MinimalForwarder",
          "name": "forwarder",
          "type": "address"
        },
        {
          "internalType": "address",
          "name": "admin",
          "type": "address"
        }
      ],
      "name": "initialize",
      "outputs": [],
      "stateMutability": "nonpayable",
      "type": "function"
    },
    {
      "inputs": [
        {
          "internalType": "address",
          "name": "forwarder",
          "type": "address"
        }
      ],
      "name": "isTrustedForwarder",
      "outputs": [
        {
          "internalType": "bool",
          "name": "",
          "type": "bool"
        }
      ],
      "stateMutability": "view",
      "type": "function"
    },
    {
      "inputs": [
        {
          "internalType": "address",
          "name": "",
          "type": "address"
        },
        {
          "internalType": "address",
          "name": "",
          "type": "address"
        },
        {
          "internalType": "uint256",
          "name": "",
          "type": "uint256"
        },
        {
          "internalType": "bytes",
          "name": "",
          "type": "bytes"
        }
      ],
      "name": "onERC721Received",
      "outputs": [
        {
          "internalType": "bytes4",
          "name": "",
          "type": "bytes4"
        }
      ],
      "stateMutability": "nonpayable",
      "type": "function"
    },
    {
      "inputs": [],
      "name": "setupTables",
      "outputs": [],
      "stateMutability": "nonpayable",
      "type": "function"
    },
    {
      "inputs": [
        {
          "internalType": "address",
          "name": "newAdmin",
          "type": "address"
        }
      ],
      "name": "transferAdmin",
      "outputs": [],
      "stateMutability": "nonpayable",
      "type": "function"
    }
  ],
  "transactionHash": "0x17f4603c87d7d2e9ee0af5fedad795dc0a0671898210658f51289463f3c494be",
  "args": [
    "0x9c66b91cFF4855dDf693889335ACBB0564ea19B8"
  ],
  "numDeployments": 14,
  "solcInputHash": "b13ed518f02d055bbee6d03d7cd2fa23",
  "bytecode": "0x60a06040523480156200001157600080fd5b506040516200305d3803806200305d8339818101604052810190620000379190620000f2565b808073ffffffffffffffffffffffffffffffffffffffff1660808173ffffffffffffffffffffffffffffffffffffffff1681525050505062000124565b600080fd5b600073ffffffffffffffffffffffffffffffffffffffff82169050919050565b6000620000a68262000079565b9050919050565b6000620000ba8262000099565b9050919050565b620000cc81620000ad565b8114620000d857600080fd5b50565b600081519050620000ec81620000c1565b92915050565b6000602082840312156200010b576200010a62000074565b5b60006200011b84828501620000db565b91505092915050565b608051612f1d6200014060003960006108200152612f1d6000f3fe608060405234801561001057600080fd5b506004361061009e5760003560e01c806357854dc21161006657806357854dc2146101575780636e9960c31461016157806375829def1461017f578063926d1d211461019b578063cbd69e7e146101b95761009e565b8063150b7a02146100a35780631c7834fc146100d3578063485cc955146100ef5780634d97eca21461010b578063572b6c0514610127575b600080fd5b6100bd60048036038101906100b89190611610565b6101d7565b6040516100ca91906116ce565b60405180910390f35b6100ed60048036038101906100e891906119f5565b6101eb565b005b61010960048036038101906101049190611a7c565b61049f565b005b61012560048036038101906101209190611b95565b610572565b005b610141600480360381019061013c9190611bde565b61081c565b60405161014e9190611c26565b60405180910390f35b61015f610874565b005b610169610acf565b6040516101769190611c50565b60405180910390f35b61019960048036038101906101949190611bde565b610af8565b005b6101a3610c3f565b6040516101b09190611c7a565b60405180910390f35b6101c1610c49565b6040516101ce9190611c7a565b60405180910390f35b600063150b7a0260e01b9050949350505050565b6000600160008360000151815260200190815260200160002090508060010160009054906101000a900460ff1615610258576040517f08c379a000000000000000000000000000000000000000000000000000000000815260040161024f90611cf2565b60405180910390fd5b600073c76B836b2489E65BF7F7593E725D333b086E63416343753b4d846060015160000151856060015160200151866060015160400151604051806020016040528089600001518152506040518563ffffffff1660e01b81526004016102c19493929190611f3f565b602060405180830381865af41580156102de573d6000803e3d6000fd5b505050506040513d601f19601f820116820180604052508101906103029190611fb2565b905080610344576040517f08c379a000000000000000000000000000000000000000000000000000000000815260040161033b9061202b565b60405180910390fd5b60018260010160006101000a81548160ff021916908315150217905550610369610c53565b73ffffffffffffffffffffffffffffffffffffffff1663eaf5d04e306002546103eb6040518060400160405280600c81526020017f7a6b5f646f63756d656e747300000000000000000000000000000000000000008152506002546040518060a0016040528060808152602001612c59608091396103e68b610dbb565b610e61565b6040518463ffffffff1660e01b8152600401610409939291906120b9565b600060405180830381600087803b15801561042357600080fd5b505af1158015610437573d6000803e3d6000fd5b50505050610443610ea0565b73ffffffffffffffffffffffffffffffffffffffff167fd2d44372492e8082b0303e3732cb5934ba9708de7c0b1889fa95c61b4573821a8460000151856060015160405161049292919061223d565b60405180910390a2505050565b600073ffffffffffffffffffffffffffffffffffffffff1660008054906101000a900473ffffffffffffffffffffffffffffffffffffffff1673ffffffffffffffffffffffffffffffffffffffff161461052e576040517f08c379a0000000000000000000000000000000000000000000000000000000008152600401610525906122b3565b60405180910390fd5b806000806101000a81548173ffffffffffffffffffffffffffffffffffffffff021916908373ffffffffffffffffffffffffffffffffffffffff1602179055505050565b6000600160008360000151815260200190815260200160002090508060010160009054906101000a900460ff166105de576040517f08c379a00000000000000000000000000000000000000000000000000000000081526004016105d59061231f565b60405180910390fd5b600073a295b447f30b3c947CAD05eB09aBDf7D3AdA905F6311479fea8460a00151600001518560a00151602001518660a00151604001516040518060600160405280896000015181526020018860000154815260200189606001518152506040518563ffffffff1660e01b815260040161065b94939291906123c3565b602060405180830381865af4158015610678573d6000803e3d6000fd5b505050506040513d601f19601f8201168201806040525081019061069c9190611fb2565b9050806106de576040517f08c379a00000000000000000000000000000000000000000000000000000000081526004016106d590612456565b60405180910390fd5b6106e6610c53565b73ffffffffffffffffffffffffffffffffffffffff1663eaf5d04e306003546107686040518060400160405280600e81526020017f7a6b5f61756469745f747261696c0000000000000000000000000000000000008152506003546040518060a0016040528060788152602001612e70607891396107638b610ed2565b610e61565b6040518463ffffffff1660e01b8152600401610786939291906120b9565b600060405180830381600087803b1580156107a057600080fd5b505af11580156107b4573d6000803e3d6000fd5b505050508260600151826000018190555082600001517f101a3586b0457a0e49ba0be2b4a908c0399b3106c4a357ecc0edf34ef6cde8ba8460200151846000015486606001518760a0015160405161080f9493929190612476565b60405180910390a2505050565b60007f000000000000000000000000000000000000000000000000000000000000000073ffffffffffffffffffffffffffffffffffffffff168273ffffffffffffffffffffffffffffffffffffffff16149050919050565b61087c610ea0565b73ffffffffffffffffffffffffffffffffffffffff1660008054906101000a900473ffffffffffffffffffffffffffffffffffffffff1673ffffffffffffffffffffffffffffffffffffffff1614610909576040517f08c379a00000000000000000000000000000000000000000000000000000000081526004016109009061250f565b60405180910390fd5b610911610c53565b73ffffffffffffffffffffffffffffffffffffffff16633a9151b03061098560405180610100016040528060c78152602001612da960c791396040518060400160405280600c81526020017f7a6b5f646f63756d656e74730000000000000000000000000000000000000000815250610f65565b6040518363ffffffff1660e01b81526004016109a292919061252f565b6020604051808303816000875af11580156109c1573d6000803e3d6000fd5b505050506040513d601f19601f820116820180604052508101906109e59190612574565b6002819055506109f3610c53565b73ffffffffffffffffffffffffffffffffffffffff16633a9151b030610a6760405180610100016040528060d08152602001612cd960d091396040518060400160405280600e81526020017f7a6b5f61756469745f747261696c000000000000000000000000000000000000815250610f65565b6040518363ffffffff1660e01b8152600401610a8492919061252f565b6020604051808303816000875af1158015610aa3573d6000803e3d6000fd5b505050506040513d601f19601f82011682018060405250810190610ac79190612574565b600381905550565b60008060009054906101000a900473ffffffffffffffffffffffffffffffffffffffff16905090565b610b00610ea0565b73ffffffffffffffffffffffffffffffffffffffff1660008054906101000a900473ffffffffffffffffffffffffffffffffffffffff1673ffffffffffffffffffffffffffffffffffffffff1614610b8d576040517f08c379a0000000000000000000000000000000000000000000000000000000008152600401610b849061250f565b60405180910390fd5b600073ffffffffffffffffffffffffffffffffffffffff168173ffffffffffffffffffffffffffffffffffffffff1603610bfc576040517f08c379a0000000000000000000000000000000000000000000000000000000008152600401610bf3906125ed565b60405180910390fd5b806000806101000a81548173ffffffffffffffffffffffffffffffffffffffff021916908373ffffffffffffffffffffffffffffffffffffffff16021790555050565b6000600254905090565b6000600354905090565b600060014603610c795773012969f7e3439a9b04025b5a049eb9bad82a8c129050610db8565b600a4603610c9d5773fad44bf5b843de943a09d4f3e84949a11d3aa3e69050610db8565b60894603610cc157735c4e6a9e5c1e1bf445a062006faf19ea6c49afea9050610db8565b60054603610ce55773da8ea22d092307874f30a1f277d1388dca0ba97a9050610db8565b6101a44603610d0a5773c72e8a7be04f2469f8c2db3f1bdf69a7d516abba9050610db8565b62066eed4603610d305773033f69e8d119205089ab15d340f5b797732f646b9050610db8565b620138814603610d5657734b48841d4b32c4650e4abc117a03fe8b51f38f689050610db8565b617a694603610d7b5773e7f1725e7734ce288f8367e1bb143e90bb3f05129050610db8565b466040517f264e42cf000000000000000000000000000000000000000000000000000000008152600401610daf9190611c7a565b60405180910390fd5b90565b6060610dd2610dcd8360000151610f9b565b611069565b610e106040518060400160405280600781526020017f70656e64696e6700000000000000000000000000000000000000000000000000815250611069565b610e1d8460200151610f9b565b610e2a8560400151611069565b610e378660600151611092565b604051602001610e4b959493929190612695565b6040516020818303038152906040529050919050565b60606000610e6f8686611289565b9050808484604051602001610e869392919061286a565b604051602081830303815290604052915050949350505050565b6000610eab3361081c565b15610ebf57601436033560601c9050610ece565b610ec76112c7565b9050610ecf565b5b90565b6060610ee9610ee48360000151610f9b565b611069565b610ef68360200151611069565b610f038460400151611069565b610f18610f138660600151610f9b565b611069565b610f2d610f288760800151610f9b565b611069565b610f3a8760a00151611092565b604051602001610f4f969594939291906128c7565b6040516020818303038152906040529050919050565b606081610f7146610f9b565b84604051602001610f8493929190612a02565b604051602081830303815290604052905092915050565b606060006001610faa846112cf565b01905060008167ffffffffffffffff811115610fc957610fc86114e5565b5b6040519080825280601f01601f191660200182016040528015610ffb5781602001600182028036833780820191505090505b509050600082602001820190505b60011561105e578080600190039150507f3031323334353637383961626364656600000000000000000000000000000000600a86061a8153600a858161105257611051612a5f565b5b04945060008503611009575b819350505050919050565b60608160405160200161107c9190612ada565b6040516020818303038152906040529050919050565b60606110c16110bc83600001516000600281106110b2576110b1612b07565b5b6020020151610f9b565b611069565b6110ee6110e984600001516001600281106110df576110de612b07565b5b6020020151610f9b565b611069565b61113361112e856020015160006002811061110c5761110b612b07565b5b602002015160006002811061112457611123612b07565b5b6020020151610f9b565b611069565b611178611173866020015160006002811061115157611150612b07565b5b602002015160016002811061116957611168612b07565b5b6020020151610f9b565b611069565b6111bd6111b8876020015160016002811061119657611195612b07565b5b60200201516000600281106111ae576111ad612b07565b5b6020020151610f9b565b611069565b6112026111fd88602001516001600281106111db576111da612b07565b5b60200201516001600281106111f3576111f2612b07565b5b6020020151610f9b565b611069565b61122f61122a89604001516000600281106112205761121f612b07565b5b6020020151610f9b565b611069565b61125c6112578a6040015160016002811061124d5761124c612b07565b5b6020020151610f9b565b611069565b604051602001611273989796959493929190612b36565b6040516020818303038152906040529050919050565b60608261129546610f9b565b61129e84610f9b565b6040516020016112b093929190612c11565b604051602081830303815290604052905092915050565b600033905090565b600080600090507a184f03e93ff9f4daa797ed6e38ed64bf6a1f010000000000000000831061132d577a184f03e93ff9f4daa797ed6e38ed64bf6a1f010000000000000000838161132357611322612a5f565b5b0492506040810190505b6d04ee2d6d415b85acef8100000000831061136a576d04ee2d6d415b85acef810000000083816113605761135f612a5f565b5b0492506020810190505b662386f26fc10000831061139957662386f26fc10000838161138f5761138e612a5f565b5b0492506010810190505b6305f5e10083106113c2576305f5e10083816113b8576113b7612a5f565b5b0492506008810190505b61271083106113e75761271083816113dd576113dc612a5f565b5b0492506004810190505b6064831061140a5760648381611400576113ff612a5f565b5b0492506002810190505b600a8310611419576001810190505b80915050919050565b6000604051905090565b600080fd5b600080fd5b600073ffffffffffffffffffffffffffffffffffffffff82169050919050565b600061146182611436565b9050919050565b61147181611456565b811461147c57600080fd5b50565b60008135905061148e81611468565b92915050565b6000819050919050565b6114a781611494565b81146114b257600080fd5b50565b6000813590506114c48161149e565b92915050565b600080fd5b600080fd5b6000601f19601f8301169050919050565b7f4e487b7100000000000000000000000000000000000000000000000000000000600052604160045260246000fd5b61151d826114d4565b810181811067ffffffffffffffff8211171561153c5761153b6114e5565b5b80604052505050565b600061154f611422565b905061155b8282611514565b919050565b600067ffffffffffffffff82111561157b5761157a6114e5565b5b611584826114d4565b9050602081019050919050565b82818337600083830152505050565b60006115b36115ae84611560565b611545565b9050828152602081018484840111156115cf576115ce6114cf565b5b6115da848285611591565b509392505050565b600082601f8301126115f7576115f66114ca565b5b81356116078482602086016115a0565b91505092915050565b6000806000806080858703121561162a5761162961142c565b5b60006116388782880161147f565b94505060206116498782880161147f565b935050604061165a878288016114b5565b925050606085013567ffffffffffffffff81111561167b5761167a611431565b5b611687878288016115e2565b91505092959194509250565b60007fffffffff0000000000000000000000000000000000000000000000000000000082169050919050565b6116c881611693565b82525050565b60006020820190506116e360008301846116bf565b92915050565b600080fd5b600080fd5b600067ffffffffffffffff82111561170e5761170d6114e5565b5b611717826114d4565b9050602081019050919050565b6000611737611732846116f3565b611545565b905082815260208101848484011115611753576117526114cf565b5b61175e848285611591565b509392505050565b600082601f83011261177b5761177a6114ca565b5b813561178b848260208601611724565b91505092915050565b600067ffffffffffffffff8211156117af576117ae6114e5565b5b602082029050919050565b600080fd5b60006117d26117cd84611794565b611545565b905080602084028301858111156117ec576117eb6117ba565b5b835b81811015611815578061180188826114b5565b8452602084019350506020810190506117ee565b5050509392505050565b600082601f830112611834576118336114ca565b5b60026118418482856117bf565b91505092915050565b600067ffffffffffffffff821115611865576118646114e5565b5b602082029050919050565b600061188361187e8461184a565b611545565b9050806040840283018581111561189d5761189c6117ba565b5b835b818110156118c657806118b2888261181f565b84526020840193505060408101905061189f565b5050509392505050565b600082601f8301126118e5576118e46114ca565b5b60026118f2848285611870565b91505092915050565b60006101008284031215611912576119116116e9565b5b61191c6060611545565b9050600061192c8482850161181f565b6000830152506040611940848285016118d0565b60208301525060c06119548482850161181f565b60408301525092915050565b60006101608284031215611977576119766116e9565b5b6119816080611545565b90506000611991848285016114b5565b60008301525060206119a5848285016114b5565b602083015250604082013567ffffffffffffffff8111156119c9576119c86116ee565b5b6119d584828501611766565b60408301525060606119e9848285016118fb565b60608301525092915050565b600060208284031215611a0b57611a0a61142c565b5b600082013567ffffffffffffffff811115611a2957611a28611431565b5b611a3584828501611960565b91505092915050565b6000611a4982611456565b9050919050565b611a5981611a3e565b8114611a6457600080fd5b50565b600081359050611a7681611a50565b92915050565b60008060408385031215611a9357611a9261142c565b5b6000611aa185828601611a67565b9250506020611ab28582860161147f565b9150509250929050565b60006101a08284031215611ad357611ad26116e9565b5b611add60c0611545565b90506000611aed848285016114b5565b600083015250602082013567ffffffffffffffff811115611b1157611b106116ee565b5b611b1d84828501611766565b602083015250604082013567ffffffffffffffff811115611b4157611b406116ee565b5b611b4d84828501611766565b6040830152506060611b61848285016114b5565b6060830152506080611b75848285016114b5565b60808301525060a0611b89848285016118fb565b60a08301525092915050565b600060208284031215611bab57611baa61142c565b5b600082013567ffffffffffffffff811115611bc957611bc8611431565b5b611bd584828501611abc565b91505092915050565b600060208284031215611bf457611bf361142c565b5b6000611c028482850161147f565b91505092915050565b60008115159050919050565b611c2081611c0b565b82525050565b6000602082019050611c3b6000830184611c17565b92915050565b611c4a81611456565b82525050565b6000602082019050611c656000830184611c41565b92915050565b611c7481611494565b82525050565b6000602082019050611c8f6000830184611c6b565b92915050565b600082825260208201905092915050565b7f446f63756d656e74206578697374730000000000000000000000000000000000600082015250565b6000611cdc600f83611c95565b9150611ce782611ca6565b602082019050919050565b60006020820190508181036000830152611d0b81611ccf565b9050919050565b600060029050919050565b600081905092915050565b6000819050919050565b611d3b81611494565b82525050565b6000611d4d8383611d32565b60208301905092915050565b6000602082019050919050565b611d6f81611d12565b611d798184611d1d565b9250611d8482611d28565b8060005b83811015611db5578151611d9c8782611d41565b9650611da783611d59565b925050600181019050611d88565b505050505050565b600060029050919050565b600081905092915050565b6000819050919050565b600081905092915050565b611df181611d12565b611dfb8184611ddd565b9250611e0682611d28565b8060005b83811015611e37578151611e1e8782611d41565b9650611e2983611d59565b925050600181019050611e0a565b505050505050565b6000611e4b8383611de8565b60408301905092915050565b6000602082019050919050565b611e6d81611dbd565b611e778184611dc8565b9250611e8282611dd3565b8060005b83811015611eb3578151611e9a8782611e3f565b9650611ea583611e57565b925050600181019050611e86565b505050505050565b600060019050919050565b600081905092915050565b6000819050919050565b6000602082019050919050565b611ef181611ebb565b611efb8184611ec6565b9250611f0682611ed1565b8060005b83811015611f37578151611f1e8782611d41565b9650611f2983611edb565b925050600181019050611f0a565b505050505050565b600061012082019050611f556000830187611d66565b611f626040830186611e64565b611f6f60c0830185611d66565b611f7d610100830184611ee8565b95945050505050565b611f8f81611c0b565b8114611f9a57600080fd5b50565b600081519050611fac81611f86565b92915050565b600060208284031215611fc857611fc761142c565b5b6000611fd684828501611f9d565b91505092915050565b7f496e76616c696420646f63756d656e7420696400000000000000000000000000600082015250565b6000612015601383611c95565b915061202082611fdf565b602082019050919050565b6000602082019050818103600083015261204481612008565b9050919050565b600081519050919050565b60005b83811015612074578082015181840152602081019050612059565b60008484015250505050565b600061208b8261204b565b6120958185611c95565b93506120a5818560208601612056565b6120ae816114d4565b840191505092915050565b60006060820190506120ce6000830186611c41565b6120db6020830185611c6b565b81810360408301526120ed8184612080565b9050949350505050565b600081905092915050565b61210b81611494565b82525050565b600061211d8383612102565b60208301905092915050565b61213281611d12565b61213c81846120f7565b925061214782611d28565b8060005b8381101561217857815161215f8782612111565b965061216a83611d59565b92505060018101905061214b565b505050505050565b600081905092915050565b60006121978383612129565b60408301905092915050565b6121ac81611dbd565b6121b68184612180565b92506121c182611dd3565b8060005b838110156121f25781516121d9878261218b565b96506121e483611e57565b9250506001810190506121c5565b505050505050565b610100820160008201516122116000850182612129565b50602082015161222460408501826121a3565b50604082015161223760c0850182612129565b50505050565b6000610120820190506122536000830185611c6b565b61226060208301846121fa565b9392505050565b7f436f6e747261637420616c726561647920696e697469616c697a656400000000600082015250565b600061229d601c83611c95565b91506122a882612267565b602082019050919050565b600060208201905081810360008301526122cc81612290565b9050919050565b7f446f63756d656e7420646f65736e277420657869737400000000000000000000600082015250565b6000612309601683611c95565b9150612314826122d3565b602082019050919050565b60006020820190508181036000830152612338816122fc565b9050919050565b600060039050919050565b600081905092915050565b6000819050919050565b6000602082019050919050565b6123758161233f565b61237f818461234a565b925061238a82612355565b8060005b838110156123bb5781516123a28782611d41565b96506123ad8361235f565b92505060018101905061238e565b505050505050565b6000610160820190506123d96000830187611d66565b6123e66040830186611e64565b6123f360c0830185611d66565b61240161010083018461236c565b95945050505050565b7f496e76616c6964207061727469636970616e7420696e73657274000000000000600082015250565b6000612440601a83611c95565b915061244b8261240a565b602082019050919050565b6000602082019050818103600083015261246f81612433565b9050919050565b60006101608201905081810360008301526124918187612080565b90506124a06020830186611c6b565b6124ad6040830185611c6b565b6124ba60608301846121fa565b95945050505050565b7f63616c6c6572206973206e6f74207468652061646d696e000000000000000000600082015250565b60006124f9601783611c95565b9150612504826124c3565b602082019050919050565b60006020820190508181036000830152612528816124ec565b9050919050565b60006040820190506125446000830185611c41565b81810360208301526125568184612080565b90509392505050565b60008151905061256e8161149e565b92915050565b60006020828403121561258a5761258961142c565b5b60006125988482850161255f565b91505092915050565b7f6e65772061646d696e20697320746865207a65726f2061646472657373000000600082015250565b60006125d7601d83611c95565b91506125e2826125a1565b602082019050919050565b60006020820190508181036000830152612606816125ca565b9050919050565b600081905092915050565b60006126238261204b565b61262d818561260d565b935061263d818560208601612056565b80840191505092915050565b7f2c00000000000000000000000000000000000000000000000000000000000000815250565b7f3000000000000000000000000000000000000000000000000000000000000000815250565b60006126a18288612618565b91506126ac82612649565b6001820191506126bc8287612618565b91506126c782612649565b6001820191506126d78286612618565b91506126e282612649565b6001820191506126f18261266f565b60018201915061270082612649565b6001820191506127108285612618565b915061271b82612649565b60018201915061272b8284612618565b91508190509695505050505050565b7f494e5345525420494e544f200000000000000000000000000000000000000000600082015250565b6000612770600c8361260d565b915061277b8261273a565b600c82019050919050565b7f2800000000000000000000000000000000000000000000000000000000000000600082015250565b60006127bc60018361260d565b91506127c782612786565b600182019050919050565b7f2956414c55455328000000000000000000000000000000000000000000000000600082015250565b600061280860088361260d565b9150612813826127d2565b600882019050919050565b7f2900000000000000000000000000000000000000000000000000000000000000600082015250565b600061285460018361260d565b915061285f8261281e565b600182019050919050565b600061287582612763565b91506128818286612618565b915061288c826127af565b91506128988285612618565b91506128a3826127fb565b91506128af8284612618565b91506128ba82612847565b9150819050949350505050565b60006128d38289612618565b91506128de82612649565b6001820191506128ee8288612618565b91506128f982612649565b6001820191506129098287612618565b915061291482612649565b6001820191506129248286612618565b915061292f82612649565b60018201915061293f8285612618565b915061294a82612649565b60018201915061295a8284612618565b9150819050979650505050505050565b7f435245415445205441424c452000000000000000000000000000000000000000600082015250565b60006129a0600d8361260d565b91506129ab8261296a565b600d82019050919050565b7f5f00000000000000000000000000000000000000000000000000000000000000600082015250565b60006129ec60018361260d565b91506129f7826129b6565b600182019050919050565b6000612a0d82612993565b9150612a198286612618565b9150612a24826129df565b9150612a308285612618565b9150612a3b826127af565b9150612a478284612618565b9150612a5282612847565b9150819050949350505050565b7f4e487b7100000000000000000000000000000000000000000000000000000000600052601260045260246000fd5b7f2700000000000000000000000000000000000000000000000000000000000000600082015250565b6000612ac460018361260d565b9150612acf82612a8e565b600182019050919050565b6000612ae582612ab7565b9150612af18284612618565b9150612afc82612ab7565b915081905092915050565b7f4e487b7100000000000000000000000000000000000000000000000000000000600052603260045260246000fd5b6000612b42828b612618565b9150612b4d82612649565b600182019150612b5d828a612618565b9150612b6882612649565b600182019150612b788289612618565b9150612b8382612649565b600182019150612b938288612618565b9150612b9e82612649565b600182019150612bae8287612618565b9150612bb982612649565b600182019150612bc98286612618565b9150612bd482612649565b600182019150612be48285612618565b9150612bef82612649565b600182019150612bff8284612618565b91508190509998505050505050505050565b6000612c1d8286612618565b9150612c28826129df565b9150612c348285612618565b9150612c3f826129df565b9150612c4b8284612618565b915081905094935050505056fe69642c7374617475732c65787065637465645061727469636970616e74436f756e742c746f74616c50617274696369706f6e74436f756e742c656e6372797074656444657461696c734349442c7a6b7041302c7a6b7041312c7a6b704230302c7a6b704230312c7a6b704231302c7a6b704231312c7a6b7043302c7a6b704331696420696e7465676572207072696d617279206b65792c646f63756d656e74496420746578742c76657269666965645061727469636970616e7420746578742c656e637279707465645061727469636970616e7443494420746578742c736d74526f6f7420746578742c6e6f6e636520746578742c7a6b70413020746578742c7a6b70413120746578742c7a6b7042303020746578742c7a6b7042303120746578742c7a6b7042313020746578742c7a6b7042313120746578742c7a6b70433020746578742c7a6b7043312074657874696420746578742c73746174757320746578742c65787065637465645061727469636970616e74436f756e7420696e74656765722c746f74616c5061727469636970616e74436f756e7420696e74656765722c656e6372797074656444657461696c7343494420746578742c7a6b70413020746578742c7a6b70413120746578742c7a6b7042303020746578742c7a6b7042303120746578742c7a6b7042313020746578742c7a6b7042313120746578742c7a6b70433020746578742c7a6b7043312074657874646f63756d656e7449642c76657269666965645061727469636970616e742c656e637279707465645061727469636970616e744349442c736d74526f6f742c6e6f6e63652c7a6b7041302c7a6b7041312c7a6b704230302c7a6b704230312c7a6b704231302c7a6b704231312c7a6b7043302c7a6b704331a264697066735822122086fba478653923c95e7f469fc57abcfb2196ad763a465f07f17ba8c39a1da49c64736f6c63430008120033",
  "deployedBytecode": "0x608060405234801561001057600080fd5b506004361061009e5760003560e01c806357854dc21161006657806357854dc2146101575780636e9960c31461016157806375829def1461017f578063926d1d211461019b578063cbd69e7e146101b95761009e565b8063150b7a02146100a35780631c7834fc146100d3578063485cc955146100ef5780634d97eca21461010b578063572b6c0514610127575b600080fd5b6100bd60048036038101906100b89190611610565b6101d7565b6040516100ca91906116ce565b60405180910390f35b6100ed60048036038101906100e891906119f5565b6101eb565b005b61010960048036038101906101049190611a7c565b61049f565b005b61012560048036038101906101209190611b95565b610572565b005b610141600480360381019061013c9190611bde565b61081c565b60405161014e9190611c26565b60405180910390f35b61015f610874565b005b610169610acf565b6040516101769190611c50565b60405180910390f35b61019960048036038101906101949190611bde565b610af8565b005b6101a3610c3f565b6040516101b09190611c7a565b60405180910390f35b6101c1610c49565b6040516101ce9190611c7a565b60405180910390f35b600063150b7a0260e01b9050949350505050565b6000600160008360000151815260200190815260200160002090508060010160009054906101000a900460ff1615610258576040517f08c379a000000000000000000000000000000000000000000000000000000000815260040161024f90611cf2565b60405180910390fd5b600073__$f1c2f0db6d538d14eb840c655424d0f06f$__6343753b4d846060015160000151856060015160200151866060015160400151604051806020016040528089600001518152506040518563ffffffff1660e01b81526004016102c19493929190611f3f565b602060405180830381865af41580156102de573d6000803e3d6000fd5b505050506040513d601f19601f820116820180604052508101906103029190611fb2565b905080610344576040517f08c379a000000000000000000000000000000000000000000000000000000000815260040161033b9061202b565b60405180910390fd5b60018260010160006101000a81548160ff021916908315150217905550610369610c53565b73ffffffffffffffffffffffffffffffffffffffff1663eaf5d04e306002546103eb6040518060400160405280600c81526020017f7a6b5f646f63756d656e747300000000000000000000000000000000000000008152506002546040518060a0016040528060808152602001612c59608091396103e68b610dbb565b610e61565b6040518463ffffffff1660e01b8152600401610409939291906120b9565b600060405180830381600087803b15801561042357600080fd5b505af1158015610437573d6000803e3d6000fd5b50505050610443610ea0565b73ffffffffffffffffffffffffffffffffffffffff167fd2d44372492e8082b0303e3732cb5934ba9708de7c0b1889fa95c61b4573821a8460000151856060015160405161049292919061223d565b60405180910390a2505050565b600073ffffffffffffffffffffffffffffffffffffffff1660008054906101000a900473ffffffffffffffffffffffffffffffffffffffff1673ffffffffffffffffffffffffffffffffffffffff161461052e576040517f08c379a0000000000000000000000000000000000000000000000000000000008152600401610525906122b3565b60405180910390fd5b806000806101000a81548173ffffffffffffffffffffffffffffffffffffffff021916908373ffffffffffffffffffffffffffffffffffffffff1602179055505050565b6000600160008360000151815260200190815260200160002090508060010160009054906101000a900460ff166105de576040517f08c379a00000000000000000000000000000000000000000000000000000000081526004016105d59061231f565b60405180910390fd5b600073__$dd5c78d03d4789677603e538c718adfa8a$__6311479fea8460a00151600001518560a00151602001518660a00151604001516040518060600160405280896000015181526020018860000154815260200189606001518152506040518563ffffffff1660e01b815260040161065b94939291906123c3565b602060405180830381865af4158015610678573d6000803e3d6000fd5b505050506040513d601f19601f8201168201806040525081019061069c9190611fb2565b9050806106de576040517f08c379a00000000000000000000000000000000000000000000000000000000081526004016106d590612456565b60405180910390fd5b6106e6610c53565b73ffffffffffffffffffffffffffffffffffffffff1663eaf5d04e306003546107686040518060400160405280600e81526020017f7a6b5f61756469745f747261696c0000000000000000000000000000000000008152506003546040518060a0016040528060788152602001612e70607891396107638b610ed2565b610e61565b6040518463ffffffff1660e01b8152600401610786939291906120b9565b600060405180830381600087803b1580156107a057600080fd5b505af11580156107b4573d6000803e3d6000fd5b505050508260600151826000018190555082600001517f101a3586b0457a0e49ba0be2b4a908c0399b3106c4a357ecc0edf34ef6cde8ba8460200151846000015486606001518760a0015160405161080f9493929190612476565b60405180910390a2505050565b60007f000000000000000000000000000000000000000000000000000000000000000073ffffffffffffffffffffffffffffffffffffffff168273ffffffffffffffffffffffffffffffffffffffff16149050919050565b61087c610ea0565b73ffffffffffffffffffffffffffffffffffffffff1660008054906101000a900473ffffffffffffffffffffffffffffffffffffffff1673ffffffffffffffffffffffffffffffffffffffff1614610909576040517f08c379a00000000000000000000000000000000000000000000000000000000081526004016109009061250f565b60405180910390fd5b610911610c53565b73ffffffffffffffffffffffffffffffffffffffff16633a9151b03061098560405180610100016040528060c78152602001612da960c791396040518060400160405280600c81526020017f7a6b5f646f63756d656e74730000000000000000000000000000000000000000815250610f65565b6040518363ffffffff1660e01b81526004016109a292919061252f565b6020604051808303816000875af11580156109c1573d6000803e3d6000fd5b505050506040513d601f19601f820116820180604052508101906109e59190612574565b6002819055506109f3610c53565b73ffffffffffffffffffffffffffffffffffffffff16633a9151b030610a6760405180610100016040528060d08152602001612cd960d091396040518060400160405280600e81526020017f7a6b5f61756469745f747261696c000000000000000000000000000000000000815250610f65565b6040518363ffffffff1660e01b8152600401610a8492919061252f565b6020604051808303816000875af1158015610aa3573d6000803e3d6000fd5b505050506040513d601f19601f82011682018060405250810190610ac79190612574565b600381905550565b60008060009054906101000a900473ffffffffffffffffffffffffffffffffffffffff16905090565b610b00610ea0565b73ffffffffffffffffffffffffffffffffffffffff1660008054906101000a900473ffffffffffffffffffffffffffffffffffffffff1673ffffffffffffffffffffffffffffffffffffffff1614610b8d576040517f08c379a0000000000000000000000000000000000000000000000000000000008152600401610b849061250f565b60405180910390fd5b600073ffffffffffffffffffffffffffffffffffffffff168173ffffffffffffffffffffffffffffffffffffffff1603610bfc576040517f08c379a0000000000000000000000000000000000000000000000000000000008152600401610bf3906125ed565b60405180910390fd5b806000806101000a81548173ffffffffffffffffffffffffffffffffffffffff021916908373ffffffffffffffffffffffffffffffffffffffff16021790555050565b6000600254905090565b6000600354905090565b600060014603610c795773012969f7e3439a9b04025b5a049eb9bad82a8c129050610db8565b600a4603610c9d5773fad44bf5b843de943a09d4f3e84949a11d3aa3e69050610db8565b60894603610cc157735c4e6a9e5c1e1bf445a062006faf19ea6c49afea9050610db8565b60054603610ce55773da8ea22d092307874f30a1f277d1388dca0ba97a9050610db8565b6101a44603610d0a5773c72e8a7be04f2469f8c2db3f1bdf69a7d516abba9050610db8565b62066eed4603610d305773033f69e8d119205089ab15d340f5b797732f646b9050610db8565b620138814603610d5657734b48841d4b32c4650e4abc117a03fe8b51f38f689050610db8565b617a694603610d7b5773e7f1725e7734ce288f8367e1bb143e90bb3f05129050610db8565b466040517f264e42cf000000000000000000000000000000000000000000000000000000008152600401610daf9190611c7a565b60405180910390fd5b90565b6060610dd2610dcd8360000151610f9b565b611069565b610e106040518060400160405280600781526020017f70656e64696e6700000000000000000000000000000000000000000000000000815250611069565b610e1d8460200151610f9b565b610e2a8560400151611069565b610e378660600151611092565b604051602001610e4b959493929190612695565b6040516020818303038152906040529050919050565b60606000610e6f8686611289565b9050808484604051602001610e869392919061286a565b604051602081830303815290604052915050949350505050565b6000610eab3361081c565b15610ebf57601436033560601c9050610ece565b610ec76112c7565b9050610ecf565b5b90565b6060610ee9610ee48360000151610f9b565b611069565b610ef68360200151611069565b610f038460400151611069565b610f18610f138660600151610f9b565b611069565b610f2d610f288760800151610f9b565b611069565b610f3a8760a00151611092565b604051602001610f4f969594939291906128c7565b6040516020818303038152906040529050919050565b606081610f7146610f9b565b84604051602001610f8493929190612a02565b604051602081830303815290604052905092915050565b606060006001610faa846112cf565b01905060008167ffffffffffffffff811115610fc957610fc86114e5565b5b6040519080825280601f01601f191660200182016040528015610ffb5781602001600182028036833780820191505090505b509050600082602001820190505b60011561105e578080600190039150507f3031323334353637383961626364656600000000000000000000000000000000600a86061a8153600a858161105257611051612a5f565b5b04945060008503611009575b819350505050919050565b60608160405160200161107c9190612ada565b6040516020818303038152906040529050919050565b60606110c16110bc83600001516000600281106110b2576110b1612b07565b5b6020020151610f9b565b611069565b6110ee6110e984600001516001600281106110df576110de612b07565b5b6020020151610f9b565b611069565b61113361112e856020015160006002811061110c5761110b612b07565b5b602002015160006002811061112457611123612b07565b5b6020020151610f9b565b611069565b611178611173866020015160006002811061115157611150612b07565b5b602002015160016002811061116957611168612b07565b5b6020020151610f9b565b611069565b6111bd6111b8876020015160016002811061119657611195612b07565b5b60200201516000600281106111ae576111ad612b07565b5b6020020151610f9b565b611069565b6112026111fd88602001516001600281106111db576111da612b07565b5b60200201516001600281106111f3576111f2612b07565b5b6020020151610f9b565b611069565b61122f61122a89604001516000600281106112205761121f612b07565b5b6020020151610f9b565b611069565b61125c6112578a6040015160016002811061124d5761124c612b07565b5b6020020151610f9b565b611069565b604051602001611273989796959493929190612b36565b6040516020818303038152906040529050919050565b60608261129546610f9b565b61129e84610f9b565b6040516020016112b093929190612c11565b604051602081830303815290604052905092915050565b600033905090565b600080600090507a184f03e93ff9f4daa797ed6e38ed64bf6a1f010000000000000000831061132d577a184f03e93ff9f4daa797ed6e38ed64bf6a1f010000000000000000838161132357611322612a5f565b5b0492506040810190505b6d04ee2d6d415b85acef8100000000831061136a576d04ee2d6d415b85acef810000000083816113605761135f612a5f565b5b0492506020810190505b662386f26fc10000831061139957662386f26fc10000838161138f5761138e612a5f565b5b0492506010810190505b6305f5e10083106113c2576305f5e10083816113b8576113b7612a5f565b5b0492506008810190505b61271083106113e75761271083816113dd576113dc612a5f565b5b0492506004810190505b6064831061140a5760648381611400576113ff612a5f565b5b0492506002810190505b600a8310611419576001810190505b80915050919050565b6000604051905090565b600080fd5b600080fd5b600073ffffffffffffffffffffffffffffffffffffffff82169050919050565b600061146182611436565b9050919050565b61147181611456565b811461147c57600080fd5b50565b60008135905061148e81611468565b92915050565b6000819050919050565b6114a781611494565b81146114b257600080fd5b50565b6000813590506114c48161149e565b92915050565b600080fd5b600080fd5b6000601f19601f8301169050919050565b7f4e487b7100000000000000000000000000000000000000000000000000000000600052604160045260246000fd5b61151d826114d4565b810181811067ffffffffffffffff8211171561153c5761153b6114e5565b5b80604052505050565b600061154f611422565b905061155b8282611514565b919050565b600067ffffffffffffffff82111561157b5761157a6114e5565b5b611584826114d4565b9050602081019050919050565b82818337600083830152505050565b60006115b36115ae84611560565b611545565b9050828152602081018484840111156115cf576115ce6114cf565b5b6115da848285611591565b509392505050565b600082601f8301126115f7576115f66114ca565b5b81356116078482602086016115a0565b91505092915050565b6000806000806080858703121561162a5761162961142c565b5b60006116388782880161147f565b94505060206116498782880161147f565b935050604061165a878288016114b5565b925050606085013567ffffffffffffffff81111561167b5761167a611431565b5b611687878288016115e2565b91505092959194509250565b60007fffffffff0000000000000000000000000000000000000000000000000000000082169050919050565b6116c881611693565b82525050565b60006020820190506116e360008301846116bf565b92915050565b600080fd5b600080fd5b600067ffffffffffffffff82111561170e5761170d6114e5565b5b611717826114d4565b9050602081019050919050565b6000611737611732846116f3565b611545565b905082815260208101848484011115611753576117526114cf565b5b61175e848285611591565b509392505050565b600082601f83011261177b5761177a6114ca565b5b813561178b848260208601611724565b91505092915050565b600067ffffffffffffffff8211156117af576117ae6114e5565b5b602082029050919050565b600080fd5b60006117d26117cd84611794565b611545565b905080602084028301858111156117ec576117eb6117ba565b5b835b81811015611815578061180188826114b5565b8452602084019350506020810190506117ee565b5050509392505050565b600082601f830112611834576118336114ca565b5b60026118418482856117bf565b91505092915050565b600067ffffffffffffffff821115611865576118646114e5565b5b602082029050919050565b600061188361187e8461184a565b611545565b9050806040840283018581111561189d5761189c6117ba565b5b835b818110156118c657806118b2888261181f565b84526020840193505060408101905061189f565b5050509392505050565b600082601f8301126118e5576118e46114ca565b5b60026118f2848285611870565b91505092915050565b60006101008284031215611912576119116116e9565b5b61191c6060611545565b9050600061192c8482850161181f565b6000830152506040611940848285016118d0565b60208301525060c06119548482850161181f565b60408301525092915050565b60006101608284031215611977576119766116e9565b5b6119816080611545565b90506000611991848285016114b5565b60008301525060206119a5848285016114b5565b602083015250604082013567ffffffffffffffff8111156119c9576119c86116ee565b5b6119d584828501611766565b60408301525060606119e9848285016118fb565b60608301525092915050565b600060208284031215611a0b57611a0a61142c565b5b600082013567ffffffffffffffff811115611a2957611a28611431565b5b611a3584828501611960565b91505092915050565b6000611a4982611456565b9050919050565b611a5981611a3e565b8114611a6457600080fd5b50565b600081359050611a7681611a50565b92915050565b60008060408385031215611a9357611a9261142c565b5b6000611aa185828601611a67565b9250506020611ab28582860161147f565b9150509250929050565b60006101a08284031215611ad357611ad26116e9565b5b611add60c0611545565b90506000611aed848285016114b5565b600083015250602082013567ffffffffffffffff811115611b1157611b106116ee565b5b611b1d84828501611766565b602083015250604082013567ffffffffffffffff811115611b4157611b406116ee565b5b611b4d84828501611766565b6040830152506060611b61848285016114b5565b6060830152506080611b75848285016114b5565b60808301525060a0611b89848285016118fb565b60a08301525092915050565b600060208284031215611bab57611baa61142c565b5b600082013567ffffffffffffffff811115611bc957611bc8611431565b5b611bd584828501611abc565b91505092915050565b600060208284031215611bf457611bf361142c565b5b6000611c028482850161147f565b91505092915050565b60008115159050919050565b611c2081611c0b565b82525050565b6000602082019050611c3b6000830184611c17565b92915050565b611c4a81611456565b82525050565b6000602082019050611c656000830184611c41565b92915050565b611c7481611494565b82525050565b6000602082019050611c8f6000830184611c6b565b92915050565b600082825260208201905092915050565b7f446f63756d656e74206578697374730000000000000000000000000000000000600082015250565b6000611cdc600f83611c95565b9150611ce782611ca6565b602082019050919050565b60006020820190508181036000830152611d0b81611ccf565b9050919050565b600060029050919050565b600081905092915050565b6000819050919050565b611d3b81611494565b82525050565b6000611d4d8383611d32565b60208301905092915050565b6000602082019050919050565b611d6f81611d12565b611d798184611d1d565b9250611d8482611d28565b8060005b83811015611db5578151611d9c8782611d41565b9650611da783611d59565b925050600181019050611d88565b505050505050565b600060029050919050565b600081905092915050565b6000819050919050565b600081905092915050565b611df181611d12565b611dfb8184611ddd565b9250611e0682611d28565b8060005b83811015611e37578151611e1e8782611d41565b9650611e2983611d59565b925050600181019050611e0a565b505050505050565b6000611e4b8383611de8565b60408301905092915050565b6000602082019050919050565b611e6d81611dbd565b611e778184611dc8565b9250611e8282611dd3565b8060005b83811015611eb3578151611e9a8782611e3f565b9650611ea583611e57565b925050600181019050611e86565b505050505050565b600060019050919050565b600081905092915050565b6000819050919050565b6000602082019050919050565b611ef181611ebb565b611efb8184611ec6565b9250611f0682611ed1565b8060005b83811015611f37578151611f1e8782611d41565b9650611f2983611edb565b925050600181019050611f0a565b505050505050565b600061012082019050611f556000830187611d66565b611f626040830186611e64565b611f6f60c0830185611d66565b611f7d610100830184611ee8565b95945050505050565b611f8f81611c0b565b8114611f9a57600080fd5b50565b600081519050611fac81611f86565b92915050565b600060208284031215611fc857611fc761142c565b5b6000611fd684828501611f9d565b91505092915050565b7f496e76616c696420646f63756d656e7420696400000000000000000000000000600082015250565b6000612015601383611c95565b915061202082611fdf565b602082019050919050565b6000602082019050818103600083015261204481612008565b9050919050565b600081519050919050565b60005b83811015612074578082015181840152602081019050612059565b60008484015250505050565b600061208b8261204b565b6120958185611c95565b93506120a5818560208601612056565b6120ae816114d4565b840191505092915050565b60006060820190506120ce6000830186611c41565b6120db6020830185611c6b565b81810360408301526120ed8184612080565b9050949350505050565b600081905092915050565b61210b81611494565b82525050565b600061211d8383612102565b60208301905092915050565b61213281611d12565b61213c81846120f7565b925061214782611d28565b8060005b8381101561217857815161215f8782612111565b965061216a83611d59565b92505060018101905061214b565b505050505050565b600081905092915050565b60006121978383612129565b60408301905092915050565b6121ac81611dbd565b6121b68184612180565b92506121c182611dd3565b8060005b838110156121f25781516121d9878261218b565b96506121e483611e57565b9250506001810190506121c5565b505050505050565b610100820160008201516122116000850182612129565b50602082015161222460408501826121a3565b50604082015161223760c0850182612129565b50505050565b6000610120820190506122536000830185611c6b565b61226060208301846121fa565b9392505050565b7f436f6e747261637420616c726561647920696e697469616c697a656400000000600082015250565b600061229d601c83611c95565b91506122a882612267565b602082019050919050565b600060208201905081810360008301526122cc81612290565b9050919050565b7f446f63756d656e7420646f65736e277420657869737400000000000000000000600082015250565b6000612309601683611c95565b9150612314826122d3565b602082019050919050565b60006020820190508181036000830152612338816122fc565b9050919050565b600060039050919050565b600081905092915050565b6000819050919050565b6000602082019050919050565b6123758161233f565b61237f818461234a565b925061238a82612355565b8060005b838110156123bb5781516123a28782611d41565b96506123ad8361235f565b92505060018101905061238e565b505050505050565b6000610160820190506123d96000830187611d66565b6123e66040830186611e64565b6123f360c0830185611d66565b61240161010083018461236c565b95945050505050565b7f496e76616c6964207061727469636970616e7420696e73657274000000000000600082015250565b6000612440601a83611c95565b915061244b8261240a565b602082019050919050565b6000602082019050818103600083015261246f81612433565b9050919050565b60006101608201905081810360008301526124918187612080565b90506124a06020830186611c6b565b6124ad6040830185611c6b565b6124ba60608301846121fa565b95945050505050565b7f63616c6c6572206973206e6f74207468652061646d696e000000000000000000600082015250565b60006124f9601783611c95565b9150612504826124c3565b602082019050919050565b60006020820190508181036000830152612528816124ec565b9050919050565b60006040820190506125446000830185611c41565b81810360208301526125568184612080565b90509392505050565b60008151905061256e8161149e565b92915050565b60006020828403121561258a5761258961142c565b5b60006125988482850161255f565b91505092915050565b7f6e65772061646d696e20697320746865207a65726f2061646472657373000000600082015250565b60006125d7601d83611c95565b91506125e2826125a1565b602082019050919050565b60006020820190508181036000830152612606816125ca565b9050919050565b600081905092915050565b60006126238261204b565b61262d818561260d565b935061263d818560208601612056565b80840191505092915050565b7f2c00000000000000000000000000000000000000000000000000000000000000815250565b7f3000000000000000000000000000000000000000000000000000000000000000815250565b60006126a18288612618565b91506126ac82612649565b6001820191506126bc8287612618565b91506126c782612649565b6001820191506126d78286612618565b91506126e282612649565b6001820191506126f18261266f565b60018201915061270082612649565b6001820191506127108285612618565b915061271b82612649565b60018201915061272b8284612618565b91508190509695505050505050565b7f494e5345525420494e544f200000000000000000000000000000000000000000600082015250565b6000612770600c8361260d565b915061277b8261273a565b600c82019050919050565b7f2800000000000000000000000000000000000000000000000000000000000000600082015250565b60006127bc60018361260d565b91506127c782612786565b600182019050919050565b7f2956414c55455328000000000000000000000000000000000000000000000000600082015250565b600061280860088361260d565b9150612813826127d2565b600882019050919050565b7f2900000000000000000000000000000000000000000000000000000000000000600082015250565b600061285460018361260d565b915061285f8261281e565b600182019050919050565b600061287582612763565b91506128818286612618565b915061288c826127af565b91506128988285612618565b91506128a3826127fb565b91506128af8284612618565b91506128ba82612847565b9150819050949350505050565b60006128d38289612618565b91506128de82612649565b6001820191506128ee8288612618565b91506128f982612649565b6001820191506129098287612618565b915061291482612649565b6001820191506129248286612618565b915061292f82612649565b60018201915061293f8285612618565b915061294a82612649565b60018201915061295a8284612618565b9150819050979650505050505050565b7f435245415445205441424c452000000000000000000000000000000000000000600082015250565b60006129a0600d8361260d565b91506129ab8261296a565b600d82019050919050565b7f5f00000000000000000000000000000000000000000000000000000000000000600082015250565b60006129ec60018361260d565b91506129f7826129b6565b600182019050919050565b6000612a0d82612993565b9150612a198286612618565b9150612a24826129df565b9150612a308285612618565b9150612a3b826127af565b9150612a478284612618565b9150612a5282612847565b9150819050949350505050565b7f4e487b7100000000000000000000000000000000000000000000000000000000600052601260045260246000fd5b7f2700000000000000000000000000000000000000000000000000000000000000600082015250565b6000612ac460018361260d565b9150612acf82612a8e565b600182019050919050565b6000612ae582612ab7565b9150612af18284612618565b9150612afc82612ab7565b915081905092915050565b7f4e487b7100000000000000000000000000000000000000000000000000000000600052603260045260246000fd5b6000612b42828b612618565b9150612b4d82612649565b600182019150612b5d828a612618565b9150612b6882612649565b600182019150612b788289612618565b9150612b8382612649565b600182019150612b938288612618565b9150612b9e82612649565b600182019150612bae8287612618565b9150612bb982612649565b600182019150612bc98286612618565b9150612bd482612649565b600182019150612be48285612618565b9150612bef82612649565b600182019150612bff8284612618565b91508190509998505050505050505050565b6000612c1d8286612618565b9150612c28826129df565b9150612c348285612618565b9150612c3f826129df565b9150612c4b8284612618565b915081905094935050505056fe69642c7374617475732c65787065637465645061727469636970616e74436f756e742c746f74616c50617274696369706f6e74436f756e742c656e6372797074656444657461696c734349442c7a6b7041302c7a6b7041312c7a6b704230302c7a6b704230312c7a6b704231302c7a6b704231312c7a6b7043302c7a6b704331696420696e7465676572207072696d617279206b65792c646f63756d656e74496420746578742c76657269666965645061727469636970616e7420746578742c656e637279707465645061727469636970616e7443494420746578742c736d74526f6f7420746578742c6e6f6e636520746578742c7a6b70413020746578742c7a6b70413120746578742c7a6b7042303020746578742c7a6b7042303120746578742c7a6b7042313020746578742c7a6b7042313120746578742c7a6b70433020746578742c7a6b7043312074657874696420746578742c73746174757320746578742c65787065637465645061727469636970616e74436f756e7420696e74656765722c746f74616c5061727469636970616e74436f756e7420696e74656765722c656e6372797074656444657461696c7343494420746578742c7a6b70413020746578742c7a6b70413120746578742c7a6b7042303020746578742c7a6b7042303120746578742c7a6b7042313020746578742c7a6b7042313120746578742c7a6b70433020746578742c7a6b7043312074657874646f63756d656e7449642c76657269666965645061727469636970616e742c656e637279707465645061727469636970616e744349442c736d74526f6f742c6e6f6e63652c7a6b7041302c7a6b7041312c7a6b704230302c7a6b704230312c7a6b704231302c7a6b704231312c7a6b7043302c7a6b704331a264697066735822122086fba478653923c95e7f469fc57abcfb2196ad763a465f07f17ba8c39a1da49c64736f6c63430008120033",
  "libraries": {
    "ValidDocumentId": "0xc76B836b2489E65BF7F7593E725D333b086E6341",
    "ValidDocumentParticipantInsert": "0xa295b447f30b3c947CAD05eB09aBDf7D3AdA905F"
  },
  "devdoc": {
    "kind": "dev",
    "methods": {
      "onERC721Received(address,address,uint256,bytes)": {
        "details": "See {IERC721Receiver-onERC721Received}. Always returns `IERC721Receiver.onERC721Received.selector`."
      }
    },
    "version": 1
  },
  "userdoc": {
    "errors": {
      "ChainNotSupported(uint256)": [
        {
          "notice": "Current chain does not have a TablelandTables deployment."
        }
      ]
    },
    "kind": "user",
    "methods": {},
    "version": 1
  },
  "storageLayout": {
    "storage": [
      {
        "astId": 2483,
        "contract": "contracts/ZKDocument.sol:ZKDocument",
        "label": "_admin",
        "offset": 0,
        "slot": "0",
        "type": "t_address"
      },
      {
        "astId": 2488,
        "contract": "contracts/ZKDocument.sol:ZKDocument",
        "label": "documents",
        "offset": 0,
        "slot": "1",
        "type": "t_mapping(t_uint256,t_struct(Document)2481_storage)"
      },
      {
        "astId": 2490,
        "contract": "contracts/ZKDocument.sol:ZKDocument",
        "label": "_documentsTableId",
        "offset": 0,
        "slot": "2",
        "type": "t_uint256"
      },
      {
        "astId": 2492,
        "contract": "contracts/ZKDocument.sol:ZKDocument",
        "label": "_auditLogTableId",
        "offset": 0,
        "slot": "3",
        "type": "t_uint256"
      }
    ],
    "types": {
      "t_address": {
        "encoding": "inplace",
        "label": "address",
        "numberOfBytes": "20"
      },
      "t_bool": {
        "encoding": "inplace",
        "label": "bool",
        "numberOfBytes": "1"
      },
      "t_mapping(t_uint256,t_struct(Document)2481_storage)": {
        "encoding": "mapping",
        "key": "t_uint256",
        "label": "mapping(uint256 => struct ZKDocument.Document)",
        "numberOfBytes": "32",
        "value": "t_struct(Document)2481_storage"
      },
      "t_struct(Document)2481_storage": {
        "encoding": "inplace",
        "label": "struct ZKDocument.Document",
        "members": [
          {
            "astId": 2478,
            "contract": "contracts/ZKDocument.sol:ZKDocument",
            "label": "participantsRoot",
            "offset": 0,
            "slot": "0",
            "type": "t_uint256"
          },
          {
            "astId": 2480,
            "contract": "contracts/ZKDocument.sol:ZKDocument",
            "label": "initialized",
            "offset": 0,
            "slot": "1",
            "type": "t_bool"
          }
        ],
        "numberOfBytes": "64"
      },
      "t_uint256": {
        "encoding": "inplace",
        "label": "uint256",
        "numberOfBytes": "32"
      }
    }
  }
}