{
  "address": "0x41323b26591f02a02cE5747888dD7fCB51569Fd0",
  "abi": [
    {
      "inputs": [
        {
          "internalType": "contract MinimalForwarder",
          "name": "forwarder",
          "type": "address"
        }
      ],
      "stateMutability": "nonpayable",
      "type": "constructor"
    },
    {
      "anonymous": false,
      "inputs": [
        {
          "indexed": true,
          "internalType": "address",
          "name": "from",
          "type": "address"
        },
        {
          "indexed": false,
          "internalType": "uint256",
          "name": "documentId",
          "type": "uint256"
        },
        {
          "components": [
            {
              "internalType": "uint256[2]",
              "name": "a",
              "type": "uint256[2]"
            },
            {
              "internalType": "uint256[2][2]",
              "name": "b",
              "type": "uint256[2][2]"
            },
            {
              "internalType": "uint256[2]",
              "name": "c",
              "type": "uint256[2]"
            }
          ],
          "indexed": false,
          "internalType": "struct ZKDocumentTypes.ZKProof",
          "name": "proof",
          "type": "tuple"
        }
      ],
      "name": "CreateDocument",
      "type": "event"
    },
    {
      "anonymous": false,
      "inputs": [
        {
          "indexed": true,
          "internalType": "uint256",
          "name": "documentId",
          "type": "uint256"
        },
        {
          "indexed": false,
          "internalType": "uint256",
          "name": "oldRoot",
          "type": "uint256"
        },
        {
          "indexed": false,
          "internalType": "uint256",
          "name": "newRoot",
          "type": "uint256"
        },
        {
          "components": [
            {
              "internalType": "uint256[2]",
              "name": "a",
              "type": "uint256[2]"
            },
            {
              "internalType": "uint256[2][2]",
              "name": "b",
              "type": "uint256[2][2]"
            },
            {
              "internalType": "uint256[2]",
              "name": "c",
              "type": "uint256[2]"
            }
          ],
          "indexed": false,
          "internalType": "struct ZKDocumentTypes.ZKProof",
          "name": "proof",
          "type": "tuple"
        }
      ],
      "name": "VerifyDocument",
      "type": "event"
    },
    {
      "inputs": [
        {
          "components": [
            {
              "internalType": "uint256",
              "name": "documentId",
              "type": "uint256"
            },
            {
              "components": [
                {
                  "internalType": "uint256[2]",
                  "name": "a",
                  "type": "uint256[2]"
                },
                {
                  "internalType": "uint256[2][2]",
                  "name": "b",
                  "type": "uint256[2][2]"
                },
                {
                  "internalType": "uint256[2]",
                  "name": "c",
                  "type": "uint256[2]"
                }
              ],
              "internalType": "struct ZKDocumentTypes.ZKProof",
              "name": "proof",
              "type": "tuple"
            }
          ],
          "internalType": "struct ZKDocumentTypes.CreateDocumentParams",
          "name": "params",
          "type": "tuple"
        }
      ],
      "name": "createDocument",
      "outputs": [],
      "stateMutability": "nonpayable",
      "type": "function"
    },
    {
      "inputs": [
        {
          "internalType": "address",
          "name": "forwarder",
          "type": "address"
        }
      ],
      "name": "isTrustedForwarder",
      "outputs": [
        {
          "internalType": "bool",
          "name": "",
          "type": "bool"
        }
      ],
      "stateMutability": "view",
      "type": "function"
    },
    {
      "inputs": [
        {
          "components": [
            {
              "internalType": "uint256",
              "name": "documentId",
              "type": "uint256"
            },
            {
              "internalType": "uint256",
              "name": "root",
              "type": "uint256"
            },
            {
              "components": [
                {
                  "internalType": "uint256[2]",
                  "name": "a",
                  "type": "uint256[2]"
                },
                {
                  "internalType": "uint256[2][2]",
                  "name": "b",
                  "type": "uint256[2][2]"
                },
                {
                  "internalType": "uint256[2]",
                  "name": "c",
                  "type": "uint256[2]"
                }
              ],
              "internalType": "struct ZKDocumentTypes.ZKProof",
              "name": "proof",
              "type": "tuple"
            }
          ],
          "internalType": "struct ZKDocumentTypes.VerifyDocumentParams",
          "name": "params",
          "type": "tuple"
        }
      ],
      "name": "verifyDocument",
      "outputs": [],
      "stateMutability": "nonpayable",
      "type": "function"
    }
  ],
  "transactionHash": "0xe995e8c182ffb2acae31ca0ecb14bd6950ec8de5de2f7123d7247c08f3e97410",
  "args": [
    "0x9c66b91cFF4855dDf693889335ACBB0564ea19B8"
  ],
  "numDeployments": 1,
  "solcInputHash": "e41c8adb7a137396c573b5016cfb4d88",
  "bytecode": "0x60a06040523480156200001157600080fd5b50604051620012c9380380620012c98339818101604052810190620000379190620000f2565b808073ffffffffffffffffffffffffffffffffffffffff1660808173ffffffffffffffffffffffffffffffffffffffff1681525050505062000124565b600080fd5b600073ffffffffffffffffffffffffffffffffffffffff82169050919050565b6000620000a68262000079565b9050919050565b6000620000ba8262000099565b9050919050565b620000cc81620000ad565b8114620000d857600080fd5b50565b600081519050620000ec81620000c1565b92915050565b6000602082840312156200010b576200010a62000074565b5b60006200011b84828501620000db565b91505092915050565b60805161118a6200013f600039600060b2015261118a6000f3fe608060405234801561001057600080fd5b50600436106100415760003560e01c8063572b6c05146100465780638bc5993514610076578063bfb0ab1614610092575b600080fd5b610060600480360381019061005b9190610674565b6100ae565b60405161006d91906106bc565b60405180910390f35b610090600480360381019061008b91906109d4565b610106565b005b6100ac60048036038101906100a79190610a53565b6102d2565b005b60007f000000000000000000000000000000000000000000000000000000000000000073ffffffffffffffffffffffffffffffffffffffff168273ffffffffffffffffffffffffffffffffffffffff16149050919050565b6000806000836000015181526020019081526020016000209050600073271FfE9b0c73C06b87705410e5209E431d16393D6311479fea8460400151600001518560400151602001518660400151604001516040518060600160405280896000015181526020018860000154815260200189602001518152506040518563ffffffff1660e01b815260040161019d9493929190610cae565b602060405180830381865af41580156101ba573d6000803e3d6000fd5b505050506040513d601f19601f820116820180604052508101906101de9190610d21565b905080610220576040517f08c379a000000000000000000000000000000000000000000000000000000000815260040161021790610dab565b60405180910390fd5b82600001517f5217ae2a2557321021a53a1286eabc4e68bc78d80ff2d8cb5640cec8b338fd0383600001548560200151866040015160405161026493929190610f20565b60405180910390a282602001518260000181905550826040015182600901600082015181600001906002610299929190610528565b506020820151816002019060026102b1929190610568565b506040820151816006019060026102c9929190610528565b50905050505050565b600080600083600001518152602001908152602001600020905060008160010160000160006002811061030857610307610f58565b5b01541461034a576040517f08c379a000000000000000000000000000000000000000000000000000000000815260040161034190610fd3565b60405180910390fd5b6000733ACb9Df161E9000Df461f262065FD4dF702CFcab6343753b4d846020015160000151856020015160200151866020015160400151604051806020016040528089600001518152506040518563ffffffff1660e01b81526004016103b39493929190611077565b602060405180830381865af41580156103d0573d6000803e3d6000fd5b505050506040513d601f19601f820116820180604052508101906103f49190610d21565b905080610436576040517f08c379a000000000000000000000000000000000000000000000000000000000815260040161042d9061110a565b60405180910390fd5b826020015182600101600082015181600001906002610456929190610528565b5060208201518160020190600261046e929190610568565b50604082015181600601906002610486929190610528565b509050506104926104ee565b73ffffffffffffffffffffffffffffffffffffffff167fd2d44372492e8082b0303e3732cb5934ba9708de7c0b1889fa95c61b4573821a846000015185602001516040516104e192919061112a565b60405180910390a2505050565b60006104f9336100ae565b1561050d57601436033560601c905061051c565b610515610520565b905061051d565b5b90565b600033905090565b8260028101928215610557579160200282015b8281111561055657825182559160200191906001019061053b565b5b50905061056491906105b8565b5090565b826002800281019282156105a7579160200282015b828111156105a657825182906002610596929190610528565b509160200191906002019061057d565b5b5090506105b491906105d5565b5090565b5b808211156105d15760008160009055506001016105b9565b5090565b5b808211156105f557600081816105ec91906105f9565b506002016105d6565b5090565b506000815560010160009055565b6000604051905090565b600080fd5b600073ffffffffffffffffffffffffffffffffffffffff82169050919050565b600061064182610616565b9050919050565b61065181610636565b811461065c57600080fd5b50565b60008135905061066e81610648565b92915050565b60006020828403121561068a57610689610611565b5b60006106988482850161065f565b91505092915050565b60008115159050919050565b6106b6816106a1565b82525050565b60006020820190506106d160008301846106ad565b92915050565b600080fd5b6000601f19601f8301169050919050565b7f4e487b7100000000000000000000000000000000000000000000000000000000600052604160045260246000fd5b610725826106dc565b810181811067ffffffffffffffff82111715610744576107436106ed565b5b80604052505050565b6000610757610607565b9050610763828261071c565b919050565b6000819050919050565b61077b81610768565b811461078657600080fd5b50565b60008135905061079881610772565b92915050565b600080fd5b600067ffffffffffffffff8211156107be576107bd6106ed565b5b602082029050919050565b600080fd5b60006107e16107dc846107a3565b61074d565b905080602084028301858111156107fb576107fa6107c9565b5b835b8181101561082457806108108882610789565b8452602084019350506020810190506107fd565b5050509392505050565b600082601f8301126108435761084261079e565b5b60026108508482856107ce565b91505092915050565b600067ffffffffffffffff821115610874576108736106ed565b5b602082029050919050565b600061089261088d84610859565b61074d565b905080604084028301858111156108ac576108ab6107c9565b5b835b818110156108d557806108c1888261082e565b8452602084019350506040810190506108ae565b5050509392505050565b600082601f8301126108f4576108f361079e565b5b600261090184828561087f565b91505092915050565b60006101008284031215610921576109206106d7565b5b61092b606061074d565b9050600061093b8482850161082e565b600083015250604061094f848285016108df565b60208301525060c06109638482850161082e565b60408301525092915050565b60006101408284031215610986576109856106d7565b5b610990606061074d565b905060006109a084828501610789565b60008301525060206109b484828501610789565b60208301525060406109c88482850161090a565b60408301525092915050565b600061014082840312156109eb576109ea610611565b5b60006109f98482850161096f565b91505092915050565b60006101208284031215610a1957610a186106d7565b5b610a23604061074d565b90506000610a3384828501610789565b6000830152506020610a478482850161090a565b60208301525092915050565b60006101208284031215610a6a57610a69610611565b5b6000610a7884828501610a02565b91505092915050565b600060029050919050565b600081905092915050565b6000819050919050565b610aaa81610768565b82525050565b6000610abc8383610aa1565b60208301905092915050565b6000602082019050919050565b610ade81610a81565b610ae88184610a8c565b9250610af382610a97565b8060005b83811015610b24578151610b0b8782610ab0565b9650610b1683610ac8565b925050600181019050610af7565b505050505050565b600060029050919050565b600081905092915050565b6000819050919050565b600081905092915050565b610b6081610a81565b610b6a8184610b4c565b9250610b7582610a97565b8060005b83811015610ba6578151610b8d8782610ab0565b9650610b9883610ac8565b925050600181019050610b79565b505050505050565b6000610bba8383610b57565b60408301905092915050565b6000602082019050919050565b610bdc81610b2c565b610be68184610b37565b9250610bf182610b42565b8060005b83811015610c22578151610c098782610bae565b9650610c1483610bc6565b925050600181019050610bf5565b505050505050565b600060039050919050565b600081905092915050565b6000819050919050565b6000602082019050919050565b610c6081610c2a565b610c6a8184610c35565b9250610c7582610c40565b8060005b83811015610ca6578151610c8d8782610ab0565b9650610c9883610c4a565b925050600181019050610c79565b505050505050565b600061016082019050610cc46000830187610ad5565b610cd16040830186610bd3565b610cde60c0830185610ad5565b610cec610100830184610c57565b95945050505050565b610cfe816106a1565b8114610d0957600080fd5b50565b600081519050610d1b81610cf5565b92915050565b600060208284031215610d3757610d36610611565b5b6000610d4584828501610d0c565b91505092915050565b600082825260208201905092915050565b7f496e76616c696420766572696669657220696e73657274000000000000000000600082015250565b6000610d95601783610d4e565b9150610da082610d5f565b602082019050919050565b60006020820190508181036000830152610dc481610d88565b9050919050565b610dd481610768565b82525050565b600081905092915050565b610dee81610768565b82525050565b6000610e008383610de5565b60208301905092915050565b610e1581610a81565b610e1f8184610dda565b9250610e2a82610a97565b8060005b83811015610e5b578151610e428782610df4565b9650610e4d83610ac8565b925050600181019050610e2e565b505050505050565b600081905092915050565b6000610e7a8383610e0c565b60408301905092915050565b610e8f81610b2c565b610e998184610e63565b9250610ea482610b42565b8060005b83811015610ed5578151610ebc8782610e6e565b9650610ec783610bc6565b925050600181019050610ea8565b505050505050565b61010082016000820151610ef46000850182610e0c565b506020820151610f076040850182610e86565b506040820151610f1a60c0850182610e0c565b50505050565b600061014082019050610f366000830186610dcb565b610f436020830185610dcb565b610f506040830184610edd565b949350505050565b7f4e487b7100000000000000000000000000000000000000000000000000000000600052603260045260246000fd5b7f446f63756d656e74206578697374730000000000000000000000000000000000600082015250565b6000610fbd600f83610d4e565b9150610fc882610f87565b602082019050919050565b60006020820190508181036000830152610fec81610fb0565b9050919050565b600060019050919050565b600081905092915050565b6000819050919050565b6000602082019050919050565b61102981610ff3565b6110338184610ffe565b925061103e82611009565b8060005b8381101561106f5781516110568782610ab0565b965061106183611013565b925050600181019050611042565b505050505050565b60006101208201905061108d6000830187610ad5565b61109a6040830186610bd3565b6110a760c0830185610ad5565b6110b5610100830184611020565b95945050505050565b7f496e76616c696420646f63756d656e7420696400000000000000000000000000600082015250565b60006110f4601383610d4e565b91506110ff826110be565b602082019050919050565b60006020820190508181036000830152611123816110e7565b9050919050565b6000610120820190506111406000830185610dcb565b61114d6020830184610edd565b939250505056fea2646970667358221220f337e7d4abe25c885832e2b0cb9e1419f142a2e699b7c9932085414d71d29b4e64736f6c63430008110033",
  "deployedBytecode": "0x608060405234801561001057600080fd5b50600436106100415760003560e01c8063572b6c05146100465780638bc5993514610076578063bfb0ab1614610092575b600080fd5b610060600480360381019061005b9190610674565b6100ae565b60405161006d91906106bc565b60405180910390f35b610090600480360381019061008b91906109d4565b610106565b005b6100ac60048036038101906100a79190610a53565b6102d2565b005b60007f000000000000000000000000000000000000000000000000000000000000000073ffffffffffffffffffffffffffffffffffffffff168273ffffffffffffffffffffffffffffffffffffffff16149050919050565b6000806000836000015181526020019081526020016000209050600073__$f7bbb06f34a5e60743295927e845009bcd$__6311479fea8460400151600001518560400151602001518660400151604001516040518060600160405280896000015181526020018860000154815260200189602001518152506040518563ffffffff1660e01b815260040161019d9493929190610cae565b602060405180830381865af41580156101ba573d6000803e3d6000fd5b505050506040513d601f19601f820116820180604052508101906101de9190610d21565b905080610220576040517f08c379a000000000000000000000000000000000000000000000000000000000815260040161021790610dab565b60405180910390fd5b82600001517f5217ae2a2557321021a53a1286eabc4e68bc78d80ff2d8cb5640cec8b338fd0383600001548560200151866040015160405161026493929190610f20565b60405180910390a282602001518260000181905550826040015182600901600082015181600001906002610299929190610528565b506020820151816002019060026102b1929190610568565b506040820151816006019060026102c9929190610528565b50905050505050565b600080600083600001518152602001908152602001600020905060008160010160000160006002811061030857610307610f58565b5b01541461034a576040517f08c379a000000000000000000000000000000000000000000000000000000000815260040161034190610fd3565b60405180910390fd5b600073__$f1c2f0db6d538d14eb840c655424d0f06f$__6343753b4d846020015160000151856020015160200151866020015160400151604051806020016040528089600001518152506040518563ffffffff1660e01b81526004016103b39493929190611077565b602060405180830381865af41580156103d0573d6000803e3d6000fd5b505050506040513d601f19601f820116820180604052508101906103f49190610d21565b905080610436576040517f08c379a000000000000000000000000000000000000000000000000000000000815260040161042d9061110a565b60405180910390fd5b826020015182600101600082015181600001906002610456929190610528565b5060208201518160020190600261046e929190610568565b50604082015181600601906002610486929190610528565b509050506104926104ee565b73ffffffffffffffffffffffffffffffffffffffff167fd2d44372492e8082b0303e3732cb5934ba9708de7c0b1889fa95c61b4573821a846000015185602001516040516104e192919061112a565b60405180910390a2505050565b60006104f9336100ae565b1561050d57601436033560601c905061051c565b610515610520565b905061051d565b5b90565b600033905090565b8260028101928215610557579160200282015b8281111561055657825182559160200191906001019061053b565b5b50905061056491906105b8565b5090565b826002800281019282156105a7579160200282015b828111156105a657825182906002610596929190610528565b509160200191906002019061057d565b5b5090506105b491906105d5565b5090565b5b808211156105d15760008160009055506001016105b9565b5090565b5b808211156105f557600081816105ec91906105f9565b506002016105d6565b5090565b506000815560010160009055565b6000604051905090565b600080fd5b600073ffffffffffffffffffffffffffffffffffffffff82169050919050565b600061064182610616565b9050919050565b61065181610636565b811461065c57600080fd5b50565b60008135905061066e81610648565b92915050565b60006020828403121561068a57610689610611565b5b60006106988482850161065f565b91505092915050565b60008115159050919050565b6106b6816106a1565b82525050565b60006020820190506106d160008301846106ad565b92915050565b600080fd5b6000601f19601f8301169050919050565b7f4e487b7100000000000000000000000000000000000000000000000000000000600052604160045260246000fd5b610725826106dc565b810181811067ffffffffffffffff82111715610744576107436106ed565b5b80604052505050565b6000610757610607565b9050610763828261071c565b919050565b6000819050919050565b61077b81610768565b811461078657600080fd5b50565b60008135905061079881610772565b92915050565b600080fd5b600067ffffffffffffffff8211156107be576107bd6106ed565b5b602082029050919050565b600080fd5b60006107e16107dc846107a3565b61074d565b905080602084028301858111156107fb576107fa6107c9565b5b835b8181101561082457806108108882610789565b8452602084019350506020810190506107fd565b5050509392505050565b600082601f8301126108435761084261079e565b5b60026108508482856107ce565b91505092915050565b600067ffffffffffffffff821115610874576108736106ed565b5b602082029050919050565b600061089261088d84610859565b61074d565b905080604084028301858111156108ac576108ab6107c9565b5b835b818110156108d557806108c1888261082e565b8452602084019350506040810190506108ae565b5050509392505050565b600082601f8301126108f4576108f361079e565b5b600261090184828561087f565b91505092915050565b60006101008284031215610921576109206106d7565b5b61092b606061074d565b9050600061093b8482850161082e565b600083015250604061094f848285016108df565b60208301525060c06109638482850161082e565b60408301525092915050565b60006101408284031215610986576109856106d7565b5b610990606061074d565b905060006109a084828501610789565b60008301525060206109b484828501610789565b60208301525060406109c88482850161090a565b60408301525092915050565b600061014082840312156109eb576109ea610611565b5b60006109f98482850161096f565b91505092915050565b60006101208284031215610a1957610a186106d7565b5b610a23604061074d565b90506000610a3384828501610789565b6000830152506020610a478482850161090a565b60208301525092915050565b60006101208284031215610a6a57610a69610611565b5b6000610a7884828501610a02565b91505092915050565b600060029050919050565b600081905092915050565b6000819050919050565b610aaa81610768565b82525050565b6000610abc8383610aa1565b60208301905092915050565b6000602082019050919050565b610ade81610a81565b610ae88184610a8c565b9250610af382610a97565b8060005b83811015610b24578151610b0b8782610ab0565b9650610b1683610ac8565b925050600181019050610af7565b505050505050565b600060029050919050565b600081905092915050565b6000819050919050565b600081905092915050565b610b6081610a81565b610b6a8184610b4c565b9250610b7582610a97565b8060005b83811015610ba6578151610b8d8782610ab0565b9650610b9883610ac8565b925050600181019050610b79565b505050505050565b6000610bba8383610b57565b60408301905092915050565b6000602082019050919050565b610bdc81610b2c565b610be68184610b37565b9250610bf182610b42565b8060005b83811015610c22578151610c098782610bae565b9650610c1483610bc6565b925050600181019050610bf5565b505050505050565b600060039050919050565b600081905092915050565b6000819050919050565b6000602082019050919050565b610c6081610c2a565b610c6a8184610c35565b9250610c7582610c40565b8060005b83811015610ca6578151610c8d8782610ab0565b9650610c9883610c4a565b925050600181019050610c79565b505050505050565b600061016082019050610cc46000830187610ad5565b610cd16040830186610bd3565b610cde60c0830185610ad5565b610cec610100830184610c57565b95945050505050565b610cfe816106a1565b8114610d0957600080fd5b50565b600081519050610d1b81610cf5565b92915050565b600060208284031215610d3757610d36610611565b5b6000610d4584828501610d0c565b91505092915050565b600082825260208201905092915050565b7f496e76616c696420766572696669657220696e73657274000000000000000000600082015250565b6000610d95601783610d4e565b9150610da082610d5f565b602082019050919050565b60006020820190508181036000830152610dc481610d88565b9050919050565b610dd481610768565b82525050565b600081905092915050565b610dee81610768565b82525050565b6000610e008383610de5565b60208301905092915050565b610e1581610a81565b610e1f8184610dda565b9250610e2a82610a97565b8060005b83811015610e5b578151610e428782610df4565b9650610e4d83610ac8565b925050600181019050610e2e565b505050505050565b600081905092915050565b6000610e7a8383610e0c565b60408301905092915050565b610e8f81610b2c565b610e998184610e63565b9250610ea482610b42565b8060005b83811015610ed5578151610ebc8782610e6e565b9650610ec783610bc6565b925050600181019050610ea8565b505050505050565b61010082016000820151610ef46000850182610e0c565b506020820151610f076040850182610e86565b506040820151610f1a60c0850182610e0c565b50505050565b600061014082019050610f366000830186610dcb565b610f436020830185610dcb565b610f506040830184610edd565b949350505050565b7f4e487b7100000000000000000000000000000000000000000000000000000000600052603260045260246000fd5b7f446f63756d656e74206578697374730000000000000000000000000000000000600082015250565b6000610fbd600f83610d4e565b9150610fc882610f87565b602082019050919050565b60006020820190508181036000830152610fec81610fb0565b9050919050565b600060019050919050565b600081905092915050565b6000819050919050565b6000602082019050919050565b61102981610ff3565b6110338184610ffe565b925061103e82611009565b8060005b8381101561106f5781516110568782610ab0565b965061106183611013565b925050600181019050611042565b505050505050565b60006101208201905061108d6000830187610ad5565b61109a6040830186610bd3565b6110a760c0830185610ad5565b6110b5610100830184611020565b95945050505050565b7f496e76616c696420646f63756d656e7420696400000000000000000000000000600082015250565b60006110f4601383610d4e565b91506110ff826110be565b602082019050919050565b60006020820190508181036000830152611123816110e7565b9050919050565b6000610120820190506111406000830185610dcb565b61114d6020830184610edd565b939250505056fea2646970667358221220f337e7d4abe25c885832e2b0cb9e1419f142a2e699b7c9932085414d71d29b4e64736f6c63430008110033",
  "libraries": {
    "ValidDocumentId": "0x3ACb9Df161E9000Df461f262065FD4dF702CFcab",
    "ValidDocumentVerifierInsert": "0x271FfE9b0c73C06b87705410e5209E431d16393D"
  },
  "devdoc": {
    "kind": "dev",
    "methods": {},
    "version": 1
  },
  "userdoc": {
    "kind": "user",
    "methods": {},
    "version": 1
  },
  "storageLayout": {
    "storage": [
      {
        "astId": 1860,
        "contract": "contracts/ZKDocument.sol:ZKDocument",
        "label": "documents",
        "offset": 0,
        "slot": "0",
        "type": "t_mapping(t_uint256,t_struct(Document)2036_storage)"
      }
    ],
    "types": {
      "t_array(t_array(t_uint256)2_storage)2_storage": {
        "base": "t_array(t_uint256)2_storage",
        "encoding": "inplace",
        "label": "uint256[2][2]",
        "numberOfBytes": "128"
      },
      "t_array(t_uint256)2_storage": {
        "base": "t_uint256",
        "encoding": "inplace",
        "label": "uint256[2]",
        "numberOfBytes": "64"
      },
      "t_mapping(t_uint256,t_struct(Document)2036_storage)": {
        "encoding": "mapping",
        "key": "t_uint256",
        "label": "mapping(uint256 => struct ZKDocumentTypes.Document)",
        "numberOfBytes": "32",
        "value": "t_struct(Document)2036_storage"
      },
      "t_struct(Document)2036_storage": {
        "encoding": "inplace",
        "label": "struct ZKDocumentTypes.Document",
        "members": [
          {
            "astId": 2029,
            "contract": "contracts/ZKDocument.sol:ZKDocument",
            "label": "verifiersRoot",
            "offset": 0,
            "slot": "0",
            "type": "t_uint256"
          },
          {
            "astId": 2032,
            "contract": "contracts/ZKDocument.sol:ZKDocument",
            "label": "validDocumentIdProof",
            "offset": 0,
            "slot": "1",
            "type": "t_struct(ZKProof)2027_storage"
          },
          {
            "astId": 2035,
            "contract": "contracts/ZKDocument.sol:ZKDocument",
            "label": "validVerifiersProof",
            "offset": 0,
            "slot": "9",
            "type": "t_struct(ZKProof)2027_storage"
          }
        ],
        "numberOfBytes": "544"
      },
      "t_struct(ZKProof)2027_storage": {
        "encoding": "inplace",
        "label": "struct ZKDocumentTypes.ZKProof",
        "members": [
          {
            "astId": 2016,
            "contract": "contracts/ZKDocument.sol:ZKDocument",
            "label": "a",
            "offset": 0,
            "slot": "0",
            "type": "t_array(t_uint256)2_storage"
          },
          {
            "astId": 2022,
            "contract": "contracts/ZKDocument.sol:ZKDocument",
            "label": "b",
            "offset": 0,
            "slot": "2",
            "type": "t_array(t_array(t_uint256)2_storage)2_storage"
          },
          {
            "astId": 2026,
            "contract": "contracts/ZKDocument.sol:ZKDocument",
            "label": "c",
            "offset": 0,
            "slot": "6",
            "type": "t_array(t_uint256)2_storage"
          }
        ],
        "numberOfBytes": "256"
      },
      "t_uint256": {
        "encoding": "inplace",
        "label": "uint256",
        "numberOfBytes": "32"
      }
    }
  }
}