{
  "address": "0x907f8dab7d7422E21774fe51a63b775F4B66bD91",
  "abi": [
    {
      "inputs": [
        {
          "internalType": "contract MinimalForwarder",
          "name": "forwarder",
          "type": "address"
        }
      ],
      "stateMutability": "nonpayable",
      "type": "constructor"
    },
    {
      "anonymous": false,
      "inputs": [
        {
          "indexed": true,
          "internalType": "address",
          "name": "from",
          "type": "address"
        },
        {
          "indexed": false,
          "internalType": "uint256",
          "name": "documentId",
          "type": "uint256"
        },
        {
          "components": [
            {
              "internalType": "uint256[2]",
              "name": "a",
              "type": "uint256[2]"
            },
            {
              "internalType": "uint256[2][2]",
              "name": "b",
              "type": "uint256[2][2]"
            },
            {
              "internalType": "uint256[2]",
              "name": "c",
              "type": "uint256[2]"
            }
          ],
          "indexed": false,
          "internalType": "struct ZKDocumentTypes.ZKProof",
          "name": "proof",
          "type": "tuple"
        }
      ],
      "name": "CreateDocument",
      "type": "event"
    },
    {
      "anonymous": false,
      "inputs": [
        {
          "indexed": true,
          "internalType": "uint256",
          "name": "documentId",
          "type": "uint256"
        },
        {
          "components": [
            {
              "internalType": "uint256",
              "name": "R8x",
              "type": "uint256"
            },
            {
              "internalType": "uint256",
              "name": "R8y",
              "type": "uint256"
            },
            {
              "internalType": "uint256",
              "name": "S",
              "type": "uint256"
            }
          ],
          "indexed": false,
          "internalType": "struct ZKDocumentTypes.DigitalSignature",
          "name": "verifiedParticipant",
          "type": "tuple"
        },
        {
          "indexed": false,
          "internalType": "uint256",
          "name": "oldRoot",
          "type": "uint256"
        },
        {
          "indexed": false,
          "internalType": "uint256",
          "name": "newRoot",
          "type": "uint256"
        },
        {
          "components": [
            {
              "internalType": "uint256[2]",
              "name": "a",
              "type": "uint256[2]"
            },
            {
              "internalType": "uint256[2][2]",
              "name": "b",
              "type": "uint256[2][2]"
            },
            {
              "internalType": "uint256[2]",
              "name": "c",
              "type": "uint256[2]"
            }
          ],
          "indexed": false,
          "internalType": "struct ZKDocumentTypes.ZKProof",
          "name": "proof",
          "type": "tuple"
        }
      ],
      "name": "NewDocumentParticipant",
      "type": "event"
    },
    {
      "inputs": [
        {
          "components": [
            {
              "internalType": "uint256",
              "name": "documentId",
              "type": "uint256"
            },
            {
              "components": [
                {
                  "internalType": "uint256",
                  "name": "R8x",
                  "type": "uint256"
                },
                {
                  "internalType": "uint256",
                  "name": "R8y",
                  "type": "uint256"
                },
                {
                  "internalType": "uint256",
                  "name": "S",
                  "type": "uint256"
                }
              ],
              "internalType": "struct ZKDocumentTypes.DigitalSignature",
              "name": "verifiedParticipant",
              "type": "tuple"
            },
            {
              "internalType": "uint256",
              "name": "root",
              "type": "uint256"
            },
            {
              "components": [
                {
                  "internalType": "uint256[2]",
                  "name": "a",
                  "type": "uint256[2]"
                },
                {
                  "internalType": "uint256[2][2]",
                  "name": "b",
                  "type": "uint256[2][2]"
                },
                {
                  "internalType": "uint256[2]",
                  "name": "c",
                  "type": "uint256[2]"
                }
              ],
              "internalType": "struct ZKDocumentTypes.ZKProof",
              "name": "proof",
              "type": "tuple"
            }
          ],
          "internalType": "struct ZKDocumentTypes.AddDocumentParticipantParams",
          "name": "params",
          "type": "tuple"
        }
      ],
      "name": "addDocumentParticipant",
      "outputs": [],
      "stateMutability": "nonpayable",
      "type": "function"
    },
    {
      "inputs": [
        {
          "components": [
            {
              "internalType": "uint256",
              "name": "documentId",
              "type": "uint256"
            },
            {
              "components": [
                {
                  "internalType": "uint256[2]",
                  "name": "a",
                  "type": "uint256[2]"
                },
                {
                  "internalType": "uint256[2][2]",
                  "name": "b",
                  "type": "uint256[2][2]"
                },
                {
                  "internalType": "uint256[2]",
                  "name": "c",
                  "type": "uint256[2]"
                }
              ],
              "internalType": "struct ZKDocumentTypes.ZKProof",
              "name": "proof",
              "type": "tuple"
            }
          ],
          "internalType": "struct ZKDocumentTypes.CreateDocumentParams",
          "name": "params",
          "type": "tuple"
        }
      ],
      "name": "createDocument",
      "outputs": [],
      "stateMutability": "nonpayable",
      "type": "function"
    },
    {
      "inputs": [
        {
          "internalType": "address",
          "name": "forwarder",
          "type": "address"
        }
      ],
      "name": "isTrustedForwarder",
      "outputs": [
        {
          "internalType": "bool",
          "name": "",
          "type": "bool"
        }
      ],
      "stateMutability": "view",
      "type": "function"
    }
  ],
  "transactionHash": "0x7c6f820d06bfe0cf36d1d9032d3b1dc131fa6ff34ddd3b987cb0f051c37075cd",
  "args": [
    "0x9c66b91cFF4855dDf693889335ACBB0564ea19B8"
  ],
  "numDeployments": 2,
  "solcInputHash": "f73cd7c19c823374b76176ce84dcc854",
  "bytecode": "0x60a06040523480156200001157600080fd5b5060405162001398380380620013988339818101604052810190620000379190620000f2565b808073ffffffffffffffffffffffffffffffffffffffff1660808173ffffffffffffffffffffffffffffffffffffffff1681525050505062000124565b600080fd5b600073ffffffffffffffffffffffffffffffffffffffff82169050919050565b6000620000a68262000079565b9050919050565b6000620000ba8262000099565b9050919050565b620000cc81620000ad565b8114620000d857600080fd5b50565b600081519050620000ec81620000c1565b92915050565b6000602082840312156200010b576200010a62000074565b5b60006200011b84828501620000db565b91505092915050565b60805161125862000140600039600061028401526112586000f3fe608060405234801561001057600080fd5b50600436106100415760003560e01c806346cd4d2014610046578063572b6c0514610062578063bfb0ab1614610092575b600080fd5b610060600480360381019061005b9190610991565b6100ae565b005b61007c60048036038101906100779190610a1d565b610280565b6040516100899190610a65565b60405180910390f35b6100ac60048036038101906100a79190610ad1565b6102d8565b005b600080600083600001518152602001908152602001600020905060007314Eebc7B1fd6d874bBf578551aFdF007E82dAE676311479fea8460600151600001518560600151602001518660600151604001516040518060600160405280896000015181526020018860000154815260200189604001518152506040518563ffffffff1660e01b81526004016101459493929190610d2c565b602060405180830381865af4158015610162573d6000803e3d6000fd5b505050506040513d601f19601f820116820180604052508101906101869190610d9f565b9050806101c8576040517f08c379a00000000000000000000000000000000000000000000000000000000081526004016101bf90610e29565b60405180910390fd5b82600001517f8717b1e42fc0b4efdd45315ac557b1c0716305321dac9a6504d311bb399fb80284602001518460000154866040015187606001516040516102129493929190610fe0565b60405180910390a28260400151826000018190555082606001518260090160008201518160000190600261024792919061052e565b5060208201518160020190600261025f92919061056e565b5060408201518160060190600261027792919061052e565b50905050505050565b60007f000000000000000000000000000000000000000000000000000000000000000073ffffffffffffffffffffffffffffffffffffffff168273ffffffffffffffffffffffffffffffffffffffff16149050919050565b600080600083600001518152602001908152602001600020905060008160010160000160006002811061030e5761030d611026565b5b015414610350576040517f08c379a0000000000000000000000000000000000000000000000000000000008152600401610347906110a1565b60405180910390fd5b6000734E17ADA2a503D80006a217789ADc09e3ab47A22c6343753b4d846020015160000151856020015160200151866020015160400151604051806020016040528089600001518152506040518563ffffffff1660e01b81526004016103b99493929190611145565b602060405180830381865af41580156103d6573d6000803e3d6000fd5b505050506040513d601f19601f820116820180604052508101906103fa9190610d9f565b90508061043c576040517f08c379a0000000000000000000000000000000000000000000000000000000008152600401610433906111d8565b60405180910390fd5b82602001518260010160008201518160000190600261045c92919061052e565b5060208201518160020190600261047492919061056e565b5060408201518160060190600261048c92919061052e565b509050506104986104f4565b73ffffffffffffffffffffffffffffffffffffffff167fd2d44372492e8082b0303e3732cb5934ba9708de7c0b1889fa95c61b4573821a846000015185602001516040516104e79291906111f8565b60405180910390a2505050565b60006104ff33610280565b1561051357601436033560601c9050610522565b61051b610526565b9050610523565b5b90565b600033905090565b826002810192821561055d579160200282015b8281111561055c578251825591602001919060010190610541565b5b50905061056a91906105be565b5090565b826002800281019282156105ad579160200282015b828111156105ac5782518290600261059c92919061052e565b5091602001919060020190610583565b5b5090506105ba91906105db565b5090565b5b808211156105d75760008160009055506001016105bf565b5090565b5b808211156105fb57600081816105f291906105ff565b506002016105dc565b5090565b506000815560010160009055565b6000604051905090565b600080fd5b600080fd5b6000601f19601f8301169050919050565b7f4e487b7100000000000000000000000000000000000000000000000000000000600052604160045260246000fd5b61066a82610621565b810181811067ffffffffffffffff8211171561068957610688610632565b5b80604052505050565b600061069c61060d565b90506106a88282610661565b919050565b6000819050919050565b6106c0816106ad565b81146106cb57600080fd5b50565b6000813590506106dd816106b7565b92915050565b6000606082840312156106f9576106f861061c565b5b6107036060610692565b90506000610713848285016106ce565b6000830152506020610727848285016106ce565b602083015250604061073b848285016106ce565b60408301525092915050565b600080fd5b600067ffffffffffffffff82111561076757610766610632565b5b602082029050919050565b600080fd5b600061078a6107858461074c565b610692565b905080602084028301858111156107a4576107a3610772565b5b835b818110156107cd57806107b988826106ce565b8452602084019350506020810190506107a6565b5050509392505050565b600082601f8301126107ec576107eb610747565b5b60026107f9848285610777565b91505092915050565b600067ffffffffffffffff82111561081d5761081c610632565b5b602082029050919050565b600061083b61083684610802565b610692565b9050806040840283018581111561085557610854610772565b5b835b8181101561087e578061086a88826107d7565b845260208401935050604081019050610857565b5050509392505050565b600082601f83011261089d5761089c610747565b5b60026108aa848285610828565b91505092915050565b600061010082840312156108ca576108c961061c565b5b6108d46060610692565b905060006108e4848285016107d7565b60008301525060406108f884828501610888565b60208301525060c061090c848285016107d7565b60408301525092915050565b60006101a0828403121561092f5761092e61061c565b5b6109396080610692565b90506000610949848285016106ce565b600083015250602061095d848285016106e3565b6020830152506080610971848285016106ce565b60408301525060a0610985848285016108b3565b60608301525092915050565b60006101a082840312156109a8576109a7610617565b5b60006109b684828501610918565b91505092915050565b600073ffffffffffffffffffffffffffffffffffffffff82169050919050565b60006109ea826109bf565b9050919050565b6109fa816109df565b8114610a0557600080fd5b50565b600081359050610a17816109f1565b92915050565b600060208284031215610a3357610a32610617565b5b6000610a4184828501610a08565b91505092915050565b60008115159050919050565b610a5f81610a4a565b82525050565b6000602082019050610a7a6000830184610a56565b92915050565b60006101208284031215610a9757610a9661061c565b5b610aa16040610692565b90506000610ab1848285016106ce565b6000830152506020610ac5848285016108b3565b60208301525092915050565b60006101208284031215610ae857610ae7610617565b5b6000610af684828501610a80565b91505092915050565b600060029050919050565b600081905092915050565b6000819050919050565b610b28816106ad565b82525050565b6000610b3a8383610b1f565b60208301905092915050565b6000602082019050919050565b610b5c81610aff565b610b668184610b0a565b9250610b7182610b15565b8060005b83811015610ba2578151610b898782610b2e565b9650610b9483610b46565b925050600181019050610b75565b505050505050565b600060029050919050565b600081905092915050565b6000819050919050565b600081905092915050565b610bde81610aff565b610be88184610bca565b9250610bf382610b15565b8060005b83811015610c24578151610c0b8782610b2e565b9650610c1683610b46565b925050600181019050610bf7565b505050505050565b6000610c388383610bd5565b60408301905092915050565b6000602082019050919050565b610c5a81610baa565b610c648184610bb5565b9250610c6f82610bc0565b8060005b83811015610ca0578151610c878782610c2c565b9650610c9283610c44565b925050600181019050610c73565b505050505050565b600060039050919050565b600081905092915050565b6000819050919050565b6000602082019050919050565b610cde81610ca8565b610ce88184610cb3565b9250610cf382610cbe565b8060005b83811015610d24578151610d0b8782610b2e565b9650610d1683610cc8565b925050600181019050610cf7565b505050505050565b600061016082019050610d426000830187610b53565b610d4f6040830186610c51565b610d5c60c0830185610b53565b610d6a610100830184610cd5565b95945050505050565b610d7c81610a4a565b8114610d8757600080fd5b50565b600081519050610d9981610d73565b92915050565b600060208284031215610db557610db4610617565b5b6000610dc384828501610d8a565b91505092915050565b600082825260208201905092915050565b7f496e76616c6964207061727469636970616e7420696e73657274000000000000600082015250565b6000610e13601a83610dcc565b9150610e1e82610ddd565b602082019050919050565b60006020820190508181036000830152610e4281610e06565b9050919050565b610e52816106ad565b82525050565b606082016000820151610e6e6000850182610e49565b506020820151610e816020850182610e49565b506040820151610e946040850182610e49565b50505050565b610ea3816106ad565b82525050565b600081905092915050565b6000610ec08383610e49565b60208301905092915050565b610ed581610aff565b610edf8184610ea9565b9250610eea82610b15565b8060005b83811015610f1b578151610f028782610eb4565b9650610f0d83610b46565b925050600181019050610eee565b505050505050565b600081905092915050565b6000610f3a8383610ecc565b60408301905092915050565b610f4f81610baa565b610f598184610f23565b9250610f6482610bc0565b8060005b83811015610f95578151610f7c8782610f2e565b9650610f8783610c44565b925050600181019050610f68565b505050505050565b61010082016000820151610fb46000850182610ecc565b506020820151610fc76040850182610f46565b506040820151610fda60c0850182610ecc565b50505050565b60006101a082019050610ff66000830187610e58565b6110036060830186610e9a565b6110106080830185610e9a565b61101d60a0830184610f9d565b95945050505050565b7f4e487b7100000000000000000000000000000000000000000000000000000000600052603260045260246000fd5b7f446f63756d656e74206578697374730000000000000000000000000000000000600082015250565b600061108b600f83610dcc565b915061109682611055565b602082019050919050565b600060208201905081810360008301526110ba8161107e565b9050919050565b600060019050919050565b600081905092915050565b6000819050919050565b6000602082019050919050565b6110f7816110c1565b61110181846110cc565b925061110c826110d7565b8060005b8381101561113d5781516111248782610b2e565b965061112f836110e1565b925050600181019050611110565b505050505050565b60006101208201905061115b6000830187610b53565b6111686040830186610c51565b61117560c0830185610b53565b6111836101008301846110ee565b95945050505050565b7f496e76616c696420646f63756d656e7420696400000000000000000000000000600082015250565b60006111c2601383610dcc565b91506111cd8261118c565b602082019050919050565b600060208201905081810360008301526111f1816111b5565b9050919050565b60006101208201905061120e6000830185610e9a565b61121b6020830184610f9d565b939250505056fea26469706673582212201e68eb4439fb3a0fb1c4f8a4a4d5ca6dcdd2aedcf451f2d463a9c71d3f33e1f364736f6c63430008110033",
  "deployedBytecode": "0x608060405234801561001057600080fd5b50600436106100415760003560e01c806346cd4d2014610046578063572b6c0514610062578063bfb0ab1614610092575b600080fd5b610060600480360381019061005b9190610991565b6100ae565b005b61007c60048036038101906100779190610a1d565b610280565b6040516100899190610a65565b60405180910390f35b6100ac60048036038101906100a79190610ad1565b6102d8565b005b6000806000836000015181526020019081526020016000209050600073__$dd5c78d03d4789677603e538c718adfa8a$__6311479fea8460600151600001518560600151602001518660600151604001516040518060600160405280896000015181526020018860000154815260200189604001518152506040518563ffffffff1660e01b81526004016101459493929190610d2c565b602060405180830381865af4158015610162573d6000803e3d6000fd5b505050506040513d601f19601f820116820180604052508101906101869190610d9f565b9050806101c8576040517f08c379a00000000000000000000000000000000000000000000000000000000081526004016101bf90610e29565b60405180910390fd5b82600001517f8717b1e42fc0b4efdd45315ac557b1c0716305321dac9a6504d311bb399fb80284602001518460000154866040015187606001516040516102129493929190610fe0565b60405180910390a28260400151826000018190555082606001518260090160008201518160000190600261024792919061052e565b5060208201518160020190600261025f92919061056e565b5060408201518160060190600261027792919061052e565b50905050505050565b60007f000000000000000000000000000000000000000000000000000000000000000073ffffffffffffffffffffffffffffffffffffffff168273ffffffffffffffffffffffffffffffffffffffff16149050919050565b600080600083600001518152602001908152602001600020905060008160010160000160006002811061030e5761030d611026565b5b015414610350576040517f08c379a0000000000000000000000000000000000000000000000000000000008152600401610347906110a1565b60405180910390fd5b600073__$f1c2f0db6d538d14eb840c655424d0f06f$__6343753b4d846020015160000151856020015160200151866020015160400151604051806020016040528089600001518152506040518563ffffffff1660e01b81526004016103b99493929190611145565b602060405180830381865af41580156103d6573d6000803e3d6000fd5b505050506040513d601f19601f820116820180604052508101906103fa9190610d9f565b90508061043c576040517f08c379a0000000000000000000000000000000000000000000000000000000008152600401610433906111d8565b60405180910390fd5b82602001518260010160008201518160000190600261045c92919061052e565b5060208201518160020190600261047492919061056e565b5060408201518160060190600261048c92919061052e565b509050506104986104f4565b73ffffffffffffffffffffffffffffffffffffffff167fd2d44372492e8082b0303e3732cb5934ba9708de7c0b1889fa95c61b4573821a846000015185602001516040516104e79291906111f8565b60405180910390a2505050565b60006104ff33610280565b1561051357601436033560601c9050610522565b61051b610526565b9050610523565b5b90565b600033905090565b826002810192821561055d579160200282015b8281111561055c578251825591602001919060010190610541565b5b50905061056a91906105be565b5090565b826002800281019282156105ad579160200282015b828111156105ac5782518290600261059c92919061052e565b5091602001919060020190610583565b5b5090506105ba91906105db565b5090565b5b808211156105d75760008160009055506001016105bf565b5090565b5b808211156105fb57600081816105f291906105ff565b506002016105dc565b5090565b506000815560010160009055565b6000604051905090565b600080fd5b600080fd5b6000601f19601f8301169050919050565b7f4e487b7100000000000000000000000000000000000000000000000000000000600052604160045260246000fd5b61066a82610621565b810181811067ffffffffffffffff8211171561068957610688610632565b5b80604052505050565b600061069c61060d565b90506106a88282610661565b919050565b6000819050919050565b6106c0816106ad565b81146106cb57600080fd5b50565b6000813590506106dd816106b7565b92915050565b6000606082840312156106f9576106f861061c565b5b6107036060610692565b90506000610713848285016106ce565b6000830152506020610727848285016106ce565b602083015250604061073b848285016106ce565b60408301525092915050565b600080fd5b600067ffffffffffffffff82111561076757610766610632565b5b602082029050919050565b600080fd5b600061078a6107858461074c565b610692565b905080602084028301858111156107a4576107a3610772565b5b835b818110156107cd57806107b988826106ce565b8452602084019350506020810190506107a6565b5050509392505050565b600082601f8301126107ec576107eb610747565b5b60026107f9848285610777565b91505092915050565b600067ffffffffffffffff82111561081d5761081c610632565b5b602082029050919050565b600061083b61083684610802565b610692565b9050806040840283018581111561085557610854610772565b5b835b8181101561087e578061086a88826107d7565b845260208401935050604081019050610857565b5050509392505050565b600082601f83011261089d5761089c610747565b5b60026108aa848285610828565b91505092915050565b600061010082840312156108ca576108c961061c565b5b6108d46060610692565b905060006108e4848285016107d7565b60008301525060406108f884828501610888565b60208301525060c061090c848285016107d7565b60408301525092915050565b60006101a0828403121561092f5761092e61061c565b5b6109396080610692565b90506000610949848285016106ce565b600083015250602061095d848285016106e3565b6020830152506080610971848285016106ce565b60408301525060a0610985848285016108b3565b60608301525092915050565b60006101a082840312156109a8576109a7610617565b5b60006109b684828501610918565b91505092915050565b600073ffffffffffffffffffffffffffffffffffffffff82169050919050565b60006109ea826109bf565b9050919050565b6109fa816109df565b8114610a0557600080fd5b50565b600081359050610a17816109f1565b92915050565b600060208284031215610a3357610a32610617565b5b6000610a4184828501610a08565b91505092915050565b60008115159050919050565b610a5f81610a4a565b82525050565b6000602082019050610a7a6000830184610a56565b92915050565b60006101208284031215610a9757610a9661061c565b5b610aa16040610692565b90506000610ab1848285016106ce565b6000830152506020610ac5848285016108b3565b60208301525092915050565b60006101208284031215610ae857610ae7610617565b5b6000610af684828501610a80565b91505092915050565b600060029050919050565b600081905092915050565b6000819050919050565b610b28816106ad565b82525050565b6000610b3a8383610b1f565b60208301905092915050565b6000602082019050919050565b610b5c81610aff565b610b668184610b0a565b9250610b7182610b15565b8060005b83811015610ba2578151610b898782610b2e565b9650610b9483610b46565b925050600181019050610b75565b505050505050565b600060029050919050565b600081905092915050565b6000819050919050565b600081905092915050565b610bde81610aff565b610be88184610bca565b9250610bf382610b15565b8060005b83811015610c24578151610c0b8782610b2e565b9650610c1683610b46565b925050600181019050610bf7565b505050505050565b6000610c388383610bd5565b60408301905092915050565b6000602082019050919050565b610c5a81610baa565b610c648184610bb5565b9250610c6f82610bc0565b8060005b83811015610ca0578151610c878782610c2c565b9650610c9283610c44565b925050600181019050610c73565b505050505050565b600060039050919050565b600081905092915050565b6000819050919050565b6000602082019050919050565b610cde81610ca8565b610ce88184610cb3565b9250610cf382610cbe565b8060005b83811015610d24578151610d0b8782610b2e565b9650610d1683610cc8565b925050600181019050610cf7565b505050505050565b600061016082019050610d426000830187610b53565b610d4f6040830186610c51565b610d5c60c0830185610b53565b610d6a610100830184610cd5565b95945050505050565b610d7c81610a4a565b8114610d8757600080fd5b50565b600081519050610d9981610d73565b92915050565b600060208284031215610db557610db4610617565b5b6000610dc384828501610d8a565b91505092915050565b600082825260208201905092915050565b7f496e76616c6964207061727469636970616e7420696e73657274000000000000600082015250565b6000610e13601a83610dcc565b9150610e1e82610ddd565b602082019050919050565b60006020820190508181036000830152610e4281610e06565b9050919050565b610e52816106ad565b82525050565b606082016000820151610e6e6000850182610e49565b506020820151610e816020850182610e49565b506040820151610e946040850182610e49565b50505050565b610ea3816106ad565b82525050565b600081905092915050565b6000610ec08383610e49565b60208301905092915050565b610ed581610aff565b610edf8184610ea9565b9250610eea82610b15565b8060005b83811015610f1b578151610f028782610eb4565b9650610f0d83610b46565b925050600181019050610eee565b505050505050565b600081905092915050565b6000610f3a8383610ecc565b60408301905092915050565b610f4f81610baa565b610f598184610f23565b9250610f6482610bc0565b8060005b83811015610f95578151610f7c8782610f2e565b9650610f8783610c44565b925050600181019050610f68565b505050505050565b61010082016000820151610fb46000850182610ecc565b506020820151610fc76040850182610f46565b506040820151610fda60c0850182610ecc565b50505050565b60006101a082019050610ff66000830187610e58565b6110036060830186610e9a565b6110106080830185610e9a565b61101d60a0830184610f9d565b95945050505050565b7f4e487b7100000000000000000000000000000000000000000000000000000000600052603260045260246000fd5b7f446f63756d656e74206578697374730000000000000000000000000000000000600082015250565b600061108b600f83610dcc565b915061109682611055565b602082019050919050565b600060208201905081810360008301526110ba8161107e565b9050919050565b600060019050919050565b600081905092915050565b6000819050919050565b6000602082019050919050565b6110f7816110c1565b61110181846110cc565b925061110c826110d7565b8060005b8381101561113d5781516111248782610b2e565b965061112f836110e1565b925050600181019050611110565b505050505050565b60006101208201905061115b6000830187610b53565b6111686040830186610c51565b61117560c0830185610b53565b6111836101008301846110ee565b95945050505050565b7f496e76616c696420646f63756d656e7420696400000000000000000000000000600082015250565b60006111c2601383610dcc565b91506111cd8261118c565b602082019050919050565b600060208201905081810360008301526111f1816111b5565b9050919050565b60006101208201905061120e6000830185610e9a565b61121b6020830184610f9d565b939250505056fea26469706673582212201e68eb4439fb3a0fb1c4f8a4a4d5ca6dcdd2aedcf451f2d463a9c71d3f33e1f364736f6c63430008110033",
  "libraries": {
    "ValidDocumentId": "0x4E17ADA2a503D80006a217789ADc09e3ab47A22c",
    "ValidDocumentParticipantInsert": "0x14Eebc7B1fd6d874bBf578551aFdF007E82dAE67"
  },
  "devdoc": {
    "kind": "dev",
    "methods": {},
    "version": 1
  },
  "userdoc": {
    "kind": "user",
    "methods": {},
    "version": 1
  },
  "storageLayout": {
    "storage": [
      {
        "astId": 1863,
        "contract": "contracts/ZKDocument.sol:ZKDocument",
        "label": "documents",
        "offset": 0,
        "slot": "0",
        "type": "t_mapping(t_uint256,t_struct(Document)2048_storage)"
      }
    ],
    "types": {
      "t_array(t_array(t_uint256)2_storage)2_storage": {
        "base": "t_array(t_uint256)2_storage",
        "encoding": "inplace",
        "label": "uint256[2][2]",
        "numberOfBytes": "128"
      },
      "t_array(t_uint256)2_storage": {
        "base": "t_uint256",
        "encoding": "inplace",
        "label": "uint256[2]",
        "numberOfBytes": "64"
      },
      "t_mapping(t_uint256,t_struct(Document)2048_storage)": {
        "encoding": "mapping",
        "key": "t_uint256",
        "label": "mapping(uint256 => struct ZKDocumentTypes.Document)",
        "numberOfBytes": "32",
        "value": "t_struct(Document)2048_storage"
      },
      "t_struct(Document)2048_storage": {
        "encoding": "inplace",
        "label": "struct ZKDocumentTypes.Document",
        "members": [
          {
            "astId": 2041,
            "contract": "contracts/ZKDocument.sol:ZKDocument",
            "label": "participantsRoot",
            "offset": 0,
            "slot": "0",
            "type": "t_uint256"
          },
          {
            "astId": 2044,
            "contract": "contracts/ZKDocument.sol:ZKDocument",
            "label": "validDocumentIdProof",
            "offset": 0,
            "slot": "1",
            "type": "t_struct(ZKProof)2032_storage"
          },
          {
            "astId": 2047,
            "contract": "contracts/ZKDocument.sol:ZKDocument",
            "label": "validParticipantsProof",
            "offset": 0,
            "slot": "9",
            "type": "t_struct(ZKProof)2032_storage"
          }
        ],
        "numberOfBytes": "544"
      },
      "t_struct(ZKProof)2032_storage": {
        "encoding": "inplace",
        "label": "struct ZKDocumentTypes.ZKProof",
        "members": [
          {
            "astId": 2021,
            "contract": "contracts/ZKDocument.sol:ZKDocument",
            "label": "a",
            "offset": 0,
            "slot": "0",
            "type": "t_array(t_uint256)2_storage"
          },
          {
            "astId": 2027,
            "contract": "contracts/ZKDocument.sol:ZKDocument",
            "label": "b",
            "offset": 0,
            "slot": "2",
            "type": "t_array(t_array(t_uint256)2_storage)2_storage"
          },
          {
            "astId": 2031,
            "contract": "contracts/ZKDocument.sol:ZKDocument",
            "label": "c",
            "offset": 0,
            "slot": "6",
            "type": "t_array(t_uint256)2_storage"
          }
        ],
        "numberOfBytes": "256"
      },
      "t_uint256": {
        "encoding": "inplace",
        "label": "uint256",
        "numberOfBytes": "32"
      }
    }
  }
}